:04000000C7EF0DF049
:10080000003F065B4F666D7D077F6F777C395E79B1
:1008100071456E676C69736820202020202020209D
:100820002000506F7274756775657320202020203A
:100830002020004368616E67652074696D65202023
:100840002020004368616E676520616C61726D20D5
:10085000202000416C74657261722074656D706F48
:10086000202000416C7465726172206964696F6D4B
:10087000612000416C746572617220616C61726DFF
:100880006520004368616E6765206C616E67756105
:10089000676500202020202020202020202000002C
:1008A000B9EC09F003503B6EC7EF05F03B50D8A4FC
:1008B0005CEF04F05EEF04F06EEF04F0000E026EE9
:1008C000000E016EC8EC0FF0FF0E0124346EFF0E17
:1008D0000220356E000E366EB2EC0FF03B04D8A449
:1008E00074EF04F076EF04F086EF04F0000E026E71
:1008F000000E016EC8EC0FF0010E0124346E000EE4
:100900000220356E000E366EB2EC0FF0020E3B1870
:10091000D8A48DEF04F08FEF04F092EF04F0020EF4
:10092000CAEC10F0030E3B18D8A499EF04F09BEF2B
:1009300004F09EEF04F0010ECAEC10F0040E3B1818
:10094000D8A4A5EF04F0A7EF04F0DFEF05F0040E44
:10095000CAEC10F0000E4D6EDFEF05F03B50D8A44E
:10096000B4EF04F0B6EF04F0C6EF04F0000E026E30
:10097000010E016EC8EC0FF0FF0E0124346EFF0E65
:100980000220356E010E366EB2EC0FF03B04D8A497
:10099000CCEF04F0CEEF04F0DEEF04F0000E026EB8
:1009A000010E016EC8EC0FF0010E0124346E000E32
:1009B0000220356E010E366EB2EC0FF0020E3B18BF
:1009C000D8A4E5EF04F0E7EF04F0EAEF04F0000E3E
:1009D000CAEC10F0030E3B18D8A4F1EF04F0F3EFCB
:1009E00004F0F6EF04F0030ECAEC10F0040E3B180E
:1009F000D8A4FDEF04F0FFEF04F0DFEF05F0040EE4
:100A0000CAEC10F0010E4D6EDFEF05F0020E3B1840
:100A1000D8A40DEF05F00FEF05F012EF05F0010E71
:100A2000CAEC10F0030E3B18D8A419EF05F01BEF29
:100A300005F01EEF05F0020ECAEC10F0040E3B1894
:100A4000D8A425EF05F027EF05F02CEF05F0040EF4
:100A5000CAEC10F0030E4D6E3B50D8A432EF05F0F7
:100A600034EF05F03AEF05F0D4EC10F0376E37288C
:100A7000C0EC10F03B04D8A440EF05F042EF05F0C5
:100A800048EF05F0D4EC10F0376E3704C0EC10F0EE
:100A9000050E3B18D8A44FEF05F051EF05F0DFEF3E
:100AA00005F0DAEC10F03A6E3A50D96EDA6A010EBF
:100AB000D9266C0EDE18D8A460EF05F062EF05F0C1
:100AC0006AEF05F03A50D96EDA6A040ED926DF5083
:100AD000C0EC10F057EC0FF0DFEF05F0020E3B1802
:100AE000D8A475EF05F077EF05F07AEF05F0030E67
:100AF000CAEC10F0030E3B18D8A481EF05F083EF89
:100B000005F086EF05F0030ECAEC10F0040E3B185A
:100B1000D8A48DEF05F08FEF05F0DFEF05F0040EA0
:100B2000CAEC10F0020E4D6EDFEF05F0040E3B181C
:100B3000D8A49DEF05F09FEF05F0A2EF05F04D5012
:100B4000CAEC10F03B50D8A4A8EF05F0AAEF05F0CE
:100B5000DFEF05F0000E326E010E316E000E0F6EEB
:100B6000010E0E6E6EEC0EF07F0E0E14216E226AD8
:100B7000B4EC0EF0010E21242B6E000E22202C6E00
:100B800066EC0DF02B5040EC0FF0DFEF05F0D6ECEB
:100B900010F0000AD8B456EF04F0010AD8B4AEEF52
:100BA00004F0030AD8B46EEF05F0010AD8B406EFDA
:100BB00005F0070AD8B496EF05F0DFEF05F0D4ECA6
:100BC00010F0376E3750386E396AD6EC10F0376E49
:100BD00037502D6E2E6A38C02FF039C030F0F2EC4D
:100BE00005F01200020E2D182E10D8A4FAEF05F011
:100BF000FCEF05F019EF06F0800E4AEC0EF02D50D8
:100C0000020DF350600F2F24D96EDA6ADF50046EA4
:100C10000DEC0FF0C00E4AEC0EF0C5EC10F001C068
:100C20002BF002C02CF0B7EC0BF0930E046E0DEC21
:100C30000FF02D502E10D8A420EF06F022EF06F072
:100C400043EF06F0800E4AEC0EF02D50020DF350EB
:100C5000600F2F24D96EDA6ADF50046E0DEC0FF0AE
:100C6000C00E4AEC0EF0000E026E000E016EC8ECD3
:100C70000FF001C02BF002C02CF0B7EC0BF0930E7C
:100C8000046E0DEC0FF02D042E10D8A44AEF06F0E0
:100C90004CEF06F06DEF06F0800E4AEC0EF02D5092
:100CA000020DF350600F2F24D96EDA6ADF50046E04
:100CB0000DEC0FF0C00E4AEC0EF0000E026E010EAD
:100CC000016EC8EC0FF001C02BF002C02CF0B7ECA5
:100CD0000BF0930E046E0DEC0FF0030E2D182E107A
:100CE000D8A475EF06F077EF06F0A4EF06F0800EBB
:100CF0004AEC0EF02D50020DF350600F2F24D96EE8
:100D0000DA6ADF50046E0DEC0FF0C00E4AEC0EF004
:100D1000D4EC10F00009D8A490EF06F092EF06F0A2
:100D200096EF06F0220E046E0DEC0FF0D4EC10F0EE
:100D3000E806D8A49EEF06F0A0EF06F0A4EF06F0B8
:100D4000110E046E0DEC0FF0040E2D182E10D8A409
:100D5000ACEF06F0AEEF06F06AEF07F0800E4AEC5B
:100D60000EF0000E286E640E276E000E0F6E020E3F
:100D70000E6E6EEC0EF07F0E0E14216E226AB4EC35
:100D80000EF021C025F022C026F096EC0CF025C014
:100D900031F026C032F031C013F032C014F0000E32
:100DA000166E0A0E156E34EC0CF01350300F6BEC0F
:100DB00010F0000E286E640E276E000E0F6E020EED
:100DC0000E6E6EEC0EF07F0E0E14216E226AB4ECE5
:100DD0000EF021C025F022C026F096EC0CF025C0C4
:100DE00033F026C034F033C025F034C026F0000EB6
:100DF000286E0A0E276E96EC0CF02550300F6BEC27
:100E000010F03A0E6BEC10F0000E286E640E276E98
:100E1000000E0F6E010E0E6E6EEC0EF07F0E0E14B5
:100E2000216E226AB4EC0EF021C025F022C026F01B
:100E300096EC0CF025C031F026C032F031C013F032
:100E400032C014F0000E166E0A0E156E34EC0CF063
:100E50001350300F6BEC10F0000E286E640E276EEE
:100E6000000E0F6E010E0E6E6EEC0EF07F0E0E1465
:100E7000216E226AB4EC0EF021C025F022C026F0CB
:100E800096EC0CF025C033F026C034F033C025F0CA
:100E900034C026F0000E286E0A0E276E96EC0CF079
:100EA0002550300F6BEC10F0930E046E0DEC0FF02C
:100EB000000E0F6E000E0E6E6EEC0EF07F0E0E1416
:100EC000216E226AB4EC0EF021C02BF022C02CF06F
:100ED000B7EC0BF0120002BE79EF07F0025007E109
:100EE000080E015CD8B077EF07F079EF07F0A3EFB9
:100EF00007F003500410D8B480EF07F082EF07F03A
:100F000092EF07F001C005F0010E066E052A8BEF87
:100F100007F0D8900636052E89EF07F006508012AC
:100F200091EF08F001C005F0010E066E052A9BEF57
:100F300007F0D8900636052E99EF07F00650FF0A05
:100F4000801691EF08F002BEB1EF07F0025007E102
:100F5000100E015CD8B0AFEF07F0B1EF07F0DFEF94
:100F600007F0F80E0126FF0E022203500410D8B439
:100F7000BCEF07F0BEEF07F0CEEF07F001C005F0C1
:100F8000010E066E052AC7EF07F0D8900636052E2B
:100F9000C5EF07F00650811291EF08F001C005F08F
:100FA000010E066E052AD7EF07F0D8900636052EFB
:100FB000D5EF07F00650FF0A811691EF08F002BE48
:100FC000EDEF07F0025007E1180E015CD8B0EBEF2F
:100FD00007F0EDEF07F01BEF08F0F00E0126FF0E13
:100FE000022203500410D8B4F8EF07F0FAEF07F02C
:100FF0000AEF08F001C005F0010E066E052A03EFA6
:1010000008F0D8900636052E01EF08F0065082123F
:1010100091EF08F001C005F0010E066E052A13EFEE
:1010200008F0D8900636052E11EF08F00650FF0A9A
:10103000821691EF08F002BE29EF08F0025007E196
:10104000200E015CD8B027EF08F029EF08F057EF29
:1010500008F0E80E0126FF0E022203500410D8B457
:1010600034EF08F036EF08F046EF08F001C005F065
:10107000010E066E052A3FEF08F0D8900636052EC1
:101080003DEF08F00650831291EF08F001C005F023
:10109000010E066E052A4FEF08F0D8900636052E91
:1010A0004DEF08F00650FF0A831691EF08F002BEDC
:1010B00065EF08F0025007E1280E015CD8B063EF3D
:1010C00008F065EF08F091EF08F0E00E0126FF0E42
:1010D000022203500410D8B470EF08F072EF08F049
:1010E00082EF08F001C005F0010E066E052A7BEFC5
:1010F00008F0D8900636052E79EF08F006508412D5
:1011000091EF08F001C005F0010E066E052A8BEF85
:1011100008F0D8900636052E89EF08F00650FF0A31
:101120008416120002BEA0EF08F0025007E1080E7C
:10113000015CD8B09EEF08F0A0EF08F0CAEF08F00D
:1011400003500410D8B4A7EF08F0A9EF08F0B9EFE6
:1011500008F001C005F0010E066E052AB2EF08F096
:10116000D8900636052EB0EF08F006509212B8EF70
:1011700009F001C005F0010E066E052AC2EF08F065
:10118000D8900636052EC0EF08F00650FF0A9216DA
:10119000B8EF09F002BED8EF08F0025007E1100ED8
:1011A000015CD8B0D6EF08F0D8EF08F006EF09F0F0
:1011B00003500410D8B4DFEF08F0E1EF08F0F3EFCC
:1011C00008F001C005F0F80E0526010E066E052A8E
:1011D000ECEF08F0D8900636052EEAEF08F006503E
:1011E0009312B8EF09F001C005F0F80E0526010EC4
:1011F000066E052AFEEF08F0D8900636052EFCEFA5
:1012000008F00650FF0A9316B8EF09F002BE14EF7B
:1012100009F0025007E1180E015CD8B012EF09F096
:1012200014EF09F042EF09F003500410D8B41BEF9B
:1012300009F01DEF09F02FEF09F001C005F0F00EE5
:101240000526010E066E052A28EF09F0D89006360D
:10125000052E26EF09F006509412B8EF09F001C0F0
:1012600005F0F00E0526010E066E052A3AEF09F08C
:10127000D8900636052E38EF09F00650FF0A94166E
:10128000B8EF09F002BE50EF09F0025007E1200E5E
:10129000015CD8B04EEF09F050EF09F07EEF09F095
:1012A00003500410D8B457EF09F059EF09F06BEF71
:1012B00009F001C005F0E80E0526010E066E052AAC
:1012C00064EF09F0D8900636052E62EF09F006505B
:1012D0009512B8EF09F001C005F0E80E0526010EE1
:1012E000066E052A76EF09F0D8900636052E74EFC3
:1012F00009F00650FF0A9516B8EF09F002BE8CEF10
:1013000009F0025007E1280E015CD8B08AEF09F01D
:101310008CEF09F0B8EF09F003500410D8B493EF44
:1013200009F095EF09F0A7EF09F001C005F0E00E14
:101330000526010E066E052AA0EF09F0D8900636A4
:10134000052E9EEF09F006509612B8EF09F001C085
:1013500005F0E00E0526010E066E052AB2EF09F033
:10136000D8900636052EB0EF09F00650FF0A961603
:101370001200000E086E060E076ED8EC10F0056E17
:1013800005500A6E0B6A44500A1809E145500B18C3
:10139000D8B4CDEF09F0CFEF09F006EF0AF00AA0BC
:1013A000D4EF09F0D6EF09F0DAEF09F0000E086E7D
:1013B000000E076E0AA2DFEF09F0E1EF09F0E5EF9A
:1013C00009F0000E086E010E076E0AA4EAEF09F09C
:1013D000ECEF09F0F0EF09F0000E086E020E076E58
:1013E0000AA6F5EF09F0F7EF09F0FBEF09F0000EA0
:1013F000086E030E076E0AA800EF0AF002EF0AF06B
:1014000006EF0AF0000E086E040E076E0AC044F0E4
:101410000BC045F0DEEC0FF0096E095093EC10F0B4
:101420000950D8B416EF0AF018EF0AF07FEF0AF06F
:10143000DAEC10F0066E0650D96EDA6ADF50D8A4E6
:1014400024EF0AF026EF0AF06EEF0AF04FEF0AF0F1
:10145000000E086E000E076E7FEF0AF0000E086E99
:10146000010E076E7FEF0AF0000E086E020E076E87
:101470007FEF0AF0000E086E030E076E7FEF0AF092
:10148000000E086E040E076E7FEF0AF0000E086E65
:10149000060E076E700E33EC10F07FEF0AF0095065
:1014A000310AD8B42EEF0AF0030AD8B434EF0AF0A8
:1014B000010AD8B43AEF0AF0070AD8B440EF0AF0AC
:1014C0000D0AD8B428EF0AF0690AD8B446EF0AF03A
:1014D000200AD8B446EF0AF07FEF0AF0095033EC47
:1014E00010F04E50D8B477EF0AF079EF0AF07FEFA2
:1014F0000AF0000E086E050E076E7FEF0AF007C0B7
:1015000003F008C004F0120002BE92EF0AF002508D
:1015100007E1080E015CD8B090EF0AF092EF0AF0F4
:10152000A6EF0AF001C003F0010E046E032A9BEF40
:101530000AF0D8900436032E99EF0AF00450801474
:10154000056E0550016E026A38EF0BF002BEB4EF73
:101550000AF0025007E1100E015CD8B0B2EF0AF0B9
:10156000B4EF0AF0CAEF0AF001C003F0F80E032648
:10157000010E046E032ABFEF0AF0D8900436032E42
:10158000BDEF0AF004508114056E0550016E026A29
:1015900038EF0BF002BED8EF0AF0025007E1180E48
:1015A000015CD8B0D6EF0AF0D8EF0AF0EEEF0AF0FF
:1015B00001C003F0F00E0326010E046E032AE3EFD0
:1015C0000AF0D8900436032EE1EF0AF0045082149A
:1015D000056E0550016E026A38EF0BF002BEFCEF9B
:1015E0000AF0025007E1200E015CD8B0FAEF0AF0D1
:1015F000FCEF0AF012EF0BF001C003F0E80E032637
:10160000010E046E032A07EF0BF0D8900436032E68
:1016100005EF0BF004508314056E0550016E026A4D
:1016200038EF0BF002BE20EF0BF0025007E1280E5E
:10163000015CD8B01EEF0BF020EF0BF036EF0BF093
:1016400001C003F0E00E0326010E046E032A2BEF07
:101650000BF0D8900436032E29EF0BF004508414BD
:10166000056E0550016E026A38EF0BF001680268E2
:10167000120020EE09F0040EDE6AE806FDE281CFDA
:1016800009F081CF0AF081CF0BF081CF0CF084CF2D
:101690000DF020EE6AF010EE04F0040EDBCFE3FF55
:1016A000E806FCE2000E0E6E0E50090FD96EDA6AE3
:1016B000DF50016E0E50040FD96EDA6ADF50026EF1
:1016C000010E036E022A67EF0BF0D8900336022E4C
:1016D00065EF0BF0035001140009D8A472EF0BF072
:1016E00074EF0BF084EF0BF00EC001F0010E026EF0
:1016F000012A7DEF0BF0D8900236012E7BEF0BF024
:101700000250571293EF0BF00EC001F0010E026E63
:10171000012A8DEF0BF0D8900236012E8BEF0BF0E3
:101720000250FF0A57160E2A040E0E649AEF0BF0B1
:101730009CEF0BF054EF0BF057505618D8A4A3EFC2
:101740000BF0A5EF0BF0A8EF0BF05806ACEF0BF089
:101750000A0E586E57C056F05850D8A4B2EF0BF08E
:10176000B4EF0BF0B6EF0BF056C059F012002CBEE0
:10177000BEEF0BF0BCEF0BF0C5EF0BF02B6C2C1E8B
:10178000D8B02C2A2D0E6BEC10F0270E166E100E12
:10179000156E2BC013F02CC014F034EC0CF013C0F9
:1017A00025F014C026F0000E286E0A0E276E96EC67
:1017B0000CF02550300F6BEC10F0030E166EE80E97
:1017C000156E2BC013F02CC014F034EC0CF013C0C9
:1017D00025F014C026F0000E286E0A0E276E96EC37
:1017E0000CF02550300F6BEC10F0000E166E640EEE
:1017F000156E2BC013F02CC014F034EC0CF013C099
:1018000025F014C026F0000E286E0A0E276E96EC06
:101810000CF02550300F6BEC10F0000E166E0A0E17
:10182000156E2BC013F02CC014F034EC0CF013C068
:1018300025F014C026F0000E286E0A0E276E96ECD6
:101840000CF02550300F6BEC10F02BC025F02CC0A5
:1018500026F0000E286E0A0E276E96EC0CF025502E
:10186000300F6BEC10F01200000E186E16BE3DEF3C
:101870000CF03BEF0CF043EF0CF0156C161ED8B0DB
:10188000162A010E186E14BE4AEF0CF048EF0CF049
:1018900050EF0CF0136C141ED8B0142A010E181A55
:1018A000000E1A6E000E196E15501610D8B45BEFAC
:1018B0000CF05DEF0CF085EF0CF0010E176E65EF8C
:1018C0000CF0D89015361636172A16AE6AEF0CF0C3
:1018D0006CEF0CF061EF0CF0D89019361A361550F9
:1018E000135C16501458D8A078EF0CF07AEF0CF077
:1018F0007FEF0CF01550135E1650145A1980D890D3
:1019000016321532172E6CEF0CF01850D8B48BEF3E
:101910000CF08DEF0CF091EF0CF0196C1A1ED8B092
:101920001A2A19C013F01AC014F01200000E2A6E01
:1019300026BE9FEF0CF09DEF0CF0A5EF0CF0256C90
:10194000261ED8B0262A010E2A6E28BEACEF0CF057
:10195000AAEF0CF0B0EF0CF0276C281ED8B0282AA4
:1019600027502810D8B4B7EF0CF0B9EF0CF0DDEF2A
:101970000CF0010E296EC1EF0CF0D89027362836F6
:10198000292A28AEC6EF0CF0C8EF0CF0BDEF0CF022
:101990002750255C28502658D8A0D1EF0CF0D3EF63
:1019A0000CF0D7EF0CF02750255E2850265AD8901F
:1019B00028322732292EC8EF0CF02A50D8B4E3EF92
:1019C0000CF0E5EF0CF0E9EF0CF0256C261ED8B01A
:1019D000262A25C025F026C026F012009590959E57
:1019E000959C959A95989594000E046E85EC0FF051
:1019F000042A060E0464FFEF0CF001EF0DF0F6EF81
:101A00000CF0000E016E300E2AEC0DF085EC0FF09C
:101A1000000E016E300E2AEC0DF085EC0FF0000E7A
:101A2000016E300E2AEC0DF085EC0FF0000E016E09
:101A3000200E2AEC0DF085EC0FF0280E4AEC0EF08B
:101A4000060E4AEC0EF00C0E4AEC0EF0010E4AECBB
:101A50000EF01200026E0150D8B431EF0DF033EFEA
:101A60000DF036EF0DF0838037EF0DF0839002AE6E
:101A70003CEF0DF03EEF0DF041EF0DF0838442EFAF
:101A80000DF0839402AC47EF0DF049EF0DF04CEFF1
:101A90000DF083884DEF0DF0839802AA52EF0DF000
:101AA00054EF0DF057EF0DF0838A58EF0DF0839A45
:101AB00002A85DEF0DF05FEF0DF062EF0DF0838C8B
:101AC00063EF0DF0839CCEEC10F012002BC013F0EE
:101AD0002CC014F0000E166E0A0E156E34EC0CF0CD
:101AE00013C02DF014C02EF02D3A2E3AF00E2E1603
:101AF0002D500F0B2E12F00E2D162BC025F02CC0E2
:101B000026F0000E286E0A0E276E96EC0CF025507B
:101B10002D242F6E26502E20306E800E2F102B6E0F
:101B200030502C6E2BC02BF02CC02CF012000A6E03
:101B30000A50D8B49EEF0DF0A0EF0DF0A2EF0DF01B
:101B400091EC0EF0000E0B6E09BEA9EF0DF0ACEF9C
:101B50000DF0010EADEF0DF0000EF4EC0DF0D8908D
:101B600009360B2A070E0B64B8EF0DF0BAEF0DF033
:101B7000A4EF0DF027EC0FF00850D8B4C2EF0DF031
:101B8000C4EF0DF0C6EF0DF06EEC0FF01200620E18
:101B9000F66E210EF76E000EF86E00EE60F010EE9D
:101BA0000FF00900F5CFEEFFE550E150FAE1B80E75
:101BB000F66E210EF76E000EF86E0900F5CF5AF0A2
:101BC0000900F5CF5BF000EE6FF00A0EEE6AE80652
:101BD000FDE100EE3CF01E0EEE6AE806FDE1000EAF
:101BE000F86E00019CEF0FF0076E0750D8B4FBEFC2
:101BF0000DF0FDEF0DF001EF0EF0D5EC0EF003EF60
:101C00000EF0F4EC0FF0DDEC10F0F1EC0EF000094A
:101C1000D8B40DEF0EF00FEF0EF005EF0EF00750F9
:101C2000D8B415EF0EF017EF0EF019EF0EF0D5EC5B
:101C30000EF0DDEC10F009EC10F0DDEC10F012000D
:101C40000A6E000E0D6E000E0C6E000E0B6E27EC71
:101C50000FF0096E0D500D2409100D6E0B4A0C2A61
:101C60000C5009E1080E0B5CD8A039EF0EF03BEFE9
:101C70000EF027EF0EF00A50F4EC0DF00850D8B437
:101C800044EF0EF046EF0EF048EF0EF06EEC0FF062
:101C90000D501200036E000E016E03502AEC0DF081
:101CA000000E016E0338F00B2AEC0DF0020E031843
:101CB000D8B45DEF0EF05FEF0EF067EF0EF00304A7
:101CC000D8A465EF0EF067EF0EF06BEF0EF085EC29
:101CD0000FF06DEF0EF087EC10F01200000E086EA2
:101CE000DE0E096E010E97EC0DF0000E086E0EC0B0
:101CF00009F0000E97EC0DF0000E086EDF0E096E75
:101D0000010E97EC0DF0010E086E010E20EC0EF0A6
:101D1000106E1050116E126A11C00EF012C00FF04A
:101D200012005450D8B497EF0EF099EF0EF0A9EFCF
:101D30000EF0D5EC0EF0DDEC10F0F1EC0EF0000939
:101D4000D8B4A5EF0EF0A7EF0EF09DEF0EF0DDEC8E
:101D500010F0D5EC0EF0F4EC0FF0DDEC10F009EC27
:101D600010F0010E546E12000F0E2114236E000E9F
:101D70002214246E000E166E100E156E21C013F084
:101D800022C014F034EC0CF013C01BF014C01CF093
:101D9000000E1E6E0A0E1D6E47EC10F023501B2421
:101DA000216E24501C20226E1200000E026E080EBE
:101DB000016E000E046E010E036E92EC08F0000E30
:101DC000026E080E016E84EC0AF001500210D8A4D5
:101DD000ECEF0EF0EFEF0EF0010EF0EF0EF0000E54
:101DE0001200000E026E090E016E000E046E010E4E
:101DF000036E92EC08F0000E026E090E016E84EC88
:101E00000AF001500210D8A408EF0FF00BEF0FF00A
:101E1000010E0CEF0FF0000E120018EF0FF004C0CF
:101E2000F6FF080EF76E0800F5506BEC10F0042A70
:101E300004C0F6FF080EF76E0800F5500009D8A49C
:101E400024EF0FF026EF0FF00FEF0FF01200D5EC9C
:101E50000EF0DDEC10F0F1EC0EF00009D8B433EF29
:101E60000FF035EF0FF02BEF0FF0D5EC0EF0076E03
:101E7000DDEC10F009EC10F0DDEC10F00750120072
:101E8000336E000E086EDE0E096E010E97EC0DF03B
:101E9000000E086E31C009F0000E97EC0DF0010E37
:101EA000086E33C009F0000E97EC0DF01200000E22
:101EB000016E61EF0FF00150740FD96EDA6ADF6ABC
:101EC000012A040E016467EF0FF069EF0FF05BEF7A
:101ED0000FF0000E4E6E000E486E1200F4EC0FF084
:101EE000DDEC10F0F1EC0EF00009D8B47AEF0FF051
:101EF0007CEF0FF072EF0FF0DDEC10F0D5EC0EF090
:101F0000DDEC10F0000E546E1200000E016E000E9B
:101F1000026E022AB10E026490EF0FF092EF0FF002
:101F200089EF0FF0012A130E016499EF0FF09BEF78
:101F30000FF087EF0FF01200B9EC10F0EEEC0CF0A0
:101F4000D1EC10F0A9EC10F07AEC10F0000E926ECB
:101F5000000E896E39EC0BF050EC04F0AAEF0FF094
:101F600000EF00F03604D8A4B8EF0FF0BAEF0FF08E
:101F7000C5EF0FF034C04AF0000E326E200E316E05
:101F80004A5040EC0FF0C7EF0FF034C049F0120098
:101F900001500210D8A4CFEF0FF0D1EF0FF0D6EF21
:101FA0000FF049C003F0046AD9EF0FF04AC003F004
:101FB000046A03C001F004C002F01200000E016EBA
:101FC000ABA2E5EF0FF0E7EF0FF0E9EF0FF0AB9802
:101FD000AB889EAAEEEF0FF0F0EF0FF0F2EF0FF0EC
:101FE000AECF01F001501200000E026E080E016E1D
:101FF000000E046E000E036E92EC08F0000E026EEE
:10200000080E016E000E046E000E036E6BEC07F0FE
:102010001200000E026E090E016E000E046E000E1C
:10202000036E92EC08F0000E026E090E016E000EB7
:10203000046E000E036E6BEC07F01200000E026ED1
:10204000080E016E000E046E010E036E92EC08F095
:10205000000E026E090E016E000E046E010E036E7C
:1020600092EC08F01200016E4850740FD96EDA6AD3
:1020700001C0DFFF482A050E4818D8A442EF10F02F
:1020800044EF10F046EF10F0010E4E6E12001B50A0
:102090001D02F3CF1FF0F4CF20F01B501E02F350AF
:1020A00020261C501D02F35020261FC01BF020C00C
:1020B0001CF01200000E4C6E030E3D6EE80E3C6EDE
:1020C000000E0F6E200E0E6E6EEC0EF00E504A6E6D
:1020D000230E496E1200036E010E016E03502AECAE
:1020E0000DF0010E016E0338F00B2AEC0DF087ECB9
:1020F00010F012002C0EAC6E900EAB6E080EB86E87
:10210000000EB06E220EAF6E948C948E1200000EF4
:10211000016E012A430E016490EF10F092EF10F06F
:1021200089EF10F01200016E9EA899EF10F09BEF5E
:1021300010F094EF10F001C0ADFF1200B9EC10F0F8
:10214000000E476E000E466E000E436E010E426E8C
:1021500012005AEC10F0040ECAEC10F09EEC10F0D5
:102160001200734373435333638300000203050477
:01217000016D
:102172009368F19E0E0EC16E000E636E1200016E28
:102182000150010B4B6E12003CC001F03DC002F049
:102192001200016E01C04CF01200838E839E120069
:1021A2001EEC10F012004B5012004C50120059500D
:0A21B2001200740E12006200120009
:020000040030CA
:08000000000C1F1EFF8381FFAD
:00000001FF
