:04000000D7EF10F036
:10080000003F065B4F666D7D077F6F777C395E79B1
:1008100071456E676C69736820202020202020209D
:100820002000506F7274756775657320202020203A
:100830002020004368616E67652074696D65202023
:100840002020004368616E676520616C61726D20D5
:10085000202000416C74657261722074656D706F48
:10086000202000416C7465726172206964696F6D4B
:10087000612000416C746572617220616C61726DFF
:100880006520004368616E6765206C616E67756105
:10089000676500202020202020202020202000002C
:1008A00034EC0DF0366E060E3618D8A45AEF04F06C
:1008B0005CEF04F064EF04F0010E3726000E3822DE
:1008C00039223A226CEF04F0000E376E000E386EBB
:1008D000000E396E000E3A6EB80E371809E10B0E95
:1008E000381839103A10D8A478EF04F07AEF04F0F1
:1008F0007EEF06F0050E57EC14F07EEF06F0365052
:10090000D8A485EF04F087EF04F097EF04F0000E11
:10091000026E000E016E50EC13F0FF0E0124206EEB
:10092000FF0E0220216E000E226EBFEC11F0360485
:10093000D8A49DEF04F09FEF04F0AFEF04F0000E99
:10094000026E000E016E50EC13F0010E0124206EB9
:10095000000E0220216E000E226EBFEC11F0020E7E
:100960003618D8A4B6EF04F0B8EF04F0BBEF04F0EB
:10097000030E57EC14F0030E3618D8A4C2EF04F09F
:10098000C4EF04F0C7EF04F0010E57EC14F0040EAE
:100990003618D8A4CEEF04F0D0EF04F09AEF06F0AA
:1009A000050E57EC14F0000E4C6E9AEF06F0365020
:1009B000D8A4DDEF04F0DFEF04F0EFEF04F0000E59
:1009C000026E010E016E50EC13F0FF0E0124206E3A
:1009D000FF0E0220216E010E226EBFEC11F03604D4
:1009E000D8A4F5EF04F0F7EF04F007EF05F0000EE0
:1009F000026E010E016E50EC13F0010E0124206E08
:100A0000000E0220216E010E226EBFEC11F0020ECC
:100A10003618D8A40EEF05F010EF05F013EF05F02F
:100A2000000E57EC14F0030E3618D8A41AEF05F098
:100A30001CEF05F01FEF05F0040E57EC14F0040E48
:100A40003618D8A426EF05F028EF05F09AEF06F047
:100A5000050E57EC14F0010E4C6E9AEF06F0020EE4
:100A60003618D8A436EF05F038EF05F03BEF05F067
:100A7000010E57EC14F0030E3618D8A442EF05F01F
:100A800044EF05F047EF05F0020E57EC14F0040EAA
:100A90003618D8A44EEF05F050EF05F055EF05F0ED
:100AA000050E57EC14F0040E4C6E3650D8A45BEFD4
:100AB00005F05DEF05F063EF05F07BEC14F0286EB8
:100AC000282821EC14F03604D8A469EF05F06BEF68
:100AD00005F09AEF06F07BEC14F0286E280421EC68
:100AE00014F09AEF06F03650D8A479EF05F07BEFBA
:100AF00005F096EF05F0000E1E6E020E1D6E000E44
:100B00000F6E020E0E6E08EC12F07F0E0E14136EB6
:100B1000146A4EEC12F0FF0E1324176EFF0E142011
:100B2000186E08EC11F017500BEC13F03604D8A433
:100B30009CEF05F09EEF05F0B9EF05F0000E1E6E7C
:100B4000020E1D6E000E0F6E020E0E6E08EC12F0FD
:100B50007F0E0E14136E146A4EEC12F0010E132465
:100B6000176E000E1420186E08EC11F017500BECE5
:100B700013F0020E3618D8A4C0EF05F0C2EF05F04E
:100B8000C5EF05F0040E57EC14F0030E3618D8A488
:100B9000CCEF05F0CEEF05F0D1EF05F0030E57ECEA
:100BA00014F0040E3618D8A4D8EF05F0DAEF05F0EB
:100BB0009AEF06F0050E57EC14F0020E4C6E9AEF09
:100BC00006F03650D8A4E7EF05F0E9EF05F004EFA2
:100BD00006F0000E1E6E010E1D6E000E0F6E010E51
:100BE0000E6E08EC12F07F0E0E14136E146A4EECAB
:100BF00012F0FF0E1324176EFF0E1420186E08EC6F
:100C000011F017500BEC13F03604D8A40AEF06F0DD
:100C10000CEF06F027EF06F0000E1E6E010E1D6EA3
:100C2000000E0F6E010E0E6E08EC12F07F0E0E1409
:100C3000136E146A4EEC12F0010E1324176E000EA0
:100C40001420186E08EC11F017500BEC13F0020E84
:100C50003618D8A42EEF06F030EF06F033EF06F08A
:100C6000020E57EC14F0030E3618D8A43AEF06F033
:100C70003CEF06F03FEF06F0000E57EC14F0040EC8
:100C80003618D8A446EF06F048EF06F09AEF06F0C3
:100C9000050E57EC14F0DDEF05F0040E3618D8A45D
:100CA00054EF06F056EF06F059EF06F04C5057ECB3
:100CB00014F03650D8A45FEF06F061EF06F09AEF1B
:100CC00006F0000E1E6E010E1D6E000E0F6E010E60
:100CD0000E6E08EC12F07F0E0E14136E146A4EECBA
:100CE00012F0010E1324176E000E1420186E08EC7B
:100CF00011F017500BEC13F09AEF06F075EC14F0AE
:100D0000000AD8B47FEF04F0010AD8B4D7EF04F09A
:100D1000030AD8B473EF05F0010AD8B4E1EF05F087
:100D2000070AD8B42FEF05F0010AD8B44DEF06F04A
:100D30009AEF06F0050E3618D8A4A1EF06F0A3EF3F
:100D400006F0F2EF07F079EC14F0356ED8EF07F00B
:100D50003550D96EDA6A030ED926DF50286ED00ED0
:100D60002824096E0A6AFF0E0A22000E0C6E640E19
:100D70000B6ECFEC13F009C02DF00AC02EF03550E9
:100D8000D96EDA6A040ED926DF50286ED00E2824D8
:100D9000096E0A6AFF0E0A22000E0C6E0A0E0B6E16
:100DA000CFEC13F009502D260A502E223550D96E63
:100DB000DA6A050ED926DF50286ED00E2824296E57
:100DC0002A6AFF0E2A2229502D262A502E222DC0B3
:100DD00020F02EC021F0000E226EBFEC11F0355035
:100DE000D96EDA6A030ED926DF50286ED00E282479
:100DF000096E0A6AFF0E0A22000E0C6E640E0B6E5C
:100E0000CFEC13F009C02FF00AC030F03550D96E86
:100E1000DA6A040ED926DF50286ED00E2824096E17
:100E20000A6AFF0E0A22000E0C6E0A0E0B6ECFEC41
:100E300013F009502F260A5030223550D96EDA6A45
:100E4000050ED926DF50286ED00E2824296E2A6A76
:100E5000FF0E2A2229502F262A5030222FC020F0A0
:100E600030C021F0010E226EBFEC11F050EF07F000
:100E70003550D96EDA6A020ED926DF50480AD8B446
:100E8000EFEF06F0040AD8B4A8EF06F0240AD8B4AD
:100E9000EFEF06F0040AD8B4A8EF06F050EF07F021
:100EA0003550D96EDA6A020ED926DF50286ED00E80
:100EB0002824096E0A6AFF0E0A22000E0C6E0A0E22
:100EC0000B6ECFEC13F009C031F00AC032F0355090
:100ED000D96EDA6A030ED926DF50286ED00E282488
:100EE000296E2A6AFF0E2A22295031262A503222E0
:100EF00032BE86EF07F0325007E1180E315CD8B0F1
:100F000084EF07F086EF07F093EF07F0000E1E6EF8
:100F1000020E1D6E31C017F032C018F008EC11F04F
:100F200017500BEC13F03550D96EDA6A040ED9263F
:100F3000DF50286ED00E2824096E0A6AFF0E0A229E
:100F4000000E0C6E0A0E0B6ECFEC13F009C033F0DE
:100F50000AC034F03550D96EDA6A050ED926DF5052
:100F6000286ED00E2824296E2A6AFF0E2A222950C4
:100F700033262A50342234BEC9EF07F0345007E13B
:100F80003C0E335CD8B0C7EF07F0C9EF07F0F0EFC5
:100F900007F0000E1E6E010E1D6E33C017F034C038
:100FA00018F008EC11F017500BEC13F0F0EF07F00D
:100FB0003550D96EDA6A010ED926DF50480AD8B406
:100FC00050EF07F01C0AD8B438EF07F03C0AD8B449
:100FD00050EF07F01C0AD8B438EF07F0F0EF07F035
:100FE000F4EC12F07BEC14F0286E28502B6E2C6A77
:100FF00075EC14F0286E2850216E226A2BC023F065
:101000002CC024F005EC08F01200020E211822106A
:10101000D8A40DEF08F00FEF08F069EF08F0800E8C
:10102000E4EC11F02150020DF350600F2324D96E2F
:10103000DA6ADF50046EC1EC12F0C00EE4EC11F07D
:101040003E0E05EC14F0000E0F6E020E0E6E08EC54
:1010500012F07F0E0E14136E146A4EEC12F013C0D1
:1010600017F014C018F0020E196E41EC0FF03A0E92
:1010700005EC14F0000E0F6E010E0E6E08EC12F06F
:101080007F0E0E14136E146A4EEC12F013C017F09C
:1010900014C018F0020E196E41EC0FF03A0E05EC78
:1010A00014F0000E0F6E000E0E6E08EC12F07F0EA4
:1010B0000E14136E146A4EEC12F013C017F014C025
:1010C00018F0020E196E41EC0FF0930E046EC1EC95
:1010D00012F0030E21182210D8A471EF08F073EF5C
:1010E00008F0CDEF08F0800EE4EC11F02150020D75
:1010F000F350600F2324D96EDA6ADF50046EC1EC1E
:1011000012F0C00EE4EC11F0000E0F6E020E0E6E27
:1011100008EC12F07F0E0E14136E146A4EEC12F0EF
:1011200013C017F014C018F0020E196E41EC0FF046
:101130003A0E05EC14F03E0E05EC14F0000E0F6EA6
:10114000010E0E6E08EC12F07F0E0E14136E146A70
:101150004EEC12F013C017F014C018F0020E196E06
:1011600041EC0FF03A0E05EC14F0000E0F6E000E7D
:101170000E6E08EC12F07F0E0E14136E146A4EEC15
:1011800012F013C017F014C018F0020E196E41ECE3
:101190000FF0930E046EC1EC12F021502210D8A46F
:1011A000D4EF08F0D6EF08F017EF09F0800EE4EC6A
:1011B00011F02150020DF350600F2324D96EDA6A2A
:1011C000DF50046EC1EC12F0C00EE4EC11F03E0EE4
:1011D00005EC14F0000E026E000E016E50EC13F0E0
:1011E00001C017F002C018F0030E196E41EC0FF0A9
:1011F0004C0E05EC14F09B0E046EC1EC12F0200EA8
:1012000005EC14F0000E026E010E016E50EC13F0AE
:1012100001C017F002C018F0030E196E41EC0FF078
:10122000480E05EC14F0930E046EC1EC12F021048C
:101230002210D8A41EEF09F020EF09F061EF09F0A9
:10124000800EE4EC11F02150020DF350600F2324C6
:10125000D96EDA6ADF50046EC1EC12F0C00EE4EC15
:1012600011F0200E05EC14F0000E026E000E016E5F
:1012700050EC13F001C017F002C018F0030E196E05
:1012800041EC0FF04C0E05EC14F09B0E046EC1EC1B
:1012900012F03E0E05EC14F0000E026E010E016E0F
:1012A00050EC13F001C017F002C018F0030E196ED5
:1012B00041EC0FF0480E05EC14F0930E046EC1ECF7
:1012C00012F0040E21182210D8A469EF09F06BEF78
:1012D00009F098EF09F0800EE4EC11F02150020DB6
:1012E000F350600F2324D96EDA6ADF50046EC1EC2C
:1012F00012F0C00EE4EC11F07BEC14F00009D8A45D
:1013000084EF09F086EF09F08AEF09F0220E046EEF
:10131000C1EC12F07BEC14F0E806D8A492EF09F0CF
:1013200094EF09F098EF09F0110E046EC1EC12F081
:10133000050E21182210D8A4A0EF09F0A2EF09F0A1
:10134000EBEF09F0800EE4EC11F0000E0F6E020ED0
:101350000E6E08EC12F07F0E0E14136E146A4EEC33
:1013600012F013C017F014C018F0020E196E41EC01
:101370000FF03A0E05EC14F0000E0F6E010E0E6E1B
:1013800008EC12F07F0E0E14136E146A4EEC12F07D
:1013900013C017F014C018F0020E196E41EC0FF0D4
:1013A0003A0E05EC14F0000E0F6E000E0E6E08ECF7
:1013B00012F07F0E0E14136E146A4EEC12F013C06E
:1013C00017F014C018F0020E196E41EC0FF0930ED6
:1013D000046EC1EC12F0120002BEFAEF09F00250E6
:1013E00007E1080E015CD8B0F8EF09F0FAEF09F058
:1013F00024EF0AF003500410D8B401EF0AF003EF11
:101400000AF013EF0AF001C005F0010E066E052A7E
:101410000CEF0AF0D8900636052E0AEF0AF00650B7
:10142000801212EF0BF001C005F0010E066E052AC6
:101430001CEF0AF0D8900636052E1AEF0AF0065077
:10144000FF0A801612EF0BF002BE32EF0AF00250D4
:1014500007E1100E015CD8B030EF0AF032EF0AF06D
:1014600060EF0AF0F80E0126FF0E0222035004106E
:10147000D8B43DEF0AF03FEF0AF04FEF0AF001C099
:1014800005F0010E066E052A48EF0AF0D8900636E0
:10149000052E46EF0AF00650811212EF0BF001C044
:1014A00005F0010E066E052A58EF0AF0D8900636B0
:1014B000052E56EF0AF00650FF0A811612EF0BF0C8
:1014C00002BE6EEF0AF0025007E1180E015CD8B0C0
:1014D0006CEF0AF06EEF0AF09CEF0AF0F00E0126B6
:1014E000FF0E022203500410D8B479EF0AF07BEF0C
:1014F0000AF08BEF0AF001C005F0010E066E052A16
:1015000084EF0AF0D8900636052E82EF0AF00650D6
:10151000821212EF0BF001C005F0010E066E052AD3
:1015200094EF0AF0D8900636052E92EF0AF0065096
:10153000FF0A821612EF0BF002BEAAEF0AF0025069
:1015400007E1200E015CD8B0A8EF0AF0AAEF0AF07C
:10155000D8EF0AF0E80E0126FF0E02220350041015
:10156000D8B4B5EF0AF0B7EF0AF0C7EF0AF001C040
:1015700005F0010E066E052AC0EF0AF0D890063677
:10158000052EBEEF0AF00650831212EF0BF001C0D9
:1015900005F0010E066E052AD0EF0AF0D890063647
:1015A000052ECEEF0AF00650FF0A831612EF0BF05D
:1015B00002BEE6EF0AF0025007E1280E015CD8B047
:1015C000E4EF0AF0E6EF0AF012EF0BF0E00E01266E
:1015D000FF0E022203500410D8B4F1EF0AF0F3EF2B
:1015E0000AF003EF0BF001C005F0010E066E052AAC
:1015F000FCEF0AF0D8900636052EFAEF0AF00650F6
:10160000841212EF0BF001C005F0010E066E052AE0
:101610000CEF0BF0D8900636052E0AEF0BF00650B3
:10162000FF0A8416120002BE21EF0BF0025007E100
:10163000080E015CD8B01FEF0BF021EF0BF04BEF61
:101640000BF003500410D8B428EF0BF02AEF0BF086
:101650003AEF0BF001C005F0010E066E052A33EFDC
:101660000BF0D8900636052E31EF0BF00650921293
:1016700039EF0CF001C005F0010E066E052A43EFAC
:101680000BF0D8900636052E41EF0BF00650FF0AFE
:10169000921639EF0CF002BE59EF0BF0025007E141
:1016A000100E015CD8B057EF0BF059EF0BF087EF3D
:1016B0000BF003500410D8B460EF0BF062EF0BF0A6
:1016C00074EF0BF001C005F0F80E0526010E066E52
:1016D000052A6DEF0BF0D8900636052E6BEF0BF058
:1016E0000650931239EF0CF001C005F0F80E0526F4
:1016F000010E066E052A7FEF0BF0D8900636052EF8
:101700007DEF0BF00650FF0A931639EF0CF002BE86
:1017100095EF0BF0025007E1180E015CD8B093EF83
:101720000BF095EF0BF0C3EF0BF003500410D8B49F
:101730009CEF0BF09EEF0BF0B0EF0BF001C005F04B
:10174000F00E0526010E066E052AA9EF0BF0D890C3
:101750000636052EA7EF0BF00650941239EF0CF069
:1017600001C005F0F00E0526010E066E052ABBEF3E
:101770000BF0D8900636052EB9EF0BF00650FF0A95
:10178000941639EF0CF002BED1EF0BF0025007E1D6
:10179000200E015CD8B0CFEF0BF0D1EF0BF0FFEFD4
:1017A0000BF003500410D8B4D8EF0BF0DAEF0BF0C5
:1017B000ECEF0BF001C005F0E80E0526010E066EF9
:1017C000052AE5EF0BF0D8900636052EE3EF0BF077
:1017D0000650951239EF0CF001C005F0E80E052611
:1017E000010E066E052AF7EF0BF0D8900636052E8F
:1017F000F5EF0BF00650FF0A951639EF0CF002BE1C
:101800000DEF0CF0025007E1280E015CD8B00BEF91
:101810000CF00DEF0CF039EF0CF003500410D8B4BD
:1018200014EF0CF016EF0CF028EF0CF001C005F0EF
:10183000E00E0526010E066E052A21EF0CF0D89069
:101840000636052E1FEF0CF00650961239EF0CF0FD
:1018500001C005F0E00E0526010E066E052A33EFE5
:101860000CF0D8900636052E31EF0CF00650FF0A2A
:1018700096161200000E4B6E030E3C6EE80E3B6E89
:10188000000E0F6E200E0E6E08EC12F00E50496E18
:10189000000E0F6E210E0E6E08EC12F00E50486E08
:1018A000000E0F6E230E0E6E08EC12F00E040F10D9
:1018B000D8B45DEF0CF060EF0CF0010E61EF0CF0AE
:1018C000000E4A6E000E0F6E220E0E6E08EC12F025
:1018D000485049C023F0246A2326000E24220E50CB
:1018E000231809E10F502418D8B479EF0CF07BEFDE
:1018F0000CF08BEF0CF0000E216E320E206E000EFD
:10190000226EBFEC11F0000E216E640E206E010EEF
:10191000226EBFEC11F0000E0F6E000E0E6E08EC82
:1019200012F07F0E0E14136E146A4EEC12F0135068
:101930001410D8B49EEF0CF0A0EF0CF0B2EF0CF046
:10194000000E0F6E000E0E6E08EC12F07F0E0E14DD
:10195000136E146A4EEC12F013C025F014C026F07A
:10196000B6EF0CF0000E266E000E256E000E1E6EF9
:10197000000E1D6E25C017F026C018F008EC11F0FF
:1019800017500BEC13F0000E0F6E010E0E6E08ECEC
:1019900012F07F0E0E14136E146A4EEC12F01350F8
:1019A0001410D8B4D6EF0CF0D8EF0CF0EAEF0CF02E
:1019B000000E0F6E010E0E6E08EC12F07F0E0E146C
:1019C000136E146A4EEC12F013C027F014C028F006
:1019D000EEEF0CF0000E286E2D0E276E000E1E6E20
:1019E000010E1D6E27C017F028C018F008EC11F08A
:1019F00017500BEC13F0000E0F6E020E0E6E08EC7B
:101A000012F07F0E0E14136E146A4EEC12F0135087
:101A10001410D8B40EEF0DF010EF0DF022EF0DF012
:101A2000000E0F6E020E0E6E08EC12F07F0E0E14FA
:101A3000136E146A4EEC12F013C029F014C02AF091
:101A400026EF0DF0000E2A6E0F0E296E000E1E6E90
:101A5000020E1D6E29C017F02AC018F008EC11F014
:101A600017500BEC13F01200000E246E060E236EBE
:101A700077EC14F0216E2150266E276A4350261809
:101A800009E144502718D8B448EF0DF04AEF0DF0A3
:101A900081EF0DF026A04FEF0DF051EF0DF055EF57
:101AA0000DF0000E246E000E236E26A25AEF0DF0EC
:101AB0005CEF0DF060EF0DF0000E246E010E236E52
:101AC00026A465EF0DF067EF0DF06BEF0DF0000E43
:101AD000246E020E236E26A670EF0DF072EF0DF04D
:101AE00076EF0DF0000E246E030E236E26A87BEF1A
:101AF0000DF07DEF0DF081EF0DF0000E246E040E61
:101B0000236E26C043F027C044F066EC13F0256E28
:101B1000255039EC14F02550D8B491EF0DF093EF27
:101B20000DF00CEF0EF079EC14F0226E2250D96E0D
:101B3000DA6ADF50D8A49FEF0DF0A1EF0DF0FDEFB2
:101B40000DF0D6EF0DF0000E246E000E236E0CEF9C
:101B50000EF0000E246E010E236E0CEF0EF0000E40
:101B6000246E020E236E0CEF0EF0000E246E030E98
:101B7000236E0CEF0EF0000E246E040E236E0CEF9D
:101B80000EF0000E246E060E236E700EBBEC13F0EA
:101B90000CEF0EF0000E246E060E236E7BEC14F09C
:101BA000216E212821EC14F00CEF0EF02550320AA2
:101BB000D8B4A3EF0DF0060AD8B4AFEF0DF0010AC8
:101BC000D8B4BBEF0DF0030AD8B4B5EF0DF00E0A90
:101BD000D8B4A9EF0DF0740AD8B4CAEF0DF01C0AFE
:101BE000D8B4C1EF0DF03C0AD8B4CAEF0DF01C0A0E
:101BF000D8B4C1EF0DF00CEF0EF02550BBEC13F094
:101C00004D50D8B406EF0EF008EF0EF00CEF0EF0CA
:101C1000000E246E050E236E2350120002BE1CEF30
:101C20000EF0025007E1080E015CD8B01AEF0EF07A
:101C30001CEF0EF030EF0EF001C003F0010E046E49
:101C4000032A25EF0EF0D8900436032E23EF0EF072
:101C500004508014056E0550016E026AC2EF0EF04A
:101C600002BE3EEF0EF0025007E1100E015CD8B04C
:101C70003CEF0EF03EEF0EF054EF0EF001C003F01B
:101C8000F80E0326010E046E032A49EF0EF0D890D9
:101C90000436032E47EF0EF004508114056E0550F4
:101CA000016E026AC2EF0EF002BE62EF0EF0025049
:101CB00007E1180E015CD8B060EF0EF062EF0EF095
:101CC00078EF0EF001C003F0F00E0326010E046E53
:101CD000032A6DEF0EF0D8900436032E6BEF0EF052
:101CE00004508214056E0550016E026AC2EF0EF0B8
:101CF00002BE86EF0EF0025007E1200E015CD8B064
:101D000084EF0EF086EF0EF09CEF0EF001C003F0B2
:101D1000E80E0326010E046E032A91EF0EF0D89010
:101D20000436032E8FEF0EF004508314056E055019
:101D3000016E026AC2EF0EF002BEAAEF0EF0025070
:101D400007E1280E015CD8B0A8EF0EF0AAEF0EF064
:101D5000C0EF0EF001C003F0E00E0326010E046E8A
:101D6000032AB5EF0EF0D8900436032EB3EF0EF031
:101D700004508414056E0550016E026AC2EF0EF025
:101D800001680268120020EE09F0040EDE6AE8061F
:101D9000FDE281CF09F081CF0AF081CF0BF081CF36
:101DA0000CF084CF0DF020EE59F010EE04F0040E8C
:101DB000DBCFE3FFE806FCE2000E0E6E0E50090FCB
:101DC000D96EDA6ADF50016E0E50040FD96EDA6AEE
:101DD000DF50026E010E036E022AF1EF0EF0D89072
:101DE0000336022EEFEF0EF0035001140009D8A4C1
:101DF000FCEF0EF0FEEF0EF00EEF0FF00EC001F054
:101E0000010E026E012A07EF0FF0D8900236012E64
:101E100005EF0FF0025056121DEF0FF00EC001F04B
:101E2000010E026E012A17EF0FF0D8900236012E34
:101E300015EF0FF00250FF0A56160E2A040E0E641C
:101E400024EF0FF026EF0FF0DEEF0EF0565055188E
:101E5000D8A42DEF0FF02FEF0FF032EF0FF0570651
:101E600036EF0FF00A0E576E56C055F05750D8A4F3
:101E70003CEF0FF03EEF0FF040EF0FF055C058F081
:101E8000120018BE48EF0FF046EF0FF04FEF0FF0C3
:101E9000176C181ED8B0182A2D0E05EC14F0FF0E82
:101EA00019241F6E206AFF0E202220BE5CEF0FF067
:101EB0005AEF0FF05EEF0FF0A4EF0FF0000E1E6E62
:101EC000010E1D6E000E1C6E000E1B6E78EF0FF0E3
:101ED0001DC009F01EC00AF0000E0C6E0A0E0B6E3B
:101EE000CFEC13F009C01DF00AC01EF01B4A1C2ADB
:101EF0001F501B5C1C50800A1A6E2050800A1A5812
:101F0000D8A085EF0FF087EF0FF068EF0FF01DC03E
:101F100003F01EC004F017C001F018C002F0A5ECD9
:101F20000FF001C009F002C00AF0000E0C6E0A0E9C
:101F30000B6E07EC10F00950300F05EC14F01F0683
:101F4000D8A0200655EF0FF01200000E066E04BE5A
:101F5000AEEF0FF0ACEF0FF0B4EF0FF0036C041E18
:101F6000D8B0042A010E066E02BEBBEF0FF0B9EF27
:101F70000FF0C1EF0FF0016C021ED8B0022A010E63
:101F8000061A000E086E000E076E03500410D8B437
:101F9000CCEF0FF0CEEF0FF0F6EF0FF0010E056E65
:101FA000D6EF0FF0D89003360436052A04AEDBEFE7
:101FB0000FF0DDEF0FF0D2EF0FF0D89007360836B4
:101FC0000350015C04500258D8A0E9EF0FF0EBEF8A
:101FD0000FF0F0EF0FF00350015E0450025A07803B
:101FE000D89004320332052EDDEF0FF00650D8B43E
:101FF000FCEF0FF0FEEF0FF002EF10F0076C081E81
:10200000D8B0082A07C001F008C002F01200000E84
:102010000E6E0ABE10EF10F00EEF10F016EF10F07B
:10202000096C0A1ED8B00A2A010E0E6E0CBE1DEFF6
:1020300010F01BEF10F021EF10F00B6C0C1ED8B05D
:102040000C2A0B500C10D8B428EF10F02AEF10F027
:102050004EEF10F0010E0D6E32EF10F0D8900B36EF
:102060000C360D2A0CAE37EF10F039EF10F02EEFD2
:1020700010F00B50095C0C500A58D8A042EF10F039
:1020800044EF10F048EF10F00B50095E0C500A5A64
:10209000D8900C320B320D2E39EF10F00E50D8B410
:1020A00054EF10F056EF10F05AEF10F0096C0A1EC2
:1020B000D8B00A2A09C009F00AC00AF012009590A7
:1020C000959E959C959A95989594000E046E39EC82
:1020D00013F0042A060E046470EF10F072EF10F093
:1020E00067EF10F0000E016E300E9BEC10F039EC33
:1020F00013F0000E016E300E9BEC10F039EC13F073
:10210000000E016E300E9BEC10F039EC13F0000E57
:10211000016E200E9BEC10F039EC13F0280EE4EC6D
:1021200011F0060EE4EC11F00C0EE4EC11F0010ECF
:10213000E4EC11F01200026E0150D8B4A2EF10F0DE
:10214000A4EF10F0A7EF10F08380A8EF10F08390B9
:1021500002AEADEF10F0AFEF10F0B2EF10F08384ED
:10216000B3EF10F0839402ACB8EF10F0BAEF10F0B8
:10217000BDEF10F08388BEEF10F0839802AAC3EF82
:1021800010F0C5EF10F0C8EF10F0838AC9EF10F01F
:10219000839A02A8CEEF10F0D0EF10F0D3EF10F03A
:1021A000838CD4EF10F0839C6FEC14F01200CA0EF5
:1021B000F66E280EF76E000EF86E00EE60F010EE70
:1021C0000CF00900F5CFEEFFE550E150FAE1D60E34
:1021D000F66E280EF76E000EF86E00EE59F010EE57
:1021E00007F00900F5CFEEFFE550E150FAE100EE0F
:1021F0006CF00B0EEE6AE806FDE100EE37F0220E01
:10220000EE6AE806FDE1000EF86E0001A7EF12F09D
:1022100017C001F018C002F0000E046E0A0E036E23
:10222000A5EC0FF001C019F002C01AF0193A1A3AE1
:10223000F00E1A1619500F0B1A12F00E191617C0BD
:1022400009F018C00AF0000E0C6E0A0E0B6E07ECB7
:1022500010F0095019241B6E0A501A201C6E800EB3
:102260001B10176E1C50186E17C017F018C018F00E
:1022700012000A6E0A50D8B440EF11F042EF11F08C
:1022800044EF11F02BEC12F0000E0B6E09BE4BEF79
:1022900011F04EEF11F0010E4FEF11F0000E69EC4E
:1022A00011F0D89009360B2A070E0B645AEF11F083
:1022B0005CEF11F046EF11F0DBEC12F00850D8B4EF
:1022C00064EF11F066EF11F068EF11F022EC13F0FB
:1022D0001200076E0750D8B470EF11F072EF11F0D2
:1022E00076EF11F06FEC12F078EF11F07CEC13F058
:1022F0007DEC14F08BEC12F00009D8B482EF11F0F1
:1023000084EF11F07AEF11F00750D8B48AEF11F092
:102310008CEF11F08EEF11F06FEC12F07DEC14F0F9
:1023200091EC13F07DEC14F012000A6E000E0D6EAD
:10233000000E0C6E000E0B6EDBEC12F0096E0D50F1
:102340000D2409100D6E0B4A0C2A0C5009E1080EE1
:102350000B5CD8A0AEEF11F0B0EF11F09CEF11F0D4
:102360000A5069EC11F00850D8B4B9EF11F0BBEF86
:1023700011F0BDEF11F022EC13F00D501200220409
:10238000D8A4C5EF11F0C7EF11F0D2EF11F020C0C3
:1023900049F0000E1E6E200E1D6E49500BEC13F01E
:1023A000DBEF11F020C048F0000E1E6E210E1D6EF6
:1023B00048500BEC13F0000E1E6E220E1D6E49509D
:1023C00048240BEC13F01200036E000E016E035054
:1023D0009BEC10F0000E016E0338F00B9BEC10F03C
:1023E000020E0318D8B4F7EF11F0F9EF11F001EF76
:1023F00012F00304D8A4FFEF11F001EF12F005EF83
:1024000012F039EC13F007EF12F02DEC14F012007B
:10241000000E086EDE0E096E010E39EC11F0000E92
:10242000086E0EC009F0000E39EC11F0000E086EB7
:10243000DF0E096E010E39EC11F0010E086E010E6F
:1024400095EC11F0106E1050116E126A11C00EF062
:1024500012C00FF012005350D8B431EF12F033EF26
:1024600012F043EF12F06FEC12F07DEC14F08BECF5
:1024700012F00009D8B43FEF12F041EF12F037EF3D
:1024800012F07DEC14F06FEC12F07CEC13F07DECAC
:1024900014F091EC13F0010E536E12000F0E131492
:1024A000156E000E1414166E000E046E100E036EE0
:1024B00013C001F014C002F0A5EC0FF001C009F048
:1024C00002C00AF0000E0C6E0A0E0B6ECFEC13F079
:1024D00015500924136E16500A20146E1200000EB7
:1024E000026E080E016E000E046E010E036E13ECF8
:1024F0000BF0000E026E080E016E0EEC0EF0015095
:102500000210D8A486EF12F089EF12F0010E8AEFC4
:1025100012F0000E1200000E026E090E016E000E87
:10252000046E010E036E13EC0BF0000E026E090E2A
:10253000016E0EEC0EF001500210D8A4A2EF12F0C2
:10254000A5EF12F0010EA6EF12F0000E12005EECE5
:1025500014F05FEC10F072EC14F0F5EC13F014ECE6
:1025600014F04FEC14F0000E926E000E896EC3EC66
:102570000EF0E2EC13F050EC04F0B7EF12F000EFC5
:1025800000F0CCEF12F004C0F6FF080EF76E080062
:10259000F55005EC14F0042A04C0F6FF080EF76E9F
:1025A0000800F5500009D8A4D8EF12F0DAEF12F0C5
:1025B000C3EF12F012006FEC12F07DEC14F08BEC14
:1025C00012F00009D8B4E7EF12F0E9EF12F0DFEFF4
:1025D00012F06FEC12F0076E7DEC14F091EC13F03A
:1025E0007DEC14F007501200000E016EFEEF12F0A9
:1025F0000150710FD96EDA6ADF6A012A050E016493
:1026000004EF13F006EF13F0F8EF12F0000E4D6E2A
:10261000000E476E12001F6E000E086EDE0E096E71
:10262000010E39EC11F0000E086E1DC009F0000E0D
:1026300039EC11F0010E086E1FC009F0000E39ECE4
:1026400011F012007CEC13F07DEC14F08BEC12F026
:102650000009D8B42EEF13F030EF13F026EF13F08B
:102660007DEC14F06FEC12F07DEC14F0000E536E64
:102670001200000E016E000E026E022AB10E0264FC
:1026800044EF13F046EF13F03DEF13F0012A130E61
:1026900001644DEF13F04FEF13F03BEF13F0120016
:1026A00001500210D8A457EF13F059EF13F05EEF6A
:1026B00013F048C003F0046A61EF13F049C003F05F
:1026C000046A03C001F004C002F01200000E016EA3
:1026D000ABA26DEF13F06FEF13F071EF13F0AB9847
:1026E000AB889EAA76EF13F078EF13F07AEF13F031
:1026F000AECF01F001501200000E026E080E016E06
:10270000000E046E000E036E13EC0BF0000E026E52
:10271000080E016E000E046E000E036EECEC09F064
:102720001200000E026E090E016E000E046E000E05
:10273000036E13EC0BF0000E026E090E016E000E1C
:10274000046E000E036EECEC09F01200000E026E37
:10275000080E016E000E046E010E036E13EC0BF0FA
:10276000000E026E090E016E000E046E010E036E65
:1027700013EC0BF01200016E4750710FD96EDA6A3C
:1027800001C0DFFF472A060E4718D8A4CAEF13F08E
:10279000CCEF13F0CEEF13F0010E4D6E1200095086
:1027A0000B02F3CF0DF0F4CF0EF009500C02F350F2
:1027B0000E260A500B02F3500E260DC009F00EC073
:1027C0000AF01200C282C2B2E8EF13F0EAEF13F08F
:1027D000E3EF13F0C4CF01F0026A0150026E016A08
:1027E000C3500126000E022212003AEC0CF0050E36
:1027F00057EC14F044EC14F0000E376E000E386EF7
:10280000000E396E000E3A6E1200036E010E016E5C
:1028100003509BEC10F0010E016E0338F00B9BECA3
:1028200010F02DEC14F012002C0EAC6E900EAB6E6E
:10283000080EB86E000EB06E220EAF6E948C948EA1
:102840001200206E2050010B4A6E000E1E6E230EE9
:102850001D6E4A500BEC13F01200000E016E012A9F
:10286000430E016436EF14F038EF14F02FEF14F03C
:102870001200016E9EA83FEF14F041EF14F03AEF02
:1028800014F001C0ADFF12005EEC14F0000E466EB5
:10289000000E456E000E426E010E416E12009280D7
:1028A000050EC26E0E0EC16EAA0EC06E1200046E30
:1028B00004C04BF0010EE4EC11F012009368F19E9D
:1028C0000E0EC16E000E636E1200734373435333DA
:0D28D000533363830000020305040162001E
:1028DE00838E839E1200A6EC13F012004B50120052
:0E28EE0058501200710E12004A5012001200D3
:020000040030CA
:08000000000C1F1EFF8381FFAD
:00000001FF
