:04000000BFEF0DF051
:10080000003F065B4F666D7D077F6F777C395E79B1
:1008100071456E676C69736820202020202020209D
:100820002000506F7274756775657320202020203A
:100830002020004368616E67652074696D65202023
:100840002020004368616E676520616C61726D20D5
:10085000202000416C74657261722074656D706F48
:10086000202000416C7465726172206964696F6D4B
:10087000612000416C746572617220616C61726DFF
:100880006520004368616E6765206C616E67756105
:10089000676500202020202020202020202000002C
:1008A00029BE5EEF04F0295007E1080E285CD8B09D
:1008B0005CEF04F05EEF04F088EF04F02A502B1098
:1008C000D8B465EF04F067EF04F077EF04F028C0C8
:1008D0002CF0010E2D6E2C2A70EF04F0D8902D36DE
:1008E0002C2E6EEF04F02D50801276EF05F028C00C
:1008F0002CF0010E2D6E2C2A80EF04F0D8902D36AE
:100900002C2E7EEF04F02D50FF0A801676EF05F0B6
:1009100029BE96EF04F0295007E1100E285CD8B0EC
:1009200094EF04F096EF04F0C4EF04F0F80E2826DC
:10093000FF0E29222A502B10D8B4A1EF04F0A3EF08
:1009400004F0B3EF04F028C02CF0010E2D6E2C2A19
:10095000ACEF04F0D8902D362C2EAAEF04F02D50D9
:10096000811276EF05F028C02CF0010E2D6E2C2A96
:10097000BCEF04F0D8902D362C2EBAEF04F02D5099
:10098000FF0A811676EF05F029BED2EF04F0295058
:1009900007E1180E285CD8B0D0EF04F0D2EF04F0D5
:1009A00000EF05F0F00E2826FF0E29222A502B100A
:1009B000D8B4DDEF04F0DFEF04F0EFEF04F028C06F
:1009C0002CF0010E2D6E2C2AE8EF04F0D8902D3675
:1009D0002C2EE6EF04F02D50821276EF05F028C0A1
:1009E0002CF0010E2D6E2C2AF8EF04F0D8902D3645
:1009F0002C2EF6EF04F02D50FF0A821676EF05F04C
:100A000029BE0EEF05F0295007E1200E285CD8B072
:100A10000CEF05F00EEF05F03CEF05F0E80E282690
:100A2000FF0E29222A502B10D8B419EF05F01BEF26
:100A300005F02BEF05F028C02CF0010E2D6E2C2AAE
:100A400024EF05F0D8902D362C2E22EF05F02D50F6
:100A5000831276EF05F028C02CF0010E2D6E2C2AA3
:100A600034EF05F0D8902D362C2E32EF05F02D50B6
:100A7000FF0A831676EF05F029BE4AEF05F02950EC
:100A800007E1280E285CD8B048EF05F04AEF05F0E2
:100A900076EF05F0E00E2826FF0E29222A502B10B3
:100AA000D8B455EF05F057EF05F067EF05F028C013
:100AB0002CF0010E2D6E2C2A60EF05F0D8902D360B
:100AC0002C2E5EEF05F02D50841276EF05F028C035
:100AD0002CF0010E2D6E2C2A70EF05F0D8902D36DB
:100AE0002C2E6EEF05F02D50FF0A8416120029BE41
:100AF00085EF05F0295007E1080E285CD8B083EF98
:100B000005F085EF05F0AFEF05F02A502B10D8B4B3
:100B10008CEF05F08EEF05F09EEF05F028C02CF06D
:100B2000010E2D6E2C2A97EF05F0D8902D362C2E25
:100B300095EF05F02D5092129DEF06F028C02CF095
:100B4000010E2D6E2C2AA7EF05F0D8902D362C2EF5
:100B5000A5EF05F02D50FF0A92169DEF06F029BE75
:100B6000BDEF05F0295007E1100E285CD8B0BBEFAF
:100B700005F0BDEF05F0EBEF05F02A502B10D8B4CF
:100B8000C4EF05F0C6EF05F0D8EF05F028C02CF053
:100B9000F80E2C26010E2D6E2C2AD1EF05F0D890E0
:100BA0002D362C2ECFEF05F02D5093129DEF06F031
:100BB00028C02CF0F80E2C26010E2D6E2C2AE3EF07
:100BC00005F0D8902D362C2EE1EF05F02D50FF0AC0
:100BD00093169DEF06F029BEF9EF05F0295007E1C5
:100BE000180E285CD8B0F7EF05F0F9EF05F027EF05
:100BF00006F02A502B10D8B400EF06F002EF06F0F2
:100C000014EF06F028C02CF0F00E2C26010E2D6EED
:100C10002C2A0DEF06F0D8902D362C2E0BEF06F077
:100C20002D5094129DEF06F028C02CF0F00E2C26CB
:100C3000010E2D6E2C2A1FEF06F0D8902D362C2E8B
:100C40001DEF06F02D50FF0A94169DEF06F029BE09
:100C500035EF06F0295007E1200E285CD8B033EFBD
:100C600006F035EF06F063EF06F02A502B10D8B4EB
:100C70003CEF06F03EEF06F050EF06F028C02CF0F7
:100C8000E80E2C26010E2D6E2C2A49EF06F0D89086
:100C90002D362C2E47EF06F02D5095129DEF06F0C5
:100CA00028C02CF0E80E2C26010E2D6E2C2A5BEFAE
:100CB00006F0D8902D362C2E59EF06F02D50FF0A55
:100CC00095169DEF06F029BE71EF06F0295007E159
:100CD000280E285CD8B06FEF06F071EF06F09DEF9C
:100CE00006F02A502B10D8B478EF06F07AEF06F011
:100CF0008CEF06F028C02CF0E00E2C26010E2D6E95
:100D00002C2A85EF06F0D8902D362C2E83EF06F096
:100D10002D5096129DEF06F028C02CF0E00E2C26E8
:100D2000010E2D6E2C2A97EF06F0D8902D362C2E22
:100D300095EF06F02D50FF0A961612005BEC08F0B6
:100D40002A50486E64EF07F0020E4818D8A4ABEFA3
:100D500006F0ADEF06F0B0EF06F0020E47EC0FF034
:100D6000030E4818D8A4B7EF06F0B9EF06F0BCEFB1
:100D700006F0010E47EC0FF0040E4818D8A4C3EF9C
:100D800006F0C5EF06F078EF07F0030E47EC0FF022
:100D900078EF07F0020E4818D8A4D1EF06F0D3EF91
:100DA00006F0D6EF06F0010E47EC0FF0030E4818E0
:100DB000D8A4DDEF06F0DFEF06F0E2EF06F0000E5C
:100DC00047EC0FF0040E4818D8A4E9EF06F0EBEF5B
:100DD00006F0EEEF06F0030E47EC0FF04850D8A4F3
:100DE000F4EF06F0F6EF06F0FCEF06F051EC0FF032
:100DF000446E442838EC0FF04804D8A402EF07F002
:100E000004EF07F00AEF07F051EC0FF0446E4404D2
:100E100038EC0FF0050E4818D8A411EF07F013EFC7
:100E200007F078EF07F057EC0FF0476E4750D96E98
:100E3000DA6A010ED9266C0EDE18D8A422EF07F06C
:100E400024EF07F02CEF07F04750D96EDA6A030E53
:100E5000D926DF5038EC0FF00DEC0EF078EF07F0EC
:100E6000020E4818D8A437EF07F039EF07F03CEF2F
:100E700007F0000E47EC0FF0030E4818D8A443EF1C
:100E800007F045EF07F048EF07F0020E47EC0FF0D0
:100E9000040E4818D8A44FEF07F051EF07F078EF91
:100EA00007F0030E47EC0FF078EF07F0040E481838
:100EB000D8B45DEF07F05FEF07F078EF07F0000EB2
:100EC00047EC0FF078EF07F053EC0FF0000AD8B4BE
:100ED000A4EF06F0010AD8B430EF07F0030AD8B443
:100EE000CAEF06F0010AD8B456EF07F078EF07F022
:100EF00051EC0FF0446E4450456E466A53EC0FF0CF
:100F0000446E4450406E416A45C042F046C043F0D2
:100F10008BEC07F0120040044110D8A492EF07F0C8
:100F200094EF07F0B1EF07F0800EFCEC0CF04050AE
:100F3000020DF350490F4224D96EDA6ADF502B6E4E
:100F4000DAEC0DF0C00EFCEC0CF03DEC0FF028C01C
:100F50003EF029C03FF059EC0AF0930E2B6EDAEC0C
:100F60000DF040504110D8A4B8EF07F0BAEF07F0E9
:100F7000D7EF07F0800EFCEC0CF04050020DF35060
:100F8000490F4224D96EDA6ADF502B6EDAEC0DF08D
:100F9000C00EFCEC0CF042EC0FF028C03EF029C073
:100FA0003FF059EC0AF0930E2B6EDAEC0DF0020EC6
:100FB00040184110D8A4DFEF07F0E1EF07F00EEF83
:100FC00008F0800EFCEC0CF04050020DF350490F7D
:100FD0004224D96EDA6ADF502B6EDAEC0DF0C00EC7
:100FE000FCEC0CF051EC0FF00009D8A4FAEF07F07C
:100FF000FCEF07F000EF08F0220E2B6EDAEC0DF09C
:1010000051EC0FF0E806D8A408EF08F00AEF08F05A
:101010000EEF08F0110E2B6EDAEC0DF0030E4018F7
:101020004110D8A416EF08F018EF08F05AEF08F0B6
:10103000800EFCEC0CF0000E366E000E356E20ECCF
:101040000DF07F0E35143A6E3B6A66EC0DF03AC037
:101050003EF03BC03FF059EC0AF03A0EE5EC0EF0E2
:10106000000E366E010E356E20EC0DF07F0E35143D
:101070003A6E3B6A66EC0DF03AC03EF03BC03FF082
:1010800059EC0AF03A0EE5EC0EF0000E366E020E48
:10109000356E20EC0DF07F0E35143A6E3B6A66EC2F
:1010A0000DF03AC03EF03BC03FF059EC0AF03A0E6A
:1010B000E5EC0EF01200000E2F6E060E2E6E55ECB3
:1010C0000FF02C6E2C50316E326A31A86AEF08F0A6
:1010D0006CEF08F070EF08F0000E2F6E040E2E6E0D
:1010E0001050311809E111503218D8B47AEF08F0D5
:1010F0007CEF08F0A8EF08F031A081EF08F083EF53
:1011000008F087EF08F0000E2F6E000E2E6E31A251
:101110008CEF08F08EEF08F092EF08F0000E2F6EC3
:10112000010E2E6E31A497EF08F099EF08F09DEFB5
:1011300008F0000E2F6E020E2E6E31A6A2EF08F000
:10114000A4EF08F0A8EF08F0000E2F6E030E2E6E2D
:1011500031C010F032C011F069EC0EF0306E30503A
:101160000DEC0FF03050D8B4B8EF08F0BAEF08F03B
:1011700021EF09F057EC0FF02D6E2D50D96EDA6A81
:10118000DF50D8A4C6EF08F0C8EF08F010EF09F060
:10119000F1EF08F0000E2F6E000E2E6E21EF09F019
:1011A000000E2F6E010E2E6E21EF09F0000E2F6E35
:1011B000020E2E6E21EF09F0000E2F6E030E2E6E22
:1011C00021EF09F0000E2F6E040E2E6E21EF09F0B4
:1011D000000E2F6E060E2E6E700EBEEC0EF021EF7E
:1011E00009F03050310AD8B4D0EF08F0030AD8B46F
:1011F000D6EF08F0010AD8B4DCEF08F0070AD8B43B
:10120000E2EF08F00D0AD8B4CAEF08F0690AD8B4C2
:10121000E8EF08F0200AD8B4E8EF08F021EF09F071
:101220003050BEEC0EF01850D8B419EF09F01BEF97
:1012300009F021EF09F0000E2F6E050E2E6E21EF42
:1012400009F02EC02AF02FC02BF0120029BE34EF77
:1012500009F0295007E1080E285CD8B032EF09F0F8
:1012600034EF09F048EF09F028C02AF0010E2B6E88
:101270002A2A3DEF09F0D8902B362A2E3BEF09F0B1
:101280002B5080142C6E2C50286E296ADAEF09F04E
:1012900029BE56EF09F0295007E1100E285CD8B09E
:1012A00054EF09F056EF09F06CEF09F028C02AF06E
:1012B000F80E2A26010E2B6E2A2A61EF09F0D8902B
:1012C0002B362A2E5FEF09F02B5081142C6E2C50F8
:1012D000286E296ADAEF09F029BE7AEF09F0295061
:1012E00007E1180E285CD8B078EF09F07AEF09F022
:1012F00090EF09F028C02AF0F00E2A26010E2B6E7E
:101300002A2A85EF09F0D8902B362A2E83EF09F090
:101310002B5082142C6E2C50286E296ADAEF09F0BB
:1013200029BE9EEF09F0295007E1200E285CD8B0B5
:101330009CEF09F09EEF09F0B4EF09F028C02AF005
:10134000E80E2A26010E2B6E2A2AA9EF09F0D89062
:101350002B362A2EA7EF09F02B5083142C6E2C501D
:10136000286E296ADAEF09F029BEC2EF09F0295088
:1013700007E1280E285CD8B0C0EF09F0C2EF09F0F1
:10138000D8EF09F028C02AF0E00E2A26010E2B6EB5
:101390002A2ACDEF09F0D8902B362A2ECBEF09F070
:1013A0002B5084142C6E2C50286E296ADAEF09F029
:1013B00028682968120020EE30F0040EDE6AE80684
:1013C000FDE281CF30F081CF31F081CF32F081CF9B
:1013D00033F084CF34F020EE51F010EE2BF0040EF9
:1013E000DBCFE3FFE806FCE2000E356E3550300F30
:1013F000D96EDA6ADF50286E35502B0FD96EDA6A53
:10140000DF50296E010E2A6E292A09EF0AF0D890C2
:101410002A36292E07EF0AF02A5028140009D8A4EA
:1014200014EF0AF016EF0AF026EF0AF035C028F0A4
:10143000010E296E282A1FEF0AF0D8902936282E8F
:101440001DEF0AF02950211235EF0AF035C028F0BF
:10145000010E296E282A2FEF0AF0D8902936282E5F
:101460002DEF0AF02950FF0A2116352A040E3564A3
:101470003CEF0AF03EEF0AF0F6EF09F02150201899
:10148000D8A445EF0AF047EF0AF04AEF0AF0220627
:101490004EEF0AF00A0E226E21C020F02250D8A48E
:1014A00054EF0AF056EF0AF058EF0AF020C023F08C
:1014B00012003FBE60EF0AF05EEF0AF067EF0AF03D
:1014C0003E6C3F1ED8B03F2A2D0EE5EC0EF0270EE5
:1014D0002B6E100E2A6E3EC028F03FC029F0D6ECCD
:1014E0000AF028C030F029C031F0000E336E0A0E29
:1014F000326E38EC0BF03050300FE5EC0EF0030E8E
:101500002B6EE80E2A6E3EC028F03FC029F0D6ECC4
:101510000AF028C030F029C031F0000E336E0A0EF8
:10152000326E38EC0BF03050300FE5EC0EF0000E60
:101530002B6E640E2A6E3EC028F03FC029F0D6EC18
:101540000AF028C030F029C031F0000E336E0A0EC8
:10155000326E38EC0BF03050300FE5EC0EF0000E30
:101560002B6E0A0E2A6E3EC028F03FC029F0D6EC42
:101570000AF028C030F029C031F0000E336E0A0E98
:10158000326E38EC0BF03050300FE5EC0EF03EC010
:1015900030F03FC031F0000E336E0A0E326E38EC80
:1015A0000BF03050300FE5EC0EF01200000E2D6EF7
:1015B0002BBEDFEF0AF0DDEF0AF0E5EF0AF02A6C50
:1015C0002B1ED8B02B2A010E2D6E29BEECEF0AF08F
:1015D000EAEF0AF0F2EF0AF0286C291ED8B0292AA7
:1015E000010E2D1A000E2F6E000E2E6E2A502B109B
:1015F000D8B4FDEF0AF0FFEF0AF027EF0BF0010E71
:101600002C6E07EF0BF0D8902A362B362C2A2BAEF7
:101610000CEF0BF00EEF0BF003EF0BF0D8902E3623
:101620002F362A50285C2B502958D8A01AEF0BF0DF
:101630001CEF0BF021EF0BF02A50285E2B50295A9B
:101640002E80D8902B322A322C2E0EEF0BF02D50FC
:10165000D8B42DEF0BF02FEF0BF033EF0BF02E6C17
:101660002F1ED8B02F2A2EC028F02FC029F012002C
:10167000000E356E31BE41EF0BF03FEF0BF047EF40
:101680000BF0306C311ED8B0312A010E356E33BEEE
:101690004EEF0BF04CEF0BF052EF0BF0326C331EB1
:1016A000D8B0332A32503310D8B459EF0BF05BEF77
:1016B0000BF07FEF0BF0010E346E63EF0BF0D89060
:1016C00032363336342A33AE68EF0BF06AEF0BF064
:1016D0005FEF0BF03250305C33503158D8A073EFCD
:1016E0000BF075EF0BF079EF0BF03250305E3350AA
:1016F000315AD89033323232342E6AEF0BF03550F3
:10170000D8B485EF0BF087EF0BF08BEF0BF0306C5C
:10171000311ED8B0312A30C030F031C031F0120063
:101720002BEC0FF0CDEC0BF04EEC0FF032EC0FF099
:10173000F4EC0EF0000E926E000E896E000E3D6EFF
:10174000000E3C6E000E376E000E366E45EC0CF04F
:1017500036503BEC0EF0000E3D6E010E3C6E000E5E
:10176000376E000E366E45EC0CF036503BEC0EF04A
:10177000000E3D6E020E3C6E000E376E000E366E91
:1017800045EC0CF036503BEC0EF0DBEC09F09EEC37
:1017900006F0C5EF0BF000EF00F09590959E959C3C
:1017A000959A95989594000E2B6E24EC0EF02B2AAA
:1017B000060E2B64DEEF0BF0E0EF0BF0D5EF0BF035
:1017C000000E286E300E09EC0CF024EC0EF0000E2A
:1017D000286E300E09EC0CF024EC0EF0000E286E92
:1017E000300E09EC0CF024EC0EF0000E286E200EEA
:1017F00009EC0CF024EC0EF0280EFCEC0CF0060EBC
:10180000FCEC0CF00C0EFCEC0CF0010EFCEC0CF003
:101810001200296E2850D8B410EF0CF012EF0CF023
:1018200015EF0CF0838016EF0CF0839029AE1BEFC0
:101830000CF01DEF0CF020EF0CF0838421EF0CF086
:10184000839429AC26EF0CF028EF0CF02BEF0CF072
:1018500083882CEF0CF0839829AA31EF0CF033EF3A
:101860000CF036EF0CF0838A37EF0CF0839A29A83E
:101870003CEF0CF03EEF0CF041EF0CF0838C42EFAC
:101880000CF0839C4BEC0FF0120036C028F037C0F0
:1018900029F0000E2B6E0A0E2A6ED6EC0AF028C034
:1018A00038F029C039F0383A393AF00E3916385044
:1018B0000F0B3912F00E381636C030F037C031F049
:1018C000000E336E0A0E326E38EC0BF030503824B6
:1018D0003A6E315039203B6E800E3A10366E3B50D6
:1018E000376E36C036F037C037F01200316E3150E7
:1018F000D8B47DEF0CF07FEF0CF081EF0CF043ECEF
:101900000DF0000E326E30BE88EF0CF08BEF0CF055
:10191000010E8CEF0CF0000EA6EC0CF0D8903036D7
:10192000322A070E326497EF0CF099EF0CF083EF38
:101930000CF0F4EC0DF02F50D8B4A1EF0CF0A3EFA5
:101940000CF0A5EF0CF052EC0EF012002E6E2E50A3
:10195000D8B4ADEF0CF0AFEF0CF0B3EF0CF087ECB8
:101960000DF0B5EF0CF07FEC0EF059EC0FF0A3EC9E
:101970000DF00009D8B4BFEF0CF0C1EF0CF0B7EFD9
:101980000CF02E50D8B4C7EF0CF0C9EF0CF0CBEF31
:101990000CF087EC0DF059EC0FF094EC0EF059ECD4
:1019A0000FF01200316E000E346E000E336E000E1A
:1019B000326EF4EC0DF0306E345034243010346E4E
:1019C000324A332A335009E1080E325CD8A0EBEFDB
:1019D0000CF0EDEF0CF0D9EF0CF03150A6EC0CF060
:1019E0002F50D8B4F6EF0CF0F8EF0CF0FAEF0CF043
:1019F00052EC0EF0345012002A6E000E286E2A505F
:101A000009EC0CF0000E286E2A38F00B09EC0CF0F3
:101A1000020E2A18D8B40FEF0DF011EF0DF019EFE8
:101A20000DF02A04D8A417EF0DF019EF0DF01DEFFB
:101A30000DF024EC0EF01FEF0DF001EC0FF0120092
:101A4000000E2F6EDE0E306E010E76EC0CF0000EE6
:101A50002F6E35C030F0000E76EC0CF0000E2F6EBD
:101A6000DF0E306E010E76EC0CF0010E2F6E010EC3
:101A7000D2EC0CF0376E3750386E396A38C035F01A
:101A800039C036F012001E50D8B449EF0DF04BEFBC
:101A90000DF05BEF0DF087EC0DF059EC0FF0A3ECBF
:101AA0000DF00009D8B457EF0DF059EF0DF04FEFDE
:101AB0000DF059EC0FF087EC0DF07FEC0EF059ECC7
:101AC0000FF094EC0EF0010E1E6E12000F0E3A1481
:101AD0003C6E000E3B143D6E000E2B6E100E2A6EF7
:101AE0003AC028F03BC029F0D6EC0AF028C030F00C
:101AF00029C031F0000E336E0A0E326ED2EC0EF0B9
:101B00003C5030243A6E3D5031203B6E1200000EA6
:101B1000296E080E286E000E2B6E010E2A6E77ECD1
:101B200005F0000E296E080E286E26EC09F02850EC
:101B30002910D8A49EEF0DF0A1EF0DF0010EA2EF39
:101B40000DF0000E1200000E296E090E286E000E18
:101B50002B6E010E2A6E77EC05F0000E296E090E31
:101B6000286E26EC09F028502910D8A4BAEF0DF001
:101B7000BDEF0DF0010EBEEF0DF0000E1200460E8F
:101B8000F66E1E0EF76E000EF86E00EE49F010EEC7
:101B90000FF00900F5CFEEFFE550E150FAE100EE5D
:101BA00001F0270EEE6AE806FDE1000EF86E000176
:101BB00090EF0BF0E5EF0DF02BC0F6FF080EF76E7F
:101BC0000800F550E5EC0EF02B2A2BC0F6FF080EAE
:101BD000F76E0800F5500009D8A4F1EF0DF0F3EF0F
:101BE0000DF0DCEF0DF0120087EC0DF059EC0FF06A
:101BF000A3EC0DF00009D8B400EF0EF002EF0EF0E8
:101C0000F8EF0DF087EC0DF02E6E59EC0FF094EC20
:101C10000EF059EC0FF02E501200000E286E17EF48
:101C20000EF02850240FD96EDA6ADF6A282A030ED4
:101C300028641DEF0EF01FEF0EF011EF0EF0000EF6
:101C4000186E000E146E1200000E286E000E296E23
:101C5000292AB10E29642FEF0EF031EF0EF028EF94
:101C60000EF0282A130E286438EF0EF03AEF0EF02B
:101C700026EF0EF012003E6E000E2F6EDE0E306E5E
:101C8000010E76EC0CF0000E2F6E3CC030F0000E12
:101C900076EC0CF0010E2F6E3EC030F0000E76ECAC
:101CA0000CF012007FEC0EF059EC0FF0A3EC0DF0ED
:101CB0000009D8B45EEF0EF060EF0EF056EF0EF0B4
:101CC00059EC0FF087EC0DF059EC0FF0000E1E6E82
:101CD0001200000E286EABA270EF0EF072EF0EF045
:101CE00074EF0EF0AB98AB889EAA79EF0EF07BEF05
:101CF0000EF07DEF0EF0AECF28F028501200000E4F
:101D0000296E080E286E000E2B6E000E2A6E77ECE0
:101D100005F0000E296E080E286E000E2B6E000EC8
:101D20002A6E50EC04F01200000E296E090E286E87
:101D3000000E2B6E000E2A6E77EC05F0000E296E59
:101D4000090E286E000E2B6E000E2A6E50EC04F069
:101D50001200000E296E080E286E000E2B6E010E6A
:101D60002A6E77EC05F0000E296E090E286E000E23
:101D70002B6E010E2A6E77EC05F01200286E1450BF
:101D8000240FD96EDA6A28C0DFFF142A040E141853
:101D9000D8A4CDEF0EF0CFEF0EF0D1EF0EF0010E84
:101DA000186E120030503202F3CF34F0F4CF35F019
:101DB00030503302F350352631503202F35035267D
:101DC00034C030F035C031F012002A6E010E286E9A
:101DD0002A5009EC0CF0010E286E2A38F00B09ECA1
:101DE0000CF001EC0FF012002C0EAC6E900EAB6EEE
:101DF000080EB86E000EB06E220EAF6E948C948EEC
:101E00001200000E286E282A430E28640AEF0FF0F5
:101E10000CEF0FF003EF0FF01200286E9EA813EFE7
:101E20000FF015EF0FF00EEF0FF028C0ADFF12000E
:101E30002BEC0FF0000E136E000E126E000E0F6EE4
:101E4000010E0E6E120073435333638300000203CE
:051E5000050401620021
:101E56009368F19E0E0EC16E000E636E1200000EA8
:101E660047EC0FF018EC0FF01200286E2850010B0B
:101E7600156E120008C028F009C029F0120006C02D
:101E860028F007C029F01200286E28C016F01200AC
:101E9600838E839E1200A9EC0EF0120015501200DC
:0E1EA6001650120023501200240E12001200DB
:020000040030CA
:08000000000C1F1EFF8381FFAD
:00000001FF
