:0400000070EF0AF0A3
:10080000003F065B4F666D7D077F6F777C395E79B1
:1008100071456E676C69736820202020202020209D
:100820002000506F7274756775657320202020203A
:100830002020004368616E67652074696D65202023
:100840002020004368616E676520616C61726D20D5
:10085000202000416C74657261722074656D706F48
:10086000202000416C7465726172206964696F6D4B
:10087000612000416C746572617220616C61726DFF
:100880006520004368616E6765206C616E67756105
:10089000676500202020202020202020202000002C
:1008A0002FBE5EEF04F02F5007E1080E2E5CD8B08B
:1008B0005CEF04F05EEF04F088EF04F0305031108C
:1008C000D8B465EF04F067EF04F077EF04F02EC0C2
:1008D00032F0010E336E322A70EF04F0D8903336C6
:1008E000322E6EEF04F03350801276EF05F02EC0FA
:1008F00032F0010E336E322A80EF04F0D890333696
:10090000322E7EEF04F03350FF0A801676EF05F0AA
:100910002FBE96EF04F02F5007E1100E2E5CD8B0DA
:1009200094EF04F096EF04F0C4EF04F0F80E2E26D6
:10093000FF0E2F2230503110D8B4A1EF04F0A3EFF6
:1009400004F0B3EF04F02EC032F0010E336E322A01
:10095000ACEF04F0D8903336322EAAEF04F03350C7
:10096000811276EF05F02EC032F0010E336E322A7E
:10097000BCEF04F0D8903336322EBAEF04F0335087
:10098000FF0A811676EF05F02FBED2EF04F02F504C
:1009900007E1180E2E5CD8B0D0EF04F0D2EF04F0CF
:1009A00000EF05F0F00E2E26FF0E2F2230503110F2
:1009B000D8B4DDEF04F0DFEF04F0EFEF04F02EC069
:1009C00032F0010E336E322AE8EF04F0D89033365D
:1009D000322EE6EF04F03350821276EF05F02EC08F
:1009E00032F0010E336E322AF8EF04F0D89033362D
:1009F000322EF6EF04F03350FF0A821676EF05F040
:100A00002FBE0EEF05F02F5007E1200E2E5CD8B060
:100A10000CEF05F00EEF05F03CEF05F0E80E2E268A
:100A2000FF0E2F2230503110D8B419EF05F01BEF14
:100A300005F02BEF05F02EC032F0010E336E322A96
:100A400024EF05F0D8903336322E22EF05F03350E4
:100A5000831276EF05F02EC032F0010E336E322A8B
:100A600034EF05F0D8903336322E32EF05F03350A4
:100A7000FF0A831676EF05F02FBE4AEF05F02F50E0
:100A800007E1280E2E5CD8B048EF05F04AEF05F0DC
:100A900076EF05F0E00E2E26FF0E2F22305031109B
:100AA000D8B455EF05F057EF05F067EF05F02EC00D
:100AB00032F0010E336E322A60EF05F0D8903336F3
:100AC000322E5EEF05F03350841276EF05F02EC023
:100AD00032F0010E336E322A70EF05F0D8903336C3
:100AE000322E6EEF05F03350FF0A841612002FBE2F
:100AF00085EF05F02F5007E1080E2E5CD8B083EF8C
:100B000005F085EF05F0AFEF05F030503110D8B4A7
:100B10008CEF05F08EEF05F09EEF05F02EC032F061
:100B2000010E336E322A97EF05F0D8903336322E0D
:100B300095EF05F0335092129DEF06F02EC032F083
:100B4000010E336E322AA7EF05F0D8903336322EDD
:100B5000A5EF05F03350FF0A92169DEF06F02FBE69
:100B6000BDEF05F02F5007E1100E2E5CD8B0BBEFA3
:100B700005F0BDEF05F0EBEF05F030503110D8B4C3
:100B8000C4EF05F0C6EF05F0D8EF05F02EC032F047
:100B9000F80E3226010E336E322AD1EF05F0D890CE
:100BA0003336322ECFEF05F0335093129DEF06F01F
:100BB0002EC032F0F80E3226010E336E322AE3EFE9
:100BC00005F0D8903336322EE1EF05F03350FF0AAE
:100BD00093169DEF06F02FBEF9EF05F02F5007E1B9
:100BE000180E2E5CD8B0F7EF05F0F9EF05F027EFFF
:100BF00006F030503110D8B400EF06F002EF06F0E6
:100C000014EF06F02EC032F0F00E3226010E336ED5
:100C1000322A0DEF06F0D8903336322E0BEF06F065
:100C2000335094129DEF06F02EC032F0F00E3226B3
:100C3000010E336E322A1FEF06F0D8903336322E73
:100C40001DEF06F03350FF0A94169DEF06F02FBEFD
:100C500035EF06F02F5007E1200E2E5CD8B033EFB1
:100C600006F035EF06F063EF06F030503110D8B4DF
:100C70003CEF06F03EEF06F050EF06F02EC032F0EB
:100C8000E80E3226010E336E322A49EF06F0D89074
:100C90003336322E47EF06F0335095129DEF06F0B3
:100CA0002EC032F0E80E3226010E336E322A5BEF90
:100CB00006F0D8903336322E59EF06F03350FF0A43
:100CC00095169DEF06F02FBE71EF06F02F5007E14D
:100CD000280E2E5CD8B06FEF06F071EF06F09DEF96
:100CE00006F030503110D8B478EF06F07AEF06F005
:100CF0008CEF06F02EC032F0E00E3226010E336E7D
:100D0000322A85EF06F0D8903336322E83EF06F084
:100D1000335096129DEF06F02EC032F0E00E3226D0
:100D2000010E336E322A97EF06F0D8903336322E0A
:100D300095EF06F03350FF0A96161200000E1A6E59
:100D4000030E0B6EE80E0A6E000E3C6E200E3B6E1C
:100D500035EC0BF03B50186E000E3C6E210E3B6ED6
:100D600035EC0BF03B50176E000E3C6E230E3B6EC5
:100D700035EC0BF03B043C10D8B4C1EF06F0C4EFE7
:100D800006F0010EC5EF06F0000E196E000E3C6E67
:100D9000220E3B6E35EC0BF0175018C048F0496A34
:100DA0004826000E49223B50481809E13C5049189A
:100DB000D8B4DDEF06F0DFEF06F0EFEF06F0000E3F
:100DC000466E320E456E000E476EECEC0AF0000ED9
:100DD000466E640E456E010E476EECEC0AF0000E96
:100DE0003C6E000E3B6E35EC0BF07F0E3B14406EFC
:100DF000416A7BEC0BF040504110D8B402EF07F091
:100E000004EF07F016EF07F0000E3C6E000E3B6E8D
:100E100035EC0BF07F0E3B14406E416A7BEC0BF01F
:100E200040C04AF041C04BF01AEF07F0000E4B6E85
:100E3000000E4A6E000E436E000E426E4AC03CF039
:100E40004BC03DF0E3EC09F03C5008EC0CF0000E18
:100E50003C6E010E3B6E35EC0BF07F0E3B14406E8A
:100E6000416A7BEC0BF040504110D8B43AEF07F0E8
:100E70003CEF07F04EEF07F0000E3C6E010E3B6EAC
:100E800035EC0BF07F0E3B14406E416A7BEC0BF0AF
:100E900040C04CF041C04DF052EF07F0000E4D6ED7
:100EA0002D0E4C6E000E436E010E426E4CC03CF097
:100EB0004DC03DF0E3EC09F03C5008EC0CF0000EA6
:100EC0003C6E020E3B6E35EC0BF07F0E3B14406E19
:100ED000416A7BEC0BF040504110D8B472EF07F040
:100EE00074EF07F086EF07F0000E3C6E020E3B6ECB
:100EF00035EC0BF07F0E3B14406E416A7BEC0BF03F
:100F000040C04EF041C04FF08AEF07F0000E4F6E28
:100F10000F0E4E6E000E436E020E426E4EC03CF03F
:100F20004FC03DF0E3EC09F03C5008EC0CF012002F
:100F30002FBEA6EF07F02F5007E1080E2E5CD8B0A9
:100F4000A4EF07F0A6EF07F0BAEF07F02EC030F0DD
:100F5000010E316E302AAFEF07F0D8903136302EC7
:100F6000ADEF07F031508014326E32502E6E2F6A82
:100F70004CEF08F02FBEC8EF07F02F5007E1100E1E
:100F80002E5CD8B0C6EF07F0C8EF07F0DEEF07F031
:100F90002EC030F0F80E3026010E316E302AD3EF1D
:100FA00007F0D8903136302ED1EF07F03150811450
:100FB000326E32502E6E2F6A4CEF08F02FBEECEFDF
:100FC00007F02F5007E1180E2E5CD8B0EAEF07F0BB
:100FD000ECEF07F002EF08F02EC030F0F00E3026F4
:100FE000010E316E302AF7EF07F0D8903136302EEF
:100FF000F5EF07F031508214326E32502E6E2F6AA8
:101000004CEF08F02FBE10EF08F02F5007E1200E34
:101010002E5CD8B00EEF08F010EF08F026EF08F0C5
:101020002EC030F0E80E3026010E316E302A1BEF54
:1010300008F0D8903136302E19EF08F03150831473
:10104000326E32502E6E2F6A4CEF08F02FBE34EF06
:1010500008F02F5007E1280E2E5CD8B032EF08F0D0
:1010600034EF08F04AEF08F02EC030F0E00E3026E2
:10107000010E316E302A3FEF08F0D8903136302E15
:101080003DEF08F031508414326E32502E6E2F6ACC
:101090004CEF08F02E682F6812003DBE54EF08F0A8
:1010A00052EF08F05BEF08F03C6C3D1ED8B03D2AD3
:1010B0002D0EAFEC0CF0FF0E3E24446E456AFF0E81
:1010C000452245BE68EF08F066EF08F06AEF08F0C9
:1010D000B0EF08F0000E436E010E426E000E416E3E
:1010E000000E406E84EF08F042C036F043C037F087
:1010F000000E396E0A0E386E8CEC0CF036C042F0E1
:1011000037C043F0404A412A4450405C4150800A75
:101110003F6E4550800A3F58D8A091EF08F093EFFA
:1011200008F074EF08F042C030F043C031F03CC02A
:101130002EF03DC02FF0B1EC08F02EC036F02FC0DD
:1011400037F0000E396E0A0E386E13EC09F0365087
:10115000300FAFEC0CF04406D8A0450661EF08F064
:101160001200000E336E31BEBAEF08F0B8EF08F08F
:10117000C0EF08F0306C311ED8B0312A010E336E4A
:101180002FBEC7EF08F0C5EF08F0CDEF08F02E6CCA
:101190002F1ED8B02F2A010E331A000E356E000E06
:1011A000346E30503110D8B4D8EF08F0DAEF08F0D0
:1011B00002EF09F0010E326EE2EF08F0D8903036FF
:1011C0003136322A31AEE7EF08F0E9EF08F0DEEF12
:1011D00008F0D8903436353630502E5C31502F58C8
:1011E000D8A0F5EF08F0F7EF08F0FCEF08F030506A
:1011F0002E5E31502F5A3480D89031323032322E18
:10120000E9EF08F03350D8B408EF09F00AEF09F01D
:101210000EEF09F0346C351ED8B0352A34C02EF0EC
:1012200035C02FF01200000E3B6E37BE1CEF09F0E8
:101230001AEF09F022EF09F0366C371ED8B0372AC2
:10124000010E3B6E39BE29EF09F027EF09F02DEFB3
:1012500009F0386C391ED8B0392A38503910D8B452
:1012600034EF09F036EF09F05AEF09F0010E3A6E4B
:101270003EEF09F0D890383639363A2A39AE43EF86
:1012800009F045EF09F03AEF09F03850365C395073
:101290003758D8A04EEF09F050EF09F054EF09F09D
:1012A0003850365E3950375AD890393238323A2E63
:1012B00045EF09F03B50D8B460EF09F062EF09F058
:1012C00066EF09F0366C371ED8B0372A36C036F0D4
:1012D00037C037F012009590959E959C959A9598F9
:1012E0009594000E316E36EC0CF0312A060E316406
:1012F0007CEF09F07EEF09F073EF09F0000E2E6E1F
:10130000300EA7EC09F036EC0CF0000E2E6E300E0D
:10131000A7EC09F036EC0CF0000E2E6E300EA7ECA8
:1013200009F036EC0CF0000E2E6E200EA7EC09F042
:1013300036EC0CF0280E11EC0BF0060E11EC0BF055
:101340000C0E11EC0BF0010E11EC0BF012002F6ED5
:101350002E50D8B4AEEF09F0B0EF09F0B3EF09F0BA
:101360008380B4EF09F083902FAEB9EF09F0BBEFA3
:1013700009F0BEEF09F08384BFEF09F083942FAC2E
:10138000C4EF09F0C6EF09F0C9EF09F08388CAEF8E
:1013900009F083982FAACFEF09F0D1EF09F0D4EF2D
:1013A00009F0838AD5EF09F0839A2FA8DAEF09F0C4
:1013B000DCEF09F0DFEF09F0838CE0EF09F0839CAC
:1013C00002EC0DF012003CC02EF03DC02FF0000EDC
:1013D000316E0A0E306EB1EC08F02EC03EF02FC018
:1013E0003FF03E3A3F3AF00E3F163E500F0B3F1291
:1013F000F00E3E163CC036F03DC037F0000E396EA0
:101400000A0E386E13EC09F036503E24406E375009
:101410003F20416E800E40103C6E41503D6E3CC0FE
:101420003CF03DC03DF01200376E3750D8B41BEF92
:101430000AF01DEF0AF01FEF0AF058EC0BF0000E57
:10144000386E36BE26EF0AF029EF0AF0010E2AEFB9
:101450000AF0000E44EC0AF0D8903636382A070E0F
:10146000386435EF0AF037EF0AF021EF0AF0EFECBD
:101470000BF03550D8B43FEF0AF041EF0AF043EFDC
:101480000AF01FEC0CF01200346E3450D8B44BEF5D
:101490000AF04DEF0AF051EF0AF09CEC0BF053EF1D
:1014A0000AF04DEC0CF008EC0DF0B8EC0BF0000974
:1014B000D8B45DEF0AF05FEF0AF055EF0AF0345050
:1014C000D8B465EF0AF067EF0AF069EF0AF09CEC18
:1014D0000BF008EC0DF062EC0CF008EC0DF01200D3
:1014E000F00EF66E190EF76E000EF86E00EE60F05C
:1014F00010EE0CF00900F5CFEEFFE550E150FAE1F7
:10150000FC0EF66E190EF76E000EF86E00EE52F03D
:1015100010EE07F00900F5CFEEFFE550E150FAE1DB
:1015200000EE01F02D0EEE6AE806FDE1000EF86E09
:101530000001C5EF0AF0376E000E3A6E000E396EEC
:10154000000E386EEFEC0BF0366E3A503A2436103F
:101550003A6E384A392A395009E1080E385CD8A069
:10156000B4EF0AF0B6EF0AF0A2EF0AF0375044ECFD
:101570000AF03550D8B4BFEF0AF0C1EF0AF0C3EF5C
:101580000AF01FEC0CF03A501200F1EC0CF005ECF4
:101590000DF09FEC0CF0BEEC0CF0000E926E000E05
:1015A000806E000E896EE2EC0CF06BEC09F0D4EC6E
:1015B0000BF02EC050F02FC051F0800E11EC0BF04C
:1015C00050C03CF051C03DF0050E3E6E4DEC08F0B1
:1015D000D7EF0AF000EF00F04704D8A4F2EF0AF0CA
:1015E000F4EF0AF0FFEF0AF045C018F0000E436E6A
:1015F000200E426E185008EC0CF008EF0BF045C0BE
:1016000017F0000E436E210E426E175008EC0CF0DE
:10161000000E436E220E426E1850172408EC0CF098
:101620001200306E000E2E6E3050A7EC09F0000E46
:101630002E6E3038F00BA7EC09F0020E3018D8B43B
:1016400024EF0BF026EF0BF02EEF0BF03004D8A4B4
:101650002CEF0BF02EEF0BF032EF0BF036EC0CF022
:1016600034EF0BF0CBEC0CF01200000E356EDE0EFA
:10167000366E010E14EC0AF0000E356E3BC036F0EB
:10168000000E14EC0AF0000E356EDF0E366E010E01
:1016900014EC0AF0010E356E010E9BEC0AF03D6E63
:1016A0003D503E6E3F6A3EC03BF03FC03CF01200F2
:1016B0002250D8B45EEF0BF060EF0BF070EF0BF040
:1016C0009CEC0BF008EC0DF0B8EC0BF00009D8B472
:1016D0006CEF0BF06EEF0BF064EF0BF008EC0DF01D
:1016E0009CEC0BF04DEC0CF008EC0DF062EC0CF007
:1016F000010E226E12000F0E4014426E000E4114B5
:10170000436E000E316E100E306E40C02EF041C0A0
:101710002FF0B1EC08F02EC036F02FC037F0000EDD
:10172000396E0A0E386E8CEC0CF042503624406E46
:1017300043503720416E1200000E2F6E080E2E6EA1
:10174000000E316E010E306E77EC05F0000E2F6E3C
:10175000080E2E6E98EC07F02E502F10D8A4B3EF81
:101760000BF0B6EF0BF0010EB7EF0BF0000E12000E
:10177000000E2F6E090E2E6E000E316E010E306EB1
:1017800077EC05F0000E2F6E090E2E6E98EC07F028
:101790002E502F10D8A4CFEF0BF0D2EF0BF0010E8C
:1017A000D3EF0BF0000E1200090EC16EC282C2B25E
:1017B000DCEF0BF0DEEF0BF0D7EF0BF0C4CF30F027
:1017C000316A3050316E306AC3503026000E3122FB
:1017D0000F0EC16E30C02EF031C02FF012009CEC05
:1017E0000BF008EC0DF0B8EC0BF00009D8B4FBEFEF
:1017F0000BF0FDEF0BF0F3EF0BF09CEC0BF0346E05
:1018000008EC0DF062EC0CF008EC0DF03450120016
:10181000446E000E356EDE0E366E010E14EC0AF0CC
:10182000000E356E42C036F0000E14EC0AF0010EC8
:10183000356E44C036F0000E14EC0AF012004DEC88
:101840000CF008EC0DF0B8EC0BF00009D8B42BEF5D
:101850000CF02DEF0CF023EF0CF008EC0DF09CECED
:101860000BF008EC0DF0000E226E1200000E2E6E32
:10187000000E2F6E2F2AB10E2F6441EF0CF043EFB4
:101880000CF03AEF0CF02E2A130E2E644AEF0CF0F7
:101890004CEF0CF038EF0CF01200000E2F6E080E1B
:1018A0002E6E000E316E000E306E77EC05F0000EDD
:1018B0002F6E080E2E6E000E316E000E306E50EC44
:1018C00004F01200000E2F6E090E2E6E000E316E07
:1018D000000E306E77EC05F0000E2F6E090E2E6EA6
:1018E000000E316E000E306E50EC04F01200000E4F
:1018F0002F6E080E2E6E000E316E010E306E77ECDC
:1019000005F0000E2F6E090E2E6E000E316E010EC8
:10191000306E77EC05F0120036503802F3CF3AF013
:10192000F4CF3BF036503902F3503B2637503802A3
:10193000F3503B263AC036F03BC037F012009EEC25
:1019400006F0050EEAEC0CF0D7EC0CF0000E066E7B
:10195000000E076E000E086E000E096E1200306E4B
:10196000010E2E6E3050A7EC09F0010E2E6E3038AD
:10197000F00BA7EC09F0CBEC0CF012002C0EAC6EC7
:10198000900EAB6E080EB86E000EB06E220EAF6EEB
:10199000948C948E1200000E2E6E2E2A430E2E640E
:1019A000D4EF0CF0D6EF0CF0CDEF0CF01200F1EC10
:1019B0000CF0000E156E000E146E000E116E010E6E
:1019C000106E12009680150EC26E0F0EC16EAA0E1A
:1019D000C06E1200316E31C01AF0010E11EC0BF026
:1019E00012009368F19E0E0EC16E000E636E12001F
:1019F000734373435333533363830000020305047B
:031A000001620080
:0E1A0400838E839E120077EC0CF0120012000D
:020000040030CA
:08000000000C1F1EFF8381FFAD
:00000001FF
