:04000000DFEF19F025
:10080000003F065B4F666D7D077F6F777C395E79B1
:1008100071456E676C69736820202020202020209D
:100820002000506F7274756775657320202020203A
:100830002020004368616E67652074696D65202023
:100840002020004368616E676520616C61726D20D5
:10085000202000416C74657261722074656D706F48
:10086000202000416C7465726172206964696F6D4B
:10087000612000416C746572617220616C61726DFF
:1008800065200054454D5045524154555241212157
:100890002121004368616E6765206C616E67756138
:1008A000676500202020202020202020202000001C
:1008B000EFEC15F083EC11F04F6E060E4F18D8A434
:1008C00064EF04F066EF04F06FEF04F0010E000136
:1008D0006027000E61236223632378EF04F0000E8B
:1008E0000001606F000E616F000E626F000E636F9B
:1008F000B80E601909E10B0E611962116311D8A4D9
:1009000084EF04F086EF04F035EF07F0080E21ECD9
:100910001CF035EF07F04F50D8A491EF04F093EF9F
:1009200004F0A3EF04F0000E026E000E016E1CEC4A
:100930001BF0FF0E0124186EFF0E0220196E000E30
:100940001A6E50EC19F04F04D8A4A9EF04F0ABEFE5
:1009500004F0BBEF04F0000E026E000E016E1CEC02
:100960001BF0010E0124186E000E0220196E000EFD
:100970001A6E50EC19F0020E4F18D8A4C2EF04F012
:10098000C4EF04F0C7EF04F0030E21EC1CF0030EDB
:100990004F18D8A4CEEF04F0D0EF04F0D3EF04F05A
:1009A000010E21EC1CF0040E4F18D8A4DAEF04F06D
:1009B000DCEF04F05DEF07F0080E21EC1CF0000EF8
:1009C0000001C06F5DEF07F04F50D8A4EAEF04F0CC
:1009D000ECEF04F0FCEF04F0000E026E010E016E6D
:1009E0001CEC1BF0FF0E0124186EFF0E0220196E86
:1009F000010E1A6E50EC19F04F04D8A402EF05F066
:100A000004EF05F014EF05F0000E026E010E016E0A
:100A10001CEC1BF0010E0124186E000E0220196E52
:100A2000010E1A6E50EC19F0020E4F18D8A41BEFED
:100A300005F01DEF05F020EF05F0000E21EC1CF095
:100A4000030E4F18D8A427EF05F029EF05F02CEF7F
:100A500005F0070E21EC1CF0040E4F18D8A433EF5C
:100A600005F035EF05F05DEF07F0080E21EC1CF006
:100A7000010E0001C06F5DEF07F0020E4F18D8A401
:100A800044EF05F046EF05F049EF05F0010E21ECCB
:100A90001CF0030E4F18D8A450EF05F052EF05F0EC
:100AA00055EF05F0020E21EC1CF0040E4F18D8A4EF
:100AB0005CEF05F05EEF05F064EF05F0080E21EC49
:100AC0001CF0070E0001C06F4F50D8A46AEF05F06C
:100AD0006CEF05F072EF05F046EC1CF03B6E3B2826
:100AE000EAEC1BF04F04D8A478EF05F07AEF05F09C
:100AF0005DEF07F046EC1CF03B6E3B04EAEC1BF0AC
:100B00005DEF07F04F50D8A488EF05F08AEF05F0AD
:100B100097EF05F0020EEEEC13F0FF0E17241A6E9D
:100B2000FF0E18201B6E020E1C6E77EC15F04F04A2
:100B3000D8A49DEF05F09FEF05F0ACEF05F0020E95
:100B4000EEEC13F0010E17241A6E000E18201B6E27
:100B5000020E1C6E77EC15F0020E4F18D8A4B3EFFE
:100B600005F0B5EF05F0B8EF05F0070E21EC1CF02D
:100B7000030E4F18D8A4BFEF05F0C1EF05F0C4EF86
:100B800005F0030E21EC1CF0040E4F18D8A4CBEF97
:100B900005F0CDEF05F05DEF07F0080E21EC1CF03D
:100BA000020E0001C06F5DEF07F04F50D8A4DBEFDD
:100BB00005F0DDEF05F0EAEF05F0010EEEEC13F0C5
:100BC000FF0E17241A6EFF0E18201B6E010E1C6EEE
:100BD00077EC15F04F04D8A4F0EF05F0F2EF05F034
:100BE000FFEF05F0010EEEEC13F0010E17241A6E64
:100BF000000E18201B6E010E1C6E77EC15F0020E15
:100C00004F18D8A406EF06F008EF06F00BEF06F039
:100C1000020E21EC1CF0030E4F18D8A412EF06F0C0
:100C200014EF06F017EF06F0040E21EC1CF0040E92
:100C30004F18D8A41EEF06F020EF06F05DEF07F086
:100C4000080E21EC1CF0D0EF05F04F50D8A42BEF8C
:100C500006F02DEF06F040EF06F034EC1CF001C07A
:100C60004AF002C04BF020EE01F04A50D9264B501A
:100C7000DA22DF064AC01DF04BC01EF026EC17F04A
:100C80004F04D8A446EF06F048EF06F075EF06F0E3
:100C900034EC1CF001C04CF002C04DF020EE01F02D
:100CA0004C50D9264D50DA22DF2A20EE01F04C506C
:100CB000D9264D50DA22090EDF6461EF06F063EFAA
:100CC00006F06FEF06F020EE01F04C50D9264D50A3
:100CD000DA22DF6A4CC0D9FF4DC0DAFFDF2A4CC0F0
:100CE0001DF04DC01EF026EC17F0020E4F18D8A4D0
:100CF0007CEF06F07EEF06F081EF06F0030E21ECAC
:100D00001CF0030E4F18D8A488EF06F08AEF06F007
:100D10008DEF06F0050E21EC1CF0040E4F18D8A440
:100D200094EF06F096EF06F05DEF07F0080E21EC69
:100D30001CF0D0EF05F04F50D8A4A1EF06F0A3EFC0
:100D400006F0B0EF06F0040EEEEC13F0FF0E1724E1
:100D50001A6EFF0E18201B6E040E1C6E77EC15F039
:100D60004F04D8A4B6EF06F0B8EF06F0C5EF06F0D2
:100D7000040EEEEC13F0010E17241A6E000E18206C
:100D80001B6E040E1C6E77EC15F0020E4F18D8A4E3
:100D9000CCEF06F0CEEF06F0D1EF06F0040E21EC1A
:100DA0001CF0030E4F18D8A4D8EF06F0DAEF06F0C7
:100DB000DDEF06F0000E21EC1CF0040E4F18D8A455
:100DC000E4EF06F0E6EF06F05DEF07F0080E21EC29
:100DD0001CF0D0EF05F0040E4F18D8A4F2EF06F087
:100DE000F4EF06F0F8EF06F00001C05121EC1CF022
:100DF0004F50D8A4FEEF06F000EF07F05DEF07F0CC
:100E0000010EEEEC13F0010E17241A6E000E1820DE
:100E10001B6E010E1C6E77EC15F05DEF07F060C0E5
:100E200001F061C002F062C003F063C004F02C0E58
:100E3000056E010E066E000E076E000E086EDDECEC
:100E400017F004500310021007E1960E015CD8B0B1
:100E50002CEF07F02EEF07F031EF07F089685DEF18
:100E600007F0000E896E5DEF07F039EC1CF0000A08
:100E7000D8B48BEF04F0010AD8B4E4EF04F0030A0D
:100E8000D8B482EF05F0010AD8B4D5EF05F0070A0F
:100E9000D8B425EF06F0010AD8B49BEF06F0020A99
:100EA000D8B43DEF05F00F0AD8B4EBEF06F0010A15
:100EB000D8B40FEF07F05DEF07F0050E4F18D8A478
:100EC00064EF07F066EF07F0ABEF08F044EC1CF0BE
:100ED0004E6E91EF08F04E50D96EDA6A030ED926A5
:100EE000DF503B6ED00E3B24096E0A6AFF0E0A22C9
:100EF000000E0C6E640E0B6E9CEC1BF009C040F0F3
:100F00000AC041F04E50D96EDA6A040ED926DF507D
:100F10003B6ED00E3B24096E0A6AFF0E0A22000EB9
:100F20000C6E0A0E0B6E9CEC1BF0095040260A500A
:100F300041224E50D96EDA6A050ED926DF503B6E3B
:100F4000D00E3B243C6E3D6AFF0E3D223C504026B5
:100F50003D50412240C018F041C019F0000E1A6EF9
:100F600050EC19F04E50D96EDA6A030ED926DF50D4
:100F70003B6ED00E3B24096E0A6AFF0E0A22000E59
:100F80000C6E640E0B6E9CEC1BF009C042F00AC0A4
:100F900043F04E50D96EDA6A040ED926DF503B6E0C
:100FA000D00E3B24096E0A6AFF0E0A22000E0C6E58
:100FB0000A0E0B6E9CEC1BF0095042260A5043228D
:100FC0004E50D96EDA6A050ED926DF503B6ED00E30
:100FD0003B243C6E3D6AFF0E3D223C5042263D5074
:100FE000432242C018F043C019F0010E1A6E50ECB3
:100FF00019F013EF08F04E50D96EDA6A020ED926B6
:10100000DF50480AD8B4B2EF07F0040AD8B46BEF47
:1010100007F0240AD8B4B2EF07F0040AD8B46BEF93
:1010200007F013EF08F04E50D96EDA6A020ED92697
:10103000DF503B6ED00E3B24096E0A6AFF0E0A2277
:10104000000E0C6E0A0E0B6E9CEC1BF009C046F0F5
:101050000AC047F04E50D96EDA6A030ED926DF5027
:101060003B6ED00E3B243C6E3D6AFF0E3D223C5051
:1010700046263D50472247BE49EF08F0475007E15A
:10108000180E465CD8B047EF08F049EF08F051EF72
:1010900008F046C01AF047C01BF0020E1C6E77EC39
:1010A00015F04E50D96EDA6A040ED926DF503B6E29
:1010B000D00E3B24096E0A6AFF0E0A22000E0C6E47
:1010C0000A0E0B6E9CEC1BF009C048F00AC049F0F8
:1010D0004E50D96EDA6A050ED926DF503B6ED00E1F
:1010E0003B243C6E3D6AFF0E3D223C5048263D505D
:1010F000492249BE87EF08F0495007E13C0E485CA1
:10110000D8B085EF08F087EF08F0A9EF08F048C0E5
:101110001AF049C01BF0010E1C6E77EC15F0A9EF18
:1011200008F04E50D96EDA6A010ED926DF50480A0F
:10113000D8B413EF08F01C0AD8B4FBEF07F03C0A50
:10114000D8B413EF08F01C0AD8B4FBEF07F0A9EFEE
:1011500008F0BFEC1AF02FEC1CF001C044F002C004
:1011600045F039EC1CF0090AD8B4B9EF08F0BBEF30
:1011700008F0E8EF08F0000E026E000E016E1CECA5
:101180001BF00150445C4550800A3B6E0250800ABF
:101190003B58D8A0CEEF08F0D0EF08F0E5EF08F00C
:1011A000000E026E010E016E1CEC1BF04450015C3F
:1011B0000250800A3B6E4550800A3B58D8B0E3EF9E
:1011C00008F0E5EF08F0E8EF08F0090E21EC1CF05C
:1011D00046EC1CF03B6E3B503E6E3F6A39EC1CF017
:1011E0003B6E3B50246E256A3EC026F03FC027F080
:1011F000FBEC08F01200020E24182510D8A403EF0F
:1012000009F005EF09F044EF09F0800E75EC19F0D4
:101210002450020DF350C80F2624D96EDA6ADF502D
:10122000046E74EC1AF0C00E75EC19F03E0EC0ECB2
:101230001BF0020EEEEC13F017C01AF018C01BF0F2
:10124000020E1C6E60EC16F03A0EC0EC1BF0010EA4
:10125000EEEC13F017C01AF018C01BF0020E1C6E53
:1012600060EC16F03A0EC0EC1BF0000EEEEC13F042
:1012700017C01AF018C01BF0020E1C6E60EC16F0BE
:10128000A30E046E74EC1AF0030E24182510D8A4D3
:101290004CEF09F04EEF09F08DEF09F0800E75EC80
:1012A00019F02450020DF350C80F2624D96EDA6AC3
:1012B000DF50046E74EC1AF0C00E75EC19F0020EDB
:1012C000EEEC13F017C01AF018C01BF0020E1C6EE3
:1012D00060EC16F03A0EC0EC1BF03E0EC0EC1BF0BA
:1012E000010EEEEC13F017C01AF018C01BF0020E3E
:1012F0001C6E60EC16F03A0EC0EC1BF0000EEEEC2B
:1013000013F017C01AF018C01BF0020E1C6E60EC30
:1013100016F0A30E046E74EC1AF0040E24182510B7
:10132000D8A495EF09F097EF09F004EF0AF0800ECA
:1013300075EC19F02650CE0FD96EDA6ADF50046EC4
:1013400074EC1AF0C00E75EC19F03E0EC0EC1BF0F8
:10135000000E0F6E040E0E6E99EC19F00E50136E07
:10136000146A00EC1AF013C028F014C029F02850B9
:101370002910D8A4BEEF09F0C0EF09F0CCEF09F0B6
:10138000010E28241A6E000E29201B6E020E1C6E00
:1013900060EC16F0D4EF09F028C01AF029C01BF059
:1013A000020E1C6E60EC16F02F0EC0EC1BF0000E4F
:1013B0000F6E050E0E6E99EC19F00E50136E146A36
:1013C00000EC1AF013C01AF014C01BF0020E1C6ED1
:1013D00060EC16F02F0EC0EC1BF0000E0F6E060E28
:1013E0000E6E99EC19F00E50136E146A00EC1AF0A0
:1013F00013C01AF014C01BF0020E1C6E60EC16F045
:10140000A30E046E74EC1AF0050E24182510D8A44F
:101410000CEF0AF00EEF0AF062EF0AF0800E75ECA6
:1014200019F02650CE0FD96EDA6ADF50046E74ECD4
:101430001AF0C00E75EC19F0000E0F6E040E0E6E51
:1014400099EC19F00E50136E146A00EC1AF013C0E8
:101450001AF014C01BF0020E1C6E60EC16F02F0E7A
:10146000C0EC1BF03E0EC0EC1BF0000E0F6E050E24
:101470000E6E99EC19F00E50136E146A00EC1AF00F
:1014800013C01AF014C01BF0020E1C6E60EC16F0B4
:101490002F0EC0EC1BF0000E0F6E060E0E6E99ECB8
:1014A00019F00E50136E146A00EC1AF013C01AF003
:1014B00014C01BF0020E1C6E60EC16F0A30E046E3E
:1014C00074EC1AF024502510D8A469EF0AF06BEFE1
:1014D0000AF0ACEF0AF0800E75EC19F02450020D02
:1014E000F350C80F2624D96EDA6ADF50046E74EC0C
:1014F0001AF0C00E75EC19F03E0EC0EC1BF0000E99
:10150000026E000E016E1CEC1BF001C01AF002C04E
:101510001BF0030E1C6E60EC16F04C0EC0EC1BF0C2
:10152000AB0E046E74EC1AF0200EC0EC1BF0000E33
:10153000026E010E016E1CEC1BF001C01AF002C01D
:101540001BF0030E1C6E60EC16F0480EC0EC1BF096
:10155000A30E046E74EC1AF024042510D8A4B3EF83
:101560000AF0B5EF0AF0F6EF0AF0800E75EC19F00C
:101570002450020DF350C80F2624D96EDA6ADF50CA
:10158000046E74EC1AF0C00E75EC19F0200EC0EC6D
:101590001BF0000E026E000E016E1CEC1BF001C071
:1015A0001AF002C01BF0030E1C6E60EC16F04C0E1D
:1015B000C0EC1BF0AB0E046E74EC1AF03E0EC0ECE7
:1015C0001BF0000E026E010E016E1CEC1BF001C040
:1015D0001AF002C01BF0030E1C6E60EC16F0480EF1
:1015E000C0EC1BF0A30E046E74EC1AF0070E241866
:1015F0002510D8A4FEEF0AF000EF0BF02AEF0BF055
:10160000800E75EC19F02650D00FD96EDA6ADF50D3
:10161000046E74EC1AF0C00E75EC19F046EC1CF078
:101620000009D8A416EF0BF018EF0BF01CEF0BF02D
:10163000220E046E74EC1AF046EC1CF0E806D8A4F6
:1016400024EF0BF026EF0BF02AEF0BF0110E046ED7
:1016500074EC1AF0080E24182510D8A432EF0BF001
:1016600034EF0BF0EAEF0BF0800E75EC19F0020E80
:10167000EEEC13F017C01AF018C01BF0020E1C6E2F
:1016800060EC16F03A0EC0EC1BF0010EEEEC13F01D
:1016900017C01AF018C01BF0020E1C6E60EC16F09A
:1016A000AB0E046E74EC1AF0000E0F6E040E0E6E8C
:1016B00099EC19F00E50136E146A00EC1AF013C076
:1016C0002AF014C02BF02A502B10D8A46AEF0BF08C
:1016D0006CEF0BF078EF0BF0010E2A241A6E000E5F
:1016E0002B201B6E020E1C6E60EC16F080EF0BF0D0
:1016F0002AC01AF02BC01BF0020E1C6E60EC16F014
:101700002F0EC0EC1BF0000E0F6E050E0E6E99EC46
:1017100019F00E50136E146A00EC1AF013C01AF090
:1017200014C01BF0020E1C6E60EC16F02F0EC0EC05
:101730001BF0000E0F6E060E0E6E99EC19F00E5097
:10174000136E146A00EC1AF013C01AF014C01BF0E8
:10175000020E1C6E60EC16F0C00E75EC19F04C0E0B
:10176000C0EC1BF0000E026E000E016E1CEC1BF0B4
:1017700001C01AF002C01BF0030E1C6E60EC16F0E4
:10178000200EC0EC1BF0200EC0EC1BF0480EC0EC8D
:101790001BF0000E026E010E016E1CEC1BF001C06E
:1017A0001AF002C01BF0030E1C6E60EC16F0200E47
:1017B000C0EC1BF0200EC0EC1BF0540EC0EC1BF074
:1017C0002FEC1CF001C01AF002C01BF0030E1C6EBF
:1017D00060EC16F0090E24182510D8A4F2EF0BF0D7
:1017E000F4EF0BF002EF0CF0800E75EC19F0830EA5
:1017F000046E74EC1AF0C00E75EC19F0830E046ED2
:1018000074EC1AF012001650800B1F6E165016243E
:10181000256E15AE0EEF0CF010EF0CF011EF0CF082
:1018200025802550D8B417EF0CF019EF0CF02CEFF1
:101830000CF02528D8A41FEF0CF021EF0CF029EFB5
:101840000CF0000E136E000E146E000E156E000EDE
:10185000166E158E34EF0CF0000E136E000E146E23
:10186000000E156E000E166E1A50800B1F1A1A50BD
:101870001A24246E19AE3FEF0CF041EF0CF042EF4A
:101880000CF024802450D8B448EF0CF04AEF0CF050
:101890005DEF0CF02428D8A450EF0CF052EF0CF0C0
:1018A0005AEF0CF0000E176E000E186E000E196E37
:1018B000000E1A6E198E65EF0CF0000E176E000EFA
:1018C000186E000E196E000E1A6E2450D8B46BEF0D
:1018D0000CF06DEF0CF075EF0CF02550D8A473EF01
:1018E0000CF075EF0CF07FEF0CF0000E136E000E95
:1018F000146E000E156E000E166E17EF0EF01950D6
:101900001302F3CF2AF0F4CF2BF02A50206E216A75
:10191000226A236A2B50266E276A286A296A185081
:101920001402F3CF2AF0F4CF2BF02A502026000E19
:101930002122222223222B502626000E2722282273
:10194000292217501502F3CF2AF0F4CF2BF02A509A
:101950002026000E2122222223222B502626000E92
:1019600027222822292222C023F021C022F020C0D1
:1019700021F0206A17501402F3CF2AF0F4CF2BF095
:101980002A5020262B502122000E2222000E232234
:1019900018501302F3CF2AF0F4CF2BF02A50202650
:1019A0002B502122000E2222000E232222C023F0DF
:1019B00021C022F020C021F0206A17501302F3CF7B
:1019C0002AF0F4CF2BF02A5020262B502122000E93
:1019D0002222000E232219501402F3CF2AF0F4CF52
:1019E0002BF02A5026262B502722000E2822000EEC
:1019F000292218501502F3CF2AF0F4CF2BF02A50E9
:101A000026262B502722000E2822000E29221950AC
:101A10001502F3CF2AF0F4CF2BF02A501B6E2B5077
:101A20001C6E1D6A1E6A1DC01EF01CC01DF01BC06E
:101A30001CF01B6A1B5026261C5027221D502822F2
:101A40001E50292220C01BF021C01CF022C01DF016
:101A500023C01EF0190E32EF0DF0D8901E321D3249
:101A60001C321B32E82E2DEF0DF01B5026261C5089
:101A700027221D5028221E50292222C023F021C0D7
:101A800022F020C021F0206A245025C01BF01C6ADF
:101A90001B26000E1C22820E1B242A6EFF0E1C2009
:101AA0002B6E68EF0DF0D89026362736283629366B
:101AB00023AE5DEF0DF05FEF0DF060EF0DF02680CF
:101AC000D89020362136223623362A06D8A02B0677
:101AD00028AE6DEF0DF06FEF0DF053EF0DF0000E2F
:101AE000246E23AE76EF0DF078EF0DF09CEF0DF045
:101AF000FF0E20141B6EFF0E21141C6EFF0E22140D
:101B00001D6E7F0E23141E6E1B501C101D101E1008
:101B1000D8B48DEF0DF08FEF0DF093EF0DF0010EB7
:101B2000246E9CEF0DF026A098EF0DF09AEF0DF0CB
:101B30009CEF0DF08FEF0DF02450D8B4A2EF0DF014
:101B4000A4EF0DF0C8EF0DF0010E2626000E27229F
:101B50002822292229A0AFEF0DF0B1EF0DF0C8EF38
:101B60000DF026C01BF027C01CF028C01DF029C0B6
:101B70001EF01E341E321D321C321B321BC026F0DA
:101B80001CC027F01DC028F01EC029F02A4A2B2AAD
:101B90002BBED3EF0DF02B5008E12A28D8A0D3EFAD
:101BA0000DF0D5EF0DF0DFEF0DF0000E266E000EFC
:101BB000276E800E286E7F0E296E0DEF0EF02BBE65
:101BC000ECEF0DF02B5006E12A04D8B0EAEF0DF04F
:101BD000ECEF0DF0F8EF0DF0000E266E000E276E04
:101BE000000E286E000E296E000E1F6E0DEF0EF017
:101BF0002AC025F0FF0E2616FF0E27167F0E281688
:101C0000000E291625A007EF0EF009EF0EF00AEFDF
:101C10000EF0288ED8902530296E1F50291226C02C
:101C200013F027C014F028C015F029C016F01200D8
:101C300002BE26EF0EF0025007E1080E015CD8B09C
:101C400024EF0EF026EF0EF050EF0EF003500410CC
:101C5000D8B42DEF0EF02FEF0EF03FEF0EF001C0D5
:101C600005F0010E066E052A38EF0EF0D890063604
:101C7000052E36EF0EF0065080123EEF0FF001C039
:101C800005F0010E066E052A48EF0EF0D8900636D4
:101C9000052E46EF0EF00650FF0A80163EEF0FF0BD
:101CA00002BE5EEF0EF0025007E1100E015CD8B0EC
:101CB0005CEF0EF05EEF0EF08CEF0EF0F80E0126EA
:101CC000FF0E022203500410D8B469EF0EF06BEF40
:101CD0000EF07BEF0EF001C005F0010E066E052A36
:101CE00074EF0EF0D8900636052E72EF0EF0065007
:101CF00081123EEF0FF001C005F0010E066E052ABD
:101D000084EF0EF0D8900636052E82EF0EF00650C6
:101D1000FF0A81163EEF0FF002BE9AEF0EF002505E
:101D200007E1180E015CD8B098EF0EF09AEF0EF0B4
:101D3000C8EF0EF0F00E0126FF0E02220350041031
:101D4000D8B4A5EF0EF0A7EF0EF0B7EF0EF001C07C
:101D500005F0010E066E052AB0EF0EF0D89006369B
:101D6000052EAEEF0EF0065082123EEF0FF001C0CE
:101D700005F0010E066E052AC0EF0EF0D89006366B
:101D8000052EBEEF0EF00650FF0A82163EEF0FF052
:101D900002BED6EF0EF0025007E1200E015CD8B073
:101DA000D4EF0EF0D6EF0EF004EF0FF0E80E0126A0
:101DB000FF0E022203500410D8B4E1EF0EF0E3EF5F
:101DC0000EF0F3EF0EF001C005F0010E066E052ACD
:101DD000ECEF0EF0D8900636052EEAEF0EF0065026
:101DE00083123EEF0FF001C005F0010E066E052ACA
:101DF000FCEF0EF0D8900636052EFAEF0EF00650E6
:101E0000FF0A83163EEF0FF002BE12EF0FF00250F2
:101E100007E1280E015CD8B010EF0FF012EF0FF0C1
:101E20003EEF0FF0E00E0126FF0E022203500410D9
:101E3000D8B41DEF0FF01FEF0FF02FEF0FF001C020
:101E400005F0010E066E052A28EF0FF0D890063631
:101E5000052E26EF0FF0065084123EEF0FF001C062
:101E600005F0010E066E052A38EF0FF0D890063601
:101E7000052E36EF0FF00650FF0A8416120002BE40
:101E80004DEF0FF0025007E1080E015CD8B04BEFA8
:101E90000FF04DEF0FF077EF0FF003500410D8B4B0
:101EA00054EF0FF056EF0FF066EF0FF001C005F0A2
:101EB000010E066E052A5FEF0FF0D8900636052E4C
:101EC0005DEF0FF00650921265EF10F001C005F0C3
:101ED000010E066E052A6FEF0FF0D8900636052E1C
:101EE0006DEF0FF00650FF0A921665EF10F002BE7C
:101EF00085EF0FF0025007E1100E015CD8B083EFC0
:101F00000FF085EF0FF0B3EF0FF003500410D8B4CB
:101F10008CEF0FF08EEF0FF0A0EF0FF001C005F087
:101F2000F80E0526010E066E052A99EF0FF0D890DF
:101F30000636052E97EF0FF00650931265EF10F05E
:101F400001C005F0F80E0526010E066E052AABEF5E
:101F50000FF0D8900636052EA9EF0FF00650FF0AB5
:101F6000931665EF10F002BEC1EF0FF0025007E1CB
:101F7000180E015CD8B0BFEF0FF0C1EF0FF0EFEF1C
:101F80000FF003500410D8B4C8EF0FF0CAEF0FF0F1
:101F9000DCEF0FF001C005F0F00E0526010E066E15
:101FA000052AD5EF0FF0D8900636052ED3EF0FF0A7
:101FB0000650941265EF10F001C005F0F00E0526F2
:101FC000010E066E052AE7EF0FF0D8900636052EB3
:101FD000E5EF0FF00650FF0A941665EF10F002BE11
:101FE000FDEF0FF0025007E1200E015CD8B0FBEFCF
:101FF0000FF0FDEF0FF02BEF10F003500410D8B4EA
:1020000004EF10F006EF10F018EF10F001C005F02B
:10201000E80E0526010E066E052A11EF10F0D89085
:102020000636052E0FEF10F00650951265EF10F0F2
:1020300001C005F0E80E0526010E066E052A23EF05
:1020400010F0D8900636052E21EF10F00650FF0A4A
:10205000951665EF10F002BE39EF10F0025007E15F
:10206000280E015CD8B037EF10F039EF10F065EFB3
:1020700010F003500410D8B440EF10F042EF10F00D
:1020800054EF10F001C005F0E00E0526010E066EBB
:10209000052A4DEF10F0D8900636052E4BEF10F0C4
:1020A0000650961265EF10F001C005F0E00E05260F
:1020B000010E066E052A5FEF10F0D8900636052E49
:1020C0005DEF10F00650FF0A96161200000E000198
:1020D000AC6F640EAB6F320EBE6F210EBD6F000E83
:1020E000BF6F030EB26FE80EB16F000E0F6E200EC1
:1020F0000E6E99EC19F00E50536E000E0F6E210EFD
:102100000E6E99EC19F00E50526E000E0F6E230EEB
:102110000E6E99EC19F00E040F10D8B492EF10F077
:1021200095EF10F0010E96EF10F0000E546E000EB9
:102130000F6E220E0E6E99EC19F0525053C01BF028
:102140001C6A1B26000E1C220E501B1809E10F50A2
:102150001C18D8B4AEEF10F0B0EF10F0C0EF10F0D4
:10216000000E196E000E186E000E1A6E50EC19F06B
:10217000000E196E780E186E010E1A6E50EC19F0E2
:10218000000E0F6E000E0E6E99EC19F07F0E0E14FD
:10219000136E146A00EC1AF013501410D8B4D3EF75
:1021A00010F0D5EF10F0E7EF10F0000E0F6E000EFC
:1021B0000E6E99EC19F07F0E0E14136E146A00EC7B
:1021C0001AF013C01DF014C01EF0EBEF10F0000E5B
:1021D0001E6E000E1D6E000E166E000E156E1DC0DA
:1021E0000FF01EC010F099EC18F00F50D7EC1AF059
:1021F000000E0F6E010E0E6E99EC19F07F0E0E148C
:10220000136E146A00EC1AF013501410D8B40BEFCC
:1022100011F00DEF11F01FEF11F0000E0F6E010E17
:102220000E6E99EC19F07F0E0E14136E146A00EC0A
:102230001AF013C01FF014C020F023EF11F0000EAD
:10224000206E2D0E1F6E000E166E010E156E1FC035
:102250000FF020C010F099EC18F00F50D7EC1AF0E6
:10226000000E0F6E020E0E6E99EC19F07F0E0E141A
:10227000136E146A00EC1AF013501410D8B443EF24
:1022800011F045EF11F057EF11F0000E0F6E020E36
:102290000E6E99EC19F07F0E0E14136E146A00EC9A
:1022A0001AF013C021F014C022F05BEF11F0000E01
:1022B000226E0F0E216E000E166E020E156E21C0DC
:1022C0000FF022C010F099EC18F00F50D7EC1AF074
:1022D000000E166E040E156E000E106E120E0F6EAE
:1022E00099EC18F00F50D7EC1AF0000E166E050E90
:1022F000156E000E106E0A0E0F6E99EC18F00F504E
:10230000D7EC1AF01200000E1C6E060E1B6E42EC8B
:102310001CF0196E19501E6E1F6A0001B9511E186B
:1023200009E1BA511F18D8B498EF11F09AEF11F0E3
:10233000D1EF11F01EA09FEF11F0A1EF11F0A5EF6A
:1023400011F0000E1C6E000E1B6E1EA2AAEF11F003
:10235000ACEF11F0B0EF11F0000E1C6E010E1B6E11
:102360001EA4B5EF11F0B7EF11F0BBEF11F0000EA6
:102370001C6E020E1B6E1EA6C0EF11F0C2EF11F014
:10238000C6EF11F0000E1C6E030E1B6E1EA8CBEFE5
:1023900011F0CDEF11F0D1EF11F0000E1C6E040E14
:1023A0001B6E1EC0B9F01FC0BAF032EC1BF01D6EE0
:1023B0001D500EEC1CF01D50D8B4E1EF11F0E3EF0E
:1023C00011F05DEF12F044EC1CF01A6E1A50D96E49
:1023D000DA6ADF50D8A4EFEF11F0F1EF11F04DEF12
:1023E00012F026EF12F0000E1C6E000E1B6E5DEF59
:1023F00012F0000E1C6E010E1B6E5DEF12F0000E4F
:102400001C6E020E1B6E5DEF12F0000E1C6E030EB2
:102410001B6E5DEF12F0000E1C6E040E1B6E5DEF66
:1024200012F0000E1C6E060E1B6E700E48EC1BF0B8
:102430005DEF12F0000E1C6E060E1B6E46EC1CF0DB
:10244000196E1928EAEC1BF05DEF12F01D50320AEC
:10245000D8B4F3EF11F0060AD8B4FFEF11F0010A77
:10246000D8B40BEF12F0030AD8B405EF12F00E0A3D
:10247000D8B4F9EF11F0740AD8B41AEF12F01C0AAC
:10248000D8B411EF12F03C0AD8B41AEF12F01C0ABB
:10249000D8B411EF12F05DEF12F01D5048EC1BF0B4
:1024A0000001C151D8B457EF12F059EF12F05DEFAF
:1024B00012F0000E1C6E050E1B6E1B5012000D6EEE
:1024C0000D50D8B466EF12F068EF12F08AEF12F0F8
:1024D00008BE6FEF12F06DEF12F08AEF12F005C038
:1024E00009F006C00AF007C00BF008C00CF0091E86
:1024F0000A1E0B1E0C1E092A000E0A220B220C2299
:1025000009C00FF00AC010F00BC011F00CC012F09F
:1025100092EF12F005C00FF006C010F007C011F0E6
:1025200008C012F00550061007100810D8A49BEF41
:1025300012F09DEF12F0A7EF12F0000E056E000EE4
:10254000066E000E076E000E086E38EF13F0960E42
:102550000E6EB1EF12F00E2AD890123211321032F4
:102560000F32000E0F14096E000E10140A6E000ECA
:1025700011140B6EFE0E12140C6E09500A100B1083
:102580000C10D8A4C6EF12F0C8EF12F0ABEF12F0A7
:10259000D6EF12F00E2A010E0F26000E1022112285
:1025A0001222D8901232113210320F32000E0F1454
:1025B000096E000E10140A6E000E11140B6EFF0E41
:1025C00012140C6E09500A100B100C10D8A4EBEF6B
:1025D00012F0EDEF12F0CAEF12F0F5EF12F00E0666
:1025E000D8900F3610361136123611BEFAEF12F0AF
:1025F000FCEF12F004EF13F0020E0E6002EF13F086
:1026000004EF13F0EFEF12F00EB009EF13F00BEF41
:1026100013F00CEF13F0119ED8900E320EC009F09B
:102620000A6A0B6A0C6A09C00CF00B6A0A6A096A2A
:1026300009500F120A5010120B5011120C501212A6
:102640000D50D8B426EF13F028EF13F030EF13F04D
:1026500008BE2FEF13F02DEF13F030EF13F0128EB2
:102660000FC005F010C006F011C007F012C008F04E
:10267000120002BE47EF13F0025007E1080E015CA2
:10268000D8B045EF13F047EF13F05BEF13F001C044
:1026900003F0010E046E032A50EF13F0D8900436B5
:1026A000032E4EEF13F004508014056E0550016E9A
:1026B000026AEDEF13F002BE69EF13F0025007E17A
:1026C000100E015CD8B067EF13F069EF13F07FEFE5
:1026D00013F001C003F0F80E0326010E046E032A66
:1026E00074EF13F0D8900436032E72EF13F00450F9
:1026F0008114056E0550016E026AEDEF13F002BE03
:102700008DEF13F0025007E1180E015CD8B08BEF8B
:1027100013F08DEF13F0A3EF13F001C003F0F00EF0
:102720000326010E046E032A98EF13F0D8900436A6
:10273000032E96EF13F004508214056E0550016EBF
:10274000026AEDEF13F002BEB1EF13F0025007E1A1
:10275000200E015CD8B0AFEF13F0B1EF13F0C7EF6C
:1027600013F001C003F0E80E0326010E046E032AE5
:10277000BCEF13F0D8900436032EBAEF13F00450D8
:102780008314056E0550016E026AEDEF13F002BE70
:10279000D5EF13F0025007E1280E015CD8B0D3EF5B
:1027A00013F0D5EF13F0EBEF13F001C003F0E00EE0
:1027B0000326010E046E032AE0EF13F0D8900436CE
:1027C000032EDEEF13F004508414056E0550016EE5
:1027D000026AEDEF13F0016802681200196E5AEFF9
:1027E00014F0000E0F6E000E0E6E99EC19F07F0EB5
:1027F0000E14136E146A00EC1AF013C017F014C014
:1028000018F075EF14F0000E0F6E010E0E6E99ECBD
:1028100019F07F0E0E14136E146A00EC1AF013C038
:1028200017F014C018F075EF14F0000E0F6E020EC2
:102830000E6E99EC19F07F0E0E14136E146A00ECF4
:102840001AF013C017F014C018F075EF14F0000E52
:102850000F6E040E0E6E99EC19F00E50136E146A82
:1028600000EC1AF013C017F014C018F075EF14F054
:10287000000E0F6E050E0E6E99EC19F00E50136ED1
:10288000146A00EC1AF013C017F014C018F075EFBA
:1028900014F0000E0F6E060E0E6E99EC19F00E502D
:1028A000136E146A00EC1AF013C017F014C018F07D
:1028B00075EF14F01950000AD8B4F1EF13F0010AC3
:1028C000D8B403EF14F0030AD8B415EF14F0010ADA
:1028D000D8B427EF14F0070AD8B438EF14F0010A7F
:1028E000D8B449EF14F075EF14F012002E342F34E1
:1028F000356E3550D8A47FEF14F081EF14F08BEFD4
:1029000014F0000E2C6E000E2D6E000E2E6E000EBA
:102910002F6EF8EF14F02CC030F02DC031F02EC027
:1029200032F02FC033F0200E9BEF14F0D8903332EA
:10293000323231323032E82E96EF14F03050346EAD
:102940002E8EFF0E2C16FF0E2D16FF0E2E16000ECD
:102950002F16960E355E35BEB2EF14F0B0EF14F0C0
:10296000C8EF14F03550800A970FD8B0BAEF14F0C2
:10297000BCEF14F0BEEF14F081EF14F0D8902F32BA
:102980002E322D322C32353EBEEF14F0E0EF14F033
:102990001F0E3564CEEF14F0D0EF14F0D8EF14F022
:1029A00081EF14F0D8902C362D362E362F36350682
:1029B0003550D8A4DEEF14F0E0EF14F0D2EF14F0AD
:1029C0003450D8B4E6EF14F0E8EF14F0F0EF14F060
:1029D0002F1E2E1E2D1E2C6C000E2D222E222F227D
:1029E0002CC02CF02DC02DF02EC02EF02FC02FF0BB
:1029F000120020EE09F0040EDE6AE806FDE281CF47
:102A000009F081CF0AF081CF0BF081CF0CF084CF99
:102A10000DF020EEDCF010EE04F0040EDBCFE3FF4F
:102A2000E806FCE2000E0E6E0E50090FD96EDA6A4F
:102A3000DF50016E0E50040FD96EDA6ADF50026E5D
:102A4000010E036E022A27EF15F0D8900336022EEE
:102A500025EF15F0035001140009D8A432EF15F04A
:102A600034EF15F044EF15F00EC001F0010E026EC8
:102A7000012A3DEF15F0D8900236012E3BEF15F0FC
:102A800002505D1253EF15F00EC001F0010E026E00
:102A9000012A4DEF15F0D8900236012E4BEF15F0BC
:102AA0000250FF0A5D160E2A040E0E645AEF15F04E
:102AB0005CEF15F014EF15F05D505C18D8A463EFCF
:102AC00015F065EF15F068EF15F05E066CEF15F088
:102AD0000A0E5E6E5DC05CF05E50D8A472EF15F019
:102AE00074EF15F076EF15F05CC05FF01200D3EFD5
:102AF00015F0000E166E000E156E1AC00FF01BC0FA
:102B000010F099EC18F00F50D7EC1AF0EEEF15F02A
:102B1000000E166E010E156E1AC00FF01BC010F0DD
:102B200099EC18F00F50D7EC1AF0EEEF15F0000EFC
:102B3000166E020E156E1AC00FF01BC010F099EC45
:102B400018F00F50D7EC1AF0EEEF15F0000E166EDD
:102B5000040E156E1AC00FF01BC010F099EC18F09F
:102B60000F50D7EC1AF0EEEF15F0000E166E050EB2
:102B7000156E1AC00FF01BC010F099EC18F00F5032
:102B8000D7EC1AF0EEEF15F0000E166E060E156E6D
:102B90001AC00FF01BC010F099EC18F00F50D7ECD2
:102BA0001AF0EEEF15F01C50000AD8B479EF15F0CA
:102BB000010AD8B488EF15F0030AD8B497EF15F0DE
:102BC000010AD8B4A6EF15F0070AD8B4B5EF15F08E
:102BD000010AD8B4C4EF15F0EEEF15F01200D80ECC
:102BE000176E3B0E186EA60E196E3F0E1A6E59EC3C
:102BF0001AF01A0E0124366EFF0E0220376E36C010
:102C000005F037C006F0000E06BEFF0E076E086E18
:102C1000010E5FEC12F005C013F006C014F007C0FF
:102C200015F008C016F003EC0CF013C02CF014C023
:102C30002DF015C02EF016C02FF076EC14F0505089
:102C4000020DF350600FD96EDA6A2CC0DEFF2DC082
:102C5000DDFF502A000E396E000E386E000E3A6EFF
:102C60003A50020DF350600FD96EDA6ADE50382602
:102C7000DD5039223A2A200E3A6441EF16F043EF34
:102C800016F030EF16F038C001F039C002F0000E37
:102C9000046E210E036EC4EC16F001C038F002C0C1
:102CA00039F0200E506457EF16F059EF16F05FEF31
:102CB00016F0000E506E38C0AFF039C0B0F0120000
:102CC0001BBE67EF16F065EF16F06EEF16F01A6C8C
:102CD0001B1ED8B01B2A2D0EC0EC1BF0FF0E1C24AF
:102CE000226E236AFF0E232223BE7BEF16F079EFBC
:102CF00016F07DEF16F0C3EF16F0000E216E010EF8
:102D0000206E000E1F6E000E1E6E97EF16F020C094
:102D100009F021C00AF0000E0C6E0A0E0B6E9CEC3E
:102D20001BF009C020F00AC021F01E4A1F2A2250C1
:102D30001E5C1F50800A1D6E2350800A1D58D8A0AB
:102D4000A4EF16F0A6EF16F087EF16F020C003F000
:102D500021C004F01AC001F01BC002F0C4EC16F050
:102D600001C009F002C00AF0000E0C6E0A0E0B6ED4
:102D700085EC17F00950300FC0EC1BF02206D8A0EC
:102D8000230674EF16F01200000E066E04BECDEF9F
:102D900016F0CBEF16F0D3EF16F0036C041ED8B08C
:102DA000042A010E066E02BEDAEF16F0D8EF16F016
:102DB000E0EF16F0016C021ED8B0022A010E061ACE
:102DC000000E086E000E076E03500410D8B4EBEF2F
:102DD00016F0EDEF16F015EF17F0010E056EF5EF9A
:102DE00016F0D89003360436052A04AEFAEF16F032
:102DF000FCEF16F0F1EF16F0D890073608360350C6
:102E0000015C04500258D8A008EF17F00AEF17F041
:102E10000FEF17F00350015E0450025A0780D8905C
:102E200004320332052EFCEF16F00650D8B41BEF27
:102E300017F01DEF17F021EF17F0076C081ED8B040
:102E4000082A07C001F008C002F0120020EE01F0CD
:102E50001D50D9261E50DA22DF501F6E1DC0D9FF2B
:102E60001EC0DAFFDF50206E20500A0DF3CF21F094
:102E7000F4CF22F01F5021241A6E000E22201B6E68
:102E8000040E1C6E77EC15F020EE03F01D50D926D1
:102E90001E50DA22DF501F6E20EE02F01D50D926A0
:102EA0001E50DA22DF50206E20500A0DF3CF21F0A1
:102EB000F4CF22F01F5021241A6E000E22201B6E28
:102EC000040E1C6E77EC15F020EE05F01D50D9268F
:102ED0001E50DA22DF501F6E20EE04F01D50D9265E
:102EE0001E50DA22DF50206E20500A0DF3CF21F061
:102EF000F4CF22F01F5021241A6E000E22201B6EE8
:102F0000050E1C6E77EC15F01200000E0E6E0ABE58
:102F10008EEF17F08CEF17F094EF17F0096C0A1E84
:102F2000D8B00A2A010E0E6E0CBE9BEF17F099EF77
:102F300017F09FEF17F00B6C0C1ED8B00C2A0B503B
:102F40000C10D8B4A6EF17F0A8EF17F0CCEF17F0DD
:102F5000010E0D6EB0EF17F0D8900B360C360D2A1F
:102F60000CAEB5EF17F0B7EF17F0ACEF17F00B5052
:102F7000095C0C500A58D8A0C0EF17F0C2EF17F048
:102F8000C6EF17F00B50095E0C500A5AD8900C325D
:102F90000B320D2EB7EF17F00E50D8B4D2EF17F05A
:102FA000D4EF17F0D8EF17F0096C0A1ED8B00A2A30
:102FB00009C009F00AC00AF01200055006100710F7
:102FC0000810D8B4E6EF17F0E8EF17F018EF18F094
:102FD000010E096EF2EF17F0D89005360636073667
:102FE0000836092A08AEF7EF17F0F9EF17F0ECEF03
:102FF00017F00550015C065002580750035808505E
:103000000458D8A006EF18F008EF18F010EF18F0E9
:103010000550015E0650025A0750035A0850045AE0
:10302000D8900832073206320532092EF9EF17F030
:1030300001C001F002C002F003C003F004C004F0BC
:1030400012009590959E959C959A95989594000E52
:10305000046E05EC1BF0042A060E046432EF18F02F
:1030600034EF18F029EF18F0000E016E300E5DEC11
:1030700018F005EC1BF0000E016E300E5DEC18F040
:1030800005EC1BF0000E016E300E5DEC18F005EC47
:103090001BF0000E016E200E5DEC18F005EC1BF02D
:1030A000280E75EC19F0060E75EC19F00C0E75EC87
:1030B00019F0010E75EC19F01200026E0150D8B42F
:1030C00064EF18F066EF18F069EF18F083806AEF8C
:1030D00018F0839002AE6FEF18F071EF18F074EFF4
:1030E00018F0838475EF18F0839402AC7AEF18F02F
:1030F0007CEF18F07FEF18F0838880EF18F083984A
:1031000002AA85EF18F087EF18F08AEF18F0838A8B
:103110008BEF18F0839A02A890EF18F092EF18F056
:1031200095EF18F0838C96EF18F0839C3CEC1CF024
:1031300012000FC001F010C002F0000E046E0A0E63
:10314000036EC4EC16F001C011F002C012F0113A87
:10315000123AF00E121611500F0B1212F00E111639
:103160000FC009F010C00AF0000E0C6E0A0E0B6EB4
:1031700085EC17F009501124136E0A501220146EBA
:10318000800E13100F6E1450106E0FC00FF010C091
:1031900010F012000A6E0A50D8B4D1EF18F0D3EF35
:1031A00018F0D5EF18F0BCEC19F0000E0B6E09BE4C
:1031B000DCEF18F0DFEF18F0010EE0EF18F0000E72
:1031C000FAEC18F0D89009360B2A070E0B64EBEFD7
:1031D00018F0EDEF18F0D7EF18F08EEC1AF0085059
:1031E000D8B4F5EF18F0F7EF18F0F9EF18F0EEECAF
:1031F0001AF01200076E0750D8B401EF19F003EF70
:1032000019F007EF19F021EC1AF009EF19F05DEC55
:103210001BF048EC1CF03DEC1AF00009D8B413EF99
:1032200019F015EF19F00BEF19F00750D8B41BEF98
:1032300019F01DEF19F01FEF19F021EC1AF048EC0E
:103240001CF072EC1BF048EC1CF012000A6E000E31
:103250000D6E000E0C6E000E0B6E8EEC1AF0096EE9
:103260000D500D2409100D6E0B4A0C2A0C5009E16B
:10327000080E0B5CD8A03FEF19F041EF19F02DEFCD
:1032800019F00A50FAEC18F00850D8B44AEF19F0C7
:103290004CEF19F04EEF19F0EEEC1AF00D50120051
:1032A0001A04D8A456EF19F058EF19F063EF19F08B
:1032B00018C053F0000E166E200E156E5350D7EC4A
:1032C0001AF06CEF19F018C052F0000E166E210EB5
:1032D000156E5250D7EC1AF0000E166E220E156EB7
:1032E00053505224D7EC1AF01200036E000E016EF8
:1032F00003505DEC18F0000E016E0338F00B5DEC2E
:1033000018F0020E0318D8B488EF19F08AEF19F0FC
:1033100092EF19F00304D8A490EF19F092EF19F08E
:1033200096EF19F005EC1BF098EF19F002EC1CF089
:103330001200000E086EDE0E096E010ECAEC18F0C7
:10334000000E086E0EC009F0000ECAEC18F0000E58
:10335000086EDF0E096E010ECAEC18F0010E086E41
:10336000010E26EC19F0106E1050116E126A11C089
:103370000EF012C00FF012005A50D8B4C2EF19F07C
:10338000C4EF19F0D4EF19F021EC1AF048EC1CF05E
:103390003DEC1AF00009D8B4D0EF19F0D2EF19F0D3
:1033A000C8EF19F048EC1CF021EC1AF05DEC1BF0B2
:1033B00048EC1CF072EC1BF0010E5A6E12009E0ECF
:1033C000F66E370EF76E000EF86E00EEC8F010EED7
:1033D0001BF00900F5CFEEFFE550E150FAE100EEF9
:1033E00060F0680EEE6AE806FDE100EE50F0100EA7
:1033F000EE6AE806FDE1000EF86E0001A7EF1AF094
:103400000F0E1314156E000E1414166E000E046EBB
:10341000100E036E13C001F014C002F0C4EC16F0DD
:1034200001C009F002C00AF0000E0C6E0A0E0B6E0D
:103430009CEC1BF015500924136E16500A20146ED4
:103440001200000E026E080E016E000E046E010ED8
:10345000036E3FEC0FF0000E026E080E016E39ECA9
:1034600013F001500210D8A438EF1AF03BEF1AF015
:10347000010E3CEF1AF0000E1200000E026E090E53
:10348000016E000E046E010E036E3FEC0FF0000E95
:10349000026E090E016E39EC13F001500210D8A42F
:1034A00054EF1AF057EF1AF0010E58EF1AF0000E11
:1034B0001200090EC16EC282C2B261EF1AF063EF50
:1034C0001AF05CEF1AF0C4CF03F0046A0350046EE4
:1034D000036AC3500326000E04220F0EC16E03C000
:1034E00001F004C002F012007FEF1AF004C0F6FFF2
:1034F000080EF76E0800F550C0EC1BF0042A04C05B
:10350000F6FF080EF76E0800F5500009D8A48BEFFF
:103510001AF08DEF1AF076EF1AF0120021EC1AF083
:1035200048EC1CF03DEC1AF00009D8B49AEF1AF000
:103530009CEF1AF092EF1AF021EC1AF0076E48ECAB
:103540001CF072EC1BF048EC1CF00750120028EC49
:103550001CF03FEC1CF0AFEC1BF0DDEC1BF0000EA0
:10356000926E000E896E19EC1CF021EC18F0F9EC4B
:1035700014F058EC04F0B7EF1AF000EF00F0000E72
:10358000016EC9EF1AF00150C20FD96EDA6ADF6A14
:10359000012A050E0164CFEF1AF0D1EF1AF0C3EF44
:1035A0001AF0000E0001C16F000E516E1200176E6E
:1035B000000E086EDE0E096E010ECAEC18F0000E49
:1035C000086E15C009F0000ECAEC18F0010E086E66
:1035D00017C009F0000ECAEC18F012005DEC1BF0E9
:1035E00048EC1CF03DEC1AF00009D8B4FAEF1AF0E0
:1035F000FCEF1AF0F2EF1AF048EC1CF021EC1AF094
:1036000048EC1CF0000E5A6E1200000E016E000E07
:10361000026E022AB10E026410EF1BF012EF1BF0D3
:1036200009EF1BF0012A130E016419EF1BF01BEFC9
:103630001BF007EF1BF0120001500210D8A423EF7B
:103640001BF025EF1BF02AEF1BF052C003F0046AB9
:103650002DEF1BF053C003F0046A03C001F004C057
:1036600002F01200000E016EABA239EF1BF03BEF2F
:103670001BF03DEF1BF0AB98AB889EAA42EF1BF00E
:1036800044EF1BF046EF1BF0AECF01F001501200EB
:10369000016E5150C20FD96EDA6A01C0DFFF512AA4
:1036A000060E5118D8A457EF1BF059EF1BF05CEF32
:1036B0001BF0010E0001C16F1200000E026E080E19
:1036C000016E000E046E000E036E3FEC0FF0000E54
:1036D000026E080E016E000E046E000E036E18ECF2
:1036E0000EF01200000E026E090E016E000E046E46
:1036F000000E036E3FEC0FF0000E026E090E016E1D
:10370000000E046E000E036E18EC0EF01200000E98
:10371000026E080E016E000E046E010E036E3FEC89
:103720000FF0000E026E090E016E000E046E010E07
:10373000036E3FEC0FF0120009500B02F3CF0DF0B7
:10374000F4CF0EF009500C02F3500E260A500B0273
:10375000F3500E260DC009F00EC00AF0120066EC00
:1037600010F0080E21EC1CF0F6EC1BF0000E00012E
:10377000606F000E616F000E626F000E636F1200CB
:10378000036E010E016E03505DEC18F0010E016E28
:103790000338F00B5DEC18F002EC1CF012007343E0
:1037A0007343533353336393000000000000000061
:0937B0000000020305040162009F
:1037BA002C0EAC6E900EAB6E080EB86E000EB06E8C
:1037CA00220EAF6E948C948E1200186E1850010B54
:1037DA00546E000E166E230E156E5450D7EC1AF066
:1037EA00120028EC1CF0000E0001BC6F000EBB6F2B
:1037FA00000EB86F010EB76F1200000E016E012A9B
:10380A00430E01640BEF1CF00DEF1CF004EF1CF0EB
:10381A001200016E9EA814EF1CF016EF1CF00FEFB9
:10382A001CF001C0ADFF12009680150EC26E0F0E7D
:10383A00C16EAA0EC06E1200046E04C0BFF0010E63
:10384A0075EC19F012009368F19E0E0EC16E000E0F
:10385A00636E1200AFC001F0B0C002F01200000E99
:10386A00016E000E026E12000001BF511200838E1B
:10387A00839E120087EC1BF012005F501200C20EEA
:08388A0012005450120012005C
:020000040030CA
:08000000000C1F1EFF8381FFAD
:00000001FF
