:04000000BAEF07F05C
:10080000003F065B4F666D7D077F6F777C395E79B1
:1008100071456E676C69736820202020202020209D
:100820002000506F7274756775657320202020203A
:100830002020004368616E67652074696D65202023
:100840002020004368616E676520616C61726D20D5
:10085000202000416C74657261722074656D706F48
:10086000202000416C7465726172206964696F6D4B
:10087000612000416C746572617220616C61726DFF
:100880006520004368616E6765206C616E67756105
:10089000676500202020202020202020202000002C
:1008A00027BE5EEF04F0275007E1080E265CD8B0A3
:1008B0005CEF04F05EEF04F088EF04F0285029109C
:1008C000D8B465EF04F067EF04F077EF04F026C0CA
:1008D0002AF0010E2B6E2A2A70EF04F0D8902B36E6
:1008E0002A2E6EEF04F02B50921276EF05F026C000
:1008F0002AF0010E2B6E2A2A80EF04F0D8902B36B6
:100900002A2E7EEF04F02B50FF0A921676EF05F0A8
:1009100027BE96EF04F0275007E1100E265CD8B0F2
:1009200094EF04F096EF04F0C4EF04F0285029107F
:10093000D8B49DEF04F09FEF04F0B1EF04F026C0AF
:100940002AF0F80E2A26010E2B6E2A2AAAEF04F0AE
:10095000D8902B362A2EA8EF04F02B50931276EF66
:1009600005F026C02AF0F80E2A26010E2B6E2A2A40
:10097000BCEF04F0D8902B362A2EBAEF04F02B509F
:10098000FF0A931676EF05F027BED2EF04F027504A
:1009900007E1180E265CD8B0D0EF04F0D2EF04F0D7
:1009A00000EF05F028502910D8B4D9EF04F0DBEFA0
:1009B00004F0EDEF04F026C02AF0F00E2A26010E16
:1009C0002B6E2A2AE6EF04F0D8902B362A2EE4EF7D
:1009D00004F02B50941276EF05F026C02AF0F00EAA
:1009E0002A26010E2B6E2A2AF8EF04F0D8902B3617
:1009F0002A2EF6EF04F02B50FF0A941676EF05F03E
:100A000027BE0EEF05F0275007E1200E265CD8B078
:100A10000CEF05F00EEF05F03CEF05F02850291023
:100A2000D8B415EF05F017EF05F029EF05F026C053
:100A30002AF0E80E2A26010E2B6E2A2A22EF05F054
:100A4000D8902B362A2E20EF05F02B50951276EFFA
:100A500005F026C02AF0E80E2A26010E2B6E2A2A5F
:100A600034EF05F0D8902B362A2E32EF05F02B50BC
:100A7000FF0A951676EF05F027BE4AEF05F02750DE
:100A800007E1280E265CD8B048EF05F04AEF05F0E4
:100A900076EF05F028502910D8B451EF05F053EF48
:100AA00005F065EF05F026C02AF0E00E2A26010EBB
:100AB0002B6E2A2A5EEF05F0D8902B362A2E5CEF9B
:100AC00005F02B50961276EF05F026C02AF0E00EC6
:100AD0002A26010E2B6E2A2A70EF05F0D8902B36AD
:100AE0002A2E6EEF05F02B50FF0A96161200000E0C
:100AF000316E060E306EB8EC08F02B6E2B50336E54
:100B0000346A1450331809E115503418D8B48BEFF7
:100B100005F08DEF05F0A3EF05F033A092EF05F09F
:100B200094EF05F098EF05F0000E316E000E306E78
:100B300033A29DEF05F09FEF05F0A3EF05F0000E47
:100B4000316E010E306E33C014F034C015F002EC7B
:100B500008F0326E3250D8B4B0EF05F0B2EF05F0C5
:100B60001DEF06F032507BEC08F02C0E266E18ECD0
:100B700008F02C50D8A4BFEF05F0C1EF05F009EF45
:100B800006F0EAEF05F0000E316E000E306E1DEF3C
:100B900006F0000E316E010E306E1DEF06F0000EF5
:100BA000316E020E306E1DEF06F0000E316E030E38
:100BB000306E1DEF06F0000E316E040E306E1DEF2C
:100BC00006F0000E316E060E306E700E72EC07F0FD
:100BD0001DEF06F03250300AD8B4C3EF05F0010A19
:100BE000D8B4C9EF05F0030AD8B4CFEF05F0010A75
:100BF000D8B4D5EF05F0070AD8B4DBEF05F0640AE6
:100C0000D8B4E1EF05F0200AD8B4E1EF05F01DEF0C
:100C100006F0325072EC07F01A50D8B412EF06F01A
:100C200014EF06F01DEF06F0000E316E050E306E6B
:100C30006B0E53EC08F01DEF06F030C029F031C008
:100C40002AF0120020EE2EF0040EDE6AE806FDE225
:100C500081CF2EF081CF2FF081CF30F081CF31F0D6
:100C600084CF32F020EE43F010EE29F0040EDBCFFB
:100C7000E3FFE806FCE2000E336E33502E0FD96E10
:100C8000DA6ADF50266E3350290FD96EDA6ADF50E8
:100C9000276E010E286E272A50EF06F0D8902836CE
:100CA000272E4EEF06F0285026140009D8A45BEF3B
:100CB00006F05DEF06F06DEF06F033C026F0010E92
:100CC000276E262A66EF06F0D8902736262E64EF88
:100CD00006F0275023127CEF06F033C026F0010EF9
:100CE000276E262A76EF06F0D8902736262E74EF48
:100CF00006F02750FF0A2316332A040E336483EFCD
:100D000006F085EF06F03DEF06F023502218D8A438
:100D10008CEF06F08EEF06F091EF06F0240695EFCB
:100D200006F00A0E246E23C022F02450D8A49BEFB4
:100D300006F09DEF06F09FEF06F022C025F01200AE
:100D400077EC05F029503C6EF1EF06F03C50D8A44A
:100D5000ACEF06F0AEEF06F0B4EF06F0B6EC08F03C
:100D6000356E3528A5EC08F03C04D8A4BAEF06F09F
:100D7000BCEF06F0C2EF06F0B6EC08F0356E3504B5
:100D8000A5EC08F0050E3C18D8A4C9EF06F0CBEF8F
:100D900006F0F9EF06F0730E53EC08F0360E266EEF
:100DA00018EC08F0000E3B6E000E3A6E3A50360F0B
:100DB000D96EDA6ADF5053EC08F03A4A3B2A3BBE60
:100DC000EBEF06F03B5009E1040E3A5CD8A0EBEFE4
:100DD00006F0EDEF06F0D6EF06F043EC08F0F9EF81
:100DE00006F0B4EC08F0000AD8B4A6EF06F0F9EF6C
:100DF00006F012009590959E959C959A95989594DD
:100E0000000E296ED5EC07F0292A060E29640BEF97
:100E100007F00DEF07F002EF07F0000E266E300E20
:100E200036EC07F0D5EC07F0000E266E300E36ECEF
:100E300007F0D5EC07F0000E266E300E36EC07F00A
:100E4000D5EC07F0000E266E200E36EC07F0D5EC40
:100E500007F0280E96EC07F0060E96EC07F00C0E45
:100E600096EC07F0010E96EC07F01200276E265064
:100E7000D8B43DEF07F03FEF07F042EF07F0838073
:100E800043EF07F0839027AE48EF07F04AEF07F0F3
:100E90004DEF07F083844EEF07F0839427AC53EFB8
:100EA00007F055EF07F058EF07F0838859EF07F088
:100EB000839827AA5EEF07F060EF07F063EF07F073
:100EC000838A64EF07F0839A27A869EF07F06BEF36
:100ED00007F06EEF07F0838C6FEF07F0839CAEECAA
:100EE00008F01200266E000E276E78EF07F0272A12
:100EF0002750060FD96EDA6ADF50D8A482EF07F0C8
:100F000084EF07F077EF07F02750060FD96EDA6A03
:100F100026C0DFFF030E2718D8A491EF07F093EF48
:100F200007F095EF07F0010E1A6E1200286E000E02
:100F3000266E285036EC07F0000E266E2838F00B8F
:100F400036EC07F0020E2818D8B4A9EF07F0ABEF83
:100F500007F0B3EF07F02804D8A4B1EF07F0B3EF20
:100F600007F0B7EF07F0D5EC07F0B9EF07F06FEC3B
:100F700008F01200300EF66E110EF76E000EF86ECD
:100F800000EE3DF010EE0DF00900F5CFEEFFE5505C
:100F9000E150FAE100EE01F0250EEE6AE806FDE10F
:100FA000000EF86E0001ECEF07F0000E266E000E4A
:100FB000276E272AB10E2764E0EF07F0E2EF07F073
:100FC000D9EF07F0262A130E2664E9EF07F0EBEFBE
:100FD00007F0D7EF07F0120091EC08F0FAEC06F0FA
:100FE000B1EC08F09FEC08F062EC08F0000E926E95
:100FF000000E896E22EC06F0A0EC06F0FAEF07F086
:1010000000EF00F0000E266EABA209EF08F00BEF28
:1010100008F00DEF08F0AB98AB889EAA12EF08F02D
:1010200014EF08F016EF08F0AECF26F026501200AD
:1010300025EF08F02750060FD96EDA6A26502724CC
:10104000E16EE26ADFCFE7FF272A030E27642BEF6A
:1010500008F02DEF08F01AEF08F01200000E276ECE
:10106000080E266E000E296E010E286E50EC04F05C
:10107000000E276E090E266E000E296E010E286ED8
:1010800050EC04F012004AEF08F02650060FD96E1B
:10109000DA6ADF6A030E266450EF08F052EF08F0B8
:1010A00045EF08F01200286E010E266E285036EC2F
:1010B00007F0010E266E2838F00B36EC07F06FECC7
:1010C00008F012002C0EAC6E900EAB6E080EB86ECF
:1010D000000EB06E220EAF6E948C948E1200000E35
:1010E000266E262A430E266478EF08F07AEF08F081
:1010F00071EF08F01200266E9EA881EF08F083EFD2
:1011000008F07CEF08F026C0ADFF120091EC08F06B
:10111000000E176E000E166E000E136E010E126E8C
:1011200012009368F19E0E0EC16E000E636E1200E7
:0D113000734353336383020305040162001F
:10113E00000EAAEC08F086EC08F01200266E26507F
:10114E00010B186E1200266E26C019F01200838E47
:10115E00839E12002EEC08F0120019501200185047
:06116E00120025501200E2
:020000040030CA
:08000000000C1F1EFF8381FFAD
:00000001FF
