:04000000E1EF0FF02D
:10080000003F065B4F666D7D077F6F777C395E79B1
:1008100071456E676C69736820202020202020209D
:100820002000506F7274756775657320202020203A
:100830002020004368616E67652074696D65202023
:100840002020004368616E676520616C61726D20D5
:10085000202000416C74657261722074656D706F48
:10086000202000416C7465726172206964696F6D4B
:10087000612000416C746572617220616C61726DFF
:100880006520004368616E6765206C616E67756105
:10089000676500202020202020202020202000002C
:1008A000C0EC0BF00350286E55EF06F02850D8A48A
:1008B0005CEF04F05EEF04F06EEF04F0000E026EE9
:1008C000000E016EC3EC11F0FF0E0124206EFF0E2E
:1008D0000220216E000E226E36EC10F02804D8A4FF
:1008E00074EF04F076EF04F086EF04F0000E026E71
:1008F000000E016EC3EC11F0010E0124206E000EFB
:100900000220216E000E226E36EC10F0020E281826
:10091000D8A48DEF04F08FEF04F092EF04F0030EF3
:10092000B4EC12F0030E2818D8A499EF04F09BEF52
:1009300004F09EEF04F0010EB4EC12F0040E28183F
:10094000D8A4A5EF04F0A7EF04F071EF06F0050EB0
:10095000B4EC12F0000E416E71EF06F02850D8A4EE
:10096000B4EF04F0B6EF04F0C6EF04F0000E026E30
:10097000010E016EC3EC11F0FF0E0124206EFF0E7C
:100980000220216E010E226E36EC10F02804D8A44D
:10099000CCEF04F0CEEF04F0DEEF04F0000E026EB8
:1009A000010E016EC3EC11F0010E0124206E000E49
:1009B0000220216E010E226E36EC10F0020E281875
:1009C000D8A4E5EF04F0E7EF04F0EAEF04F0000E3E
:1009D000B4EC12F0030E2818D8A4F1EF04F0F3EFF2
:1009E00004F0F6EF04F0040EB4EC12F0040E281834
:1009F000D8A4FDEF04F0FFEF04F071EF06F0050E50
:100A0000B4EC12F0010E416E71EF06F0020E2818E0
:100A1000D8A40DEF05F00FEF05F012EF05F0010E71
:100A2000B4EC12F0030E2818D8A419EF05F01BEF50
:100A300005F01EEF05F0020EB4EC12F0040E2818BB
:100A4000D8A425EF05F027EF05F02CEF05F0050EF3
:100A5000B4EC12F0040E416E2850D8A432EF05F029
:100A600034EF05F03AEF05F0C2EC12F0256E2528C0
:100A700071EC12F02804D8A440EF05F042EF05F025
:100A800071EF06F0C2EC12F0256E250471EC12F045
:100A900071EF06F02850D8A450EF05F052EF05F0A2
:100AA0006DEF05F0000E1E6E020E1D6E000E0F6E35
:100AB000020E0E6E7FEC10F07F0E0E14136E146A91
:100AC000C5EC10F0FF0E1324176EFF0E1420186EE5
:100AD00054EC0FF0175068EC11F02804D8A473EF11
:100AE00005F075EF05F090EF05F0000E1E6E020E9A
:100AF0001D6E000E0F6E020E0E6E7FEC10F07F0E5C
:100B00000E14136E146AC5EC10F0010E1324176E48
:100B1000000E1420186E54EC0FF0175068EC11F012
:100B2000020E2818D8A497EF05F099EF05F09CEF76
:100B300005F0040EB4EC12F0030E2818D8A4A3EFAD
:100B400005F0A5EF05F0A8EF05F0030EB4EC12F0E8
:100B5000040E2818D8A4AFEF05F0B1EF05F071EF3F
:100B600006F0050EB4EC12F0020E416E71EF06F0C5
:100B70002850D8A4BEEF05F0C0EF05F0DBEF05F07C
:100B8000000E1E6E010E1D6E000E0F6E010E0E6E1B
:100B90007FEC10F07F0E0E14136E146AC5EC10F08B
:100BA000FF0E1324176EFF0E1420186E54EC0FF076
:100BB000175068EC11F02804D8A4E1EF05F0E3EF3A
:100BC00005F0FEEF05F0000E1E6E010E1D6E000E0C
:100BD0000F6E010E0E6E7FEC10F07F0E0E14136E72
:100BE000146AC5EC10F0010E1324176E000E1420C9
:100BF000186E54EC0FF0175068EC11F0020E281824
:100C0000D8A405EF06F007EF06F00AEF06F0020E93
:100C1000B4EC12F0030E2818D8A411EF06F013EF6D
:100C200006F016EF06F0000EB4EC12F0040E2818D1
:100C3000D8A41DEF06F01FEF06F071EF06F0050EC9
:100C4000B4EC12F0B4EF05F0040E2818D8A42BEF82
:100C500006F02DEF06F030EF06F04150B4EC12F044
:100C60002850D8A436EF06F038EF06F071EF06F002
:100C7000000E1E6E010E1D6E000E0F6E010E0E6E2A
:100C80007FEC10F07F0E0E14136E146AC5EC10F09A
:100C9000010E1324176E000E1420186E54EC0FF082
:100CA000175068EC11F071EF06F0C4EC12F0000A76
:100CB000D8B456EF04F0010AD8B4AEEF04F0030A3A
:100CC000D8B44AEF05F0010AD8B4B8EF05F0070A26
:100CD000D8B406EF05F0010AD8B424EF06F071EF9E
:100CE00006F0050E2818D8A478EF06F07AEF06F083
:100CF0007EEF06F0C8EC12F051EC11F0C2EC12F0ED
:100D0000256E2550266E276AC4EC12F0256E2550FC
:100D1000216E226A26C023F027C024F091EC06F051
:100D20001200020E21182210D8A499EF06F09BEFB2
:100D300006F0F5EF06F0800E5BEC10F02150020D8E
:100D4000F350600F2324D96EDA6ADF50046E1EEC74
:100D500011F0C00E5BEC10F03E0E55EC12F0000EE0
:100D60000F6E020E0E6E7FEC10F07F0E0E14136EDF
:100D7000146AC5EC10F013C017F014C018F0020E7E
:100D8000196EBEEC0DF03A0E55EC12F0000E0F6E1F
:100D9000010E0E6E7FEC10F07F0E0E14136E146AAF
:100DA000C5EC10F013C017F014C018F0020E196E45
:100DB000BEEC0DF03A0E55EC12F0000E0F6E000E68
:100DC0000E6E7FEC10F07F0E0E14136E146AC5ECDD
:100DD00010F013C017F014C018F0020E196EBEEC1C
:100DE0000DF0930E046E1EEC11F0030E211822106C
:100DF000D8A4FDEF06F0FFEF06F059EF07F0800EE4
:100E00005BEC10F02150020DF350600F2324D96EDB
:100E1000DA6ADF50046E1EEC11F0C00E5BEC10F0CD
:100E2000000E0F6E020E0E6E7FEC10F07F0E0E1491
:100E3000136E146AC5EC10F013C017F014C018F04C
:100E4000020E196EBEEC0DF03A0E55EC12F03E0E8D
:100E500055EC12F0000E0F6E010E0E6E7FEC10F0CE
:100E60007F0E0E14136E146AC5EC10F013C017F049
:100E700014C018F0020E196EBEEC0DF03A0E55ECCF
:100E800012F0000E0F6E000E0E6E7FEC10F07F0E53
:100E90000E14136E146AC5EC10F013C017F014C0D2
:100EA00018F0020E196EBEEC0DF0930E046E1EECDF
:100EB00011F021502210D8A460EF07F062EF07F084
:100EC000A3EF07F0800E5BEC10F02150020DF35001
:100ED000600F2324D96EDA6ADF50046E1EEC11F025
:100EE000C00E5BEC10F03E0E55EC12F0000E026EE0
:100EF000000E016EC3EC11F001C017F002C018F033
:100F0000030E196EBEEC0DF04C0E55EC12F09B0E5C
:100F1000046E1EEC11F0200E55EC12F0000E026E65
:100F2000010E016EC3EC11F001C017F002C018F001
:100F3000030E196EBEEC0DF0480E55EC12F0930E38
:100F4000046E1EEC11F021042210D8A4AAEF07F0C1
:100F5000ACEF07F0EDEF07F0800E5BEC10F02150E6
:100F6000020DF350600F2324D96EDA6ADF50046E4D
:100F70001EEC11F0C00E5BEC10F0200E55EC12F0E0
:100F8000000E026E000E016EC3EC11F001C017F0EE
:100F900002C018F0030E196EBEEC0DF04C0E55ECAD
:100FA00012F09B0E046E1EEC11F03E0E55EC12F08A
:100FB000000E026E010E016EC3EC11F001C017F0BD
:100FC00002C018F0030E196EBEEC0DF0480E55EC81
:100FD00012F0930E046E1EEC11F0040E2118221074
:100FE000D8A4F5EF07F0F7EF07F024EF08F0800E34
:100FF0005BEC10F02150020DF350600F2324D96EEA
:10100000DA6ADF50046E1EEC11F0C00E5BEC10F0DB
:10101000C2EC12F00009D8A410EF08F012EF08F0AB
:1010200016EF08F0220E046E1EEC11F0C2EC12F066
:10103000E806D8A41EEF08F020EF08F024EF08F02F
:10104000110E046E1EEC11F0050E21182210D8A40A
:101050002CEF08F02EEF08F077EF08F0800E5BEC35
:1010600010F0000E0F6E020E0E6E7FEC10F07F0E71
:101070000E14136E146AC5EC10F013C017F014C0F0
:1010800018F0020E196EBEEC0DF03A0E55EC12F08F
:10109000000E0F6E010E0E6E7FEC10F07F0E0E1420
:1010A000136E146AC5EC10F013C017F014C018F0DA
:1010B000020E196EBEEC0DF03A0E55EC12F0000E59
:1010C0000F6E000E0E6E7FEC10F07F0E0E14136E7E
:1010D000146AC5EC10F013C017F014C018F0020E1B
:1010E000196EBEEC0DF0930E046E1EEC11F01200A2
:1010F00002BE86EF08F0025007E1080E015CD8B08E
:1011000084EF08F086EF08F0B0EF08F00350041009
:10111000D8B48DEF08F08FEF08F09FEF08F001C012
:1011200005F0010E066E052A98EF08F0D8900636F5
:10113000052E96EF08F0065080129EEF09F001C0D0
:1011400005F0010E066E052AA8EF08F0D8900636C5
:10115000052EA6EF08F00650FF0A80169EEF09F054
:1011600002BEBEEF08F0025007E1100E015CD8B0DD
:10117000BCEF08F0BEEF08F0ECEF08F0F80E012627
:10118000FF0E022203500410D8B4C9EF08F0CBEFD1
:1011900008F0DBEF08F001C005F0010E066E052A2D
:1011A000D4EF08F0D8900636052ED2EF08F006509E
:1011B00081129EEF09F001C005F0010E066E052AAE
:1011C000E4EF08F0D8900636052EE2EF08F006505E
:1011D000FF0A81169EEF09F002BEFAEF08F00250F6
:1011E00007E1180E015CD8B0F8EF08F0FAEF08F04C
:1011F00028EF09F0F00E0126FF0E02220350041022
:10120000D8B405EF09F007EF09F017EF09F001C0B6
:1012100005F0010E066E052A10EF09F0D89006368B
:10122000052E0EEF09F0065082129EEF09F001C064
:1012300005F0010E066E052A20EF09F0D89006365B
:10124000052E1EEF09F00650FF0A82169EEF09F0E8
:1012500002BE36EF09F0025007E1200E015CD8B063
:1012600034EF09F036EF09F064EF09F0E80E0126DB
:10127000FF0E022203500410D8B441EF09F043EFEF
:1012800009F053EF09F001C005F0010E066E052AC2
:101290004CEF09F0D8900636052E4AEF09F00650BB
:1012A00083129EEF09F001C005F0010E066E052ABB
:1012B0005CEF09F0D8900636052E5AEF09F006507B
:1012C000FF0A83169EEF09F002BE72EF09F002508A
:1012D00007E1280E015CD8B070EF09F072EF09F059
:1012E0009EEF09F0E00E0126FF0E022203500410CB
:1012F000D8B47DEF09F07FEF09F08FEF09F001C05E
:1013000005F0010E066E052A88EF09F0D890063622
:10131000052E86EF09F0065084129EEF09F001C0F9
:1013200005F0010E066E052A98EF09F0D8900636F2
:10133000052E96EF09F00650FF0A8416120002BE31
:10134000ADEF09F0025007E1080E015CD8B0ABEF39
:1013500009F0ADEF09F0D7EF09F003500410D8B44D
:10136000B4EF09F0B6EF09F0C6EF09F001C005F0DF
:10137000010E066E052ABFEF09F0D8900636052E3D
:10138000BDEF09F006509212C5EF0AF001C005F05A
:10139000010E066E052ACFEF09F0D8900636052E0D
:1013A000CDEF09F00650FF0A9216C5EF0AF002BE13
:1013B000E5EF09F0025007E1100E015CD8B0E3EF51
:1013C00009F0E5EF09F013EF0AF003500410D8B468
:1013D000ECEF09F0EEEF09F000EF0AF001C005F0C4
:1013E000F80E0526010E066E052AF9EF09F0D890D1
:1013F0000636052EF7EF09F006509312C5EF0AF0F6
:1014000001C005F0F80E0526010E066E052A0BEF49
:101410000AF0D8900636052E09EF0AF00650FF0AAA
:101420009316C5EF0AF002BE21EF0AF0025007E161
:10143000180E015CD8B01FEF0AF021EF0AF04FEF51
:101440000AF003500410D8B428EF0AF02AEF0AF08B
:101450003CEF0AF001C005F0F00E0526010E066E05
:10146000052A35EF0AF0D8900636052E33EF0AF03C
:1014700006509412C5EF0AF001C005F0F00E0526E3
:10148000010E066E052A47EF0AF0D8900636052EA3
:1014900045EF0AF00650FF0A9416C5EF0AF002BEA7
:1014A0005DEF0AF0025007E1200E015CD8B05BEF5F
:1014B0000AF05DEF0AF08BEF0AF003500410D8B485
:1014C00064EF0AF066EF0AF078EF0AF001C005F069
:1014D000E80E0526010E066E052A71EF0AF0D89077
:1014E0000636052E6FEF0AF006509512C5EF0AF08A
:1014F00001C005F0E80E0526010E066E052A83EFF1
:101500000AF0D8900636052E81EF0AF00650FF0A41
:101510009516C5EF0AF002BE99EF0AF0025007E1F6
:10152000280E015CD8B097EF0AF099EF0AF0C5EFEA
:101530000AF003500410D8B4A0EF0AF0A2EF0AF0AA
:10154000B4EF0AF001C005F0E00E0526010E066EAC
:10155000052AADEF0AF0D8900636052EABEF0AF05B
:1015600006509612C5EF0AF001C005F0E00E052600
:10157000010E066E052ABFEF0AF0D8900636052E3A
:10158000BDEF0AF00650FF0A96161200000E406EDC
:10159000030E316EE80E306E000E0F6E200E0E6ED2
:1015A0007FEC10F00E503E6E000E0F6E210E0E6E90
:1015B0007FEC10F00E503D6E000E0F6E230E0E6E7F
:1015C0007FEC10F00E040F10D8B4E9EF0AF0ECEF46
:1015D0000AF0010EEDEF0AF0000E3F6E000E0F6EE6
:1015E000220E0E6E7FEC10F03D503EC023F0246AB8
:1015F0002326000E24220E50231809E10F50241830
:10160000D8B405EF0BF007EF0BF017EF0BF0000E5F
:10161000216E320E206E000E226E36EC10F0000E9F
:10162000216E640E206E010E226E36EC10F0000E5C
:101630000F6E000E0E6E7FEC10F07F0E0E14136E08
:10164000146AC5EC10F013501410D8B42AEF0BF044
:101650002CEF0BF03EEF0BF0000E0F6E000E0E6E37
:101660007FEC10F07F0E0E14136E146AC5EC10F0B0
:1016700013C025F014C026F042EF0BF0000E266ECA
:10168000000E256E000E1E6E000E1D6E25C017F09A
:1016900026C018F054EC0FF0175068EC11F0000E53
:1016A0000F6E010E0E6E7FEC10F07F0E0E14136E97
:1016B000146AC5EC10F013501410D8B462EF0BF09C
:1016C00064EF0BF076EF0BF0000E0F6E010E0E6E56
:1016D0007FEC10F07F0E0E14136E146AC5EC10F040
:1016E00013C027F014C028F07AEF0BF0000E286E1C
:1016F0002D0E276E000E1E6E010E1D6E27C017F0F8
:1017000028C018F054EC0FF0175068EC11F0000EE0
:101710000F6E020E0E6E7FEC10F07F0E0E14136E25
:10172000146AC5EC10F013501410D8B49AEF0BF0F3
:101730009CEF0BF0AEEF0BF0000E0F6E020E0E6E74
:101740007FEC10F07F0E0E14136E146AC5EC10F0CF
:1017500013C029F014C02AF0B2EF0BF0000E2A6E6D
:101760000F0E296E000E1E6E020E1D6E29C017F0A0
:101770002AC018F054EC0FF0175068EC11F012006A
:10178000000E086E060E076EC6EC12F0056E0550D0
:101790000A6E0B6A38500A1809E139500B18D8B490
:1017A000D4EF0BF0D6EF0BF00DEF0CF00AA0DBEF4F
:1017B0000BF0DDEF0BF0E1EF0BF0000E086E000E0A
:1017C000076E0AA2E6EF0BF0E8EF0BF0ECEF0BF080
:1017D000000E086E010E076E0AA4F1EF0BF0F3EF96
:1017E0000BF0F7EF0BF0000E086E020E076E0AA664
:1017F000FCEF0BF0FEEF0BF002EF0CF0000E086EAA
:10180000030E076E0AA807EF0CF009EF0CF00DEFBE
:101810000CF0000E086E040E076E0AC038F00BC004
:1018200039F0D9EC11F0096E095089EC12F0095029
:10183000D8B41DEF0CF01FEF0CF086EF0CF0C8ECE5
:1018400012F0066E0650D96EDA6ADF50D8A42BEF7C
:101850000CF02DEF0CF075EF0CF056EF0CF0000EC5
:10186000086E000E076E86EF0CF0000E086E010E7B
:10187000076E86EF0CF0000E086E020E076E86EF04
:101880000CF0000E086E030E076E86EF0CF0000ED3
:10189000086E040E076E86EF0CF0000E086E060E42
:1018A000076E700E2EEC12F086EF0CF00950320A23
:1018B000D8B42FEF0CF0060AD8B43BEF0CF0010AB5
:1018C000D8B447EF0CF0030AD8B441EF0CF00E0A7D
:1018D000D8B435EF0CF0680AD8B44DEF0CF0200AFC
:1018E000D8B44DEF0CF086EF0CF009502EEC12F04E
:1018F0004250D8B47EEF0CF080EF0CF086EF0CF085
:10190000000E086E050E076E86EF0CF007C003F0A0
:1019100008C004F0120002BE99EF0CF0025007E17B
:10192000080E015CD8B097EF0CF099EF0CF0ADEF1A
:101930000CF001C003F0010E046E032AA2EF0CF0BC
:10194000D8900436032EA0EF0CF004508014056EDE
:101950000550016E026A3FEF0DF002BEBBEF0CF0C6
:10196000025007E1100E015CD8B0B9EF0CF0BBEFEC
:101970000CF0D1EF0CF001C003F0F80E0326010EBD
:10198000046E032AC6EF0CF0D8900436032EC4EF81
:101990000CF004508114056E0550016E026A3FEF91
:1019A0000DF002BEDFEF0CF0025007E1180E015CF3
:1019B000D8B0DDEF0CF0DFEF0CF0F5EF0CF001C06C
:1019C00003F0F00E0326010E046E032AEAEF0CF07A
:1019D000D8900436032EE8EF0CF004508214056E04
:1019E0000550016E026A3FEF0DF002BE03EF0DF0ED
:1019F000025007E1200E015CD8B001EF0DF003EFBB
:101A00000DF019EF0DF001C003F0E80E0326010EF2
:101A1000046E032A0EEF0DF0D8900436032E0CEF5F
:101A20000DF004508314056E0550016E026A3FEFFD
:101A30000DF002BE27EF0DF0025007E1280E015C09
:101A4000D8B025EF0DF027EF0DF03DEF0DF001C000
:101A500003F0E00E0326010E046E032A32EF0DF0B0
:101A6000D8900436032E30EF0DF004508414056E28
:101A70000550016E026A3FEF0DF001680268120026
:101A800020EE09F0040EDE6AE806FDE281CF09F0DF
:101A900081CF0AF081CF0BF081CF0CF084CF0DF015
:101AA00020EE53F010EE04F0040EDBCFE3FFE80667
:101AB000FCE2000E0E6E0E50090FD96EDA6ADF508E
:101AC000016E0E50040FD96EDA6ADF50026E010EFD
:101AD000036E022A6EEF0DF0D8900336022E6CEFE3
:101AE0000DF0035001140009D8A479EF0DF07BEF3D
:101AF0000DF08BEF0DF00EC001F0010E026E012A09
:101B000084EF0DF0D8900236012E82EF0DF00250D6
:101B10004B129AEF0DF00EC001F0010E026E012A79
:101B200094EF0DF0D8900236012E92EF0DF0025096
:101B3000FF0A4B160E2A040E0E64A1EF0DF0A3EF60
:101B40000DF05BEF0DF04B504A18D8A4AAEF0DF042
:101B5000ACEF0DF0AFEF0DF04C06B3EF0DF00A0E49
:101B60004C6E4BC04AF04C50D8A4B9EF0DF0BBEF0F
:101B70000DF0BDEF0DF04AC04DF0120018BEC5EFDC
:101B80000DF0C3EF0DF0CCEF0DF0176C181ED8B0B0
:101B9000182A2D0E55EC12F0FF0E19241F6E206A24
:101BA000FF0E202220BED9EF0DF0D7EF0DF0DBEFB6
:101BB0000DF021EF0EF0000E1E6E010E1D6E000ED8
:101BC0001C6E000E1B6EF5EF0DF01DC009F01EC05F
:101BD0000AF0000E0C6E0A0E0B6E42EC12F009C0F9
:101BE0001DF00AC01EF01B4A1C2A1F501B5C1C5013
:101BF000800A1A6E2050800A1A58D8A002EF0EF000
:101C000004EF0EF0E5EF0DF01DC003F01EC004F070
:101C100017C001F018C002F022EC0EF001C009F06C
:101C200002C00AF0000E0C6E0A0E0B6E84EC0EF071
:101C30000950300F55EC12F01F06D8A02006D2EF45
:101C40000DF01200000E066E04BE2BEF0EF029EF11
:101C50000EF031EF0EF0036C041ED8B0042A010E12
:101C6000066E02BE38EF0EF036EF0EF03EEF0EF0CD
:101C7000016C021ED8B0022A010E061A000E086E70
:101C8000000E076E03500410D8B449EF0EF04BEF6E
:101C90000EF073EF0EF0010E056E53EF0EF0D890BC
:101CA00003360436052A04AE58EF0EF05AEF0EF054
:101CB0004FEF0EF0D890073608360350015C045001
:101CC0000258D8A066EF0EF068EF0EF06DEF0EF040
:101CD0000350015E0450025A0780D8900432033248
:101CE000052E5AEF0EF00650D8B479EF0EF07BEFC8
:101CF0000EF07FEF0EF0076C081ED8B0082A07C060
:101D000001F008C002F01200000E0E6E0ABE8DEF48
:101D10000EF08BEF0EF093EF0EF0096C0A1ED8B0A8
:101D20000A2A010E0E6E0CBE9AEF0EF098EF0EF01E
:101D30009EEF0EF00B6C0C1ED8B00C2A0B500C1042
:101D4000D8B4A5EF0EF0A7EF0EF0CBEF0EF0010E1A
:101D50000D6EAFEF0EF0D8900B360C360D2A0CAE90
:101D6000B4EF0EF0B6EF0EF0ABEF0EF00B50095CD7
:101D70000C500A58D8A0BFEF0EF0C1EF0EF0C5EF1F
:101D80000EF00B50095E0C500A5AD8900C320B32F0
:101D90000D2EB6EF0EF00E50D8B4D1EF0EF0D3EFFB
:101DA0000EF0D7EF0EF0096C0A1ED8B00A2A09C04F
:101DB00009F00AC00AF012009590959E959C959A9C
:101DC00095989594000E046E96EC11F0042A060E78
:101DD0000464EDEF0EF0EFEF0EF0E4EF0EF0000E06
:101DE000016E300E18EC0FF096EC11F0000E016E43
:101DF000300E18EC0FF096EC11F0000E016E300E64
:101E000018EC0FF096EC11F0000E016E200E18EC9D
:101E10000FF096EC11F0280E5BEC10F0060E5BEC68
:101E200010F00C0E5BEC10F0010E5BEC10F01200E9
:101E3000026E0150D8B41FEF0FF021EF0FF024EF26
:101E40000FF0838025EF0FF0839002AE2AEF0FF0A2
:101E50002CEF0FF02FEF0FF0838430EF0FF083940F
:101E600002AC35EF0FF037EF0FF03AEF0FF0838849
:101E70003BEF0FF0839802AA40EF0FF042EF0FF014
:101E800045EF0FF0838A46EF0FF0839A02A84BEFDD
:101E90000FF04DEF0FF050EF0FF0838C51EF0FF07C
:101EA000839CBCEC12F0120017C001F018C002F0C5
:101EB000000E046E0A0E036E22EC0EF001C019F043
:101EC00002C01AF0193A1A3AF00E1A1619500F0BEE
:101ED0001A12F00E191617C009F018C00AF0000EF9
:101EE0000C6E0A0E0B6E84EC0EF0095019241B6E5A
:101EF0000A501A201C6E800E1B10176E1C50186E94
:101F000017C017F018C018F012000A6E0A50D8B4A3
:101F10008CEF0FF08EEF0FF090EF0FF0A2EC10F0BF
:101F2000000E0B6E09BE97EF0FF09AEF0FF0010E47
:101F30009BEF0FF0000EB5EC0FF0D89009360B2A8E
:101F4000070E0B64A6EF0FF0A8EF0FF092EF0FF063
:101F500038EC11F00850D8B4B0EF0FF0B2EF0FF03A
:101F6000B4EF0FF07FEC11F01200076E0750D8B4F9
:101F7000BCEF0FF0BEEF0FF0C2EF0FF0E6EC10F089
:101F8000C4EF0FF0EFEC11F0CAEC12F002EC11F01C
:101F90000009D8B4CEEF0FF0D0EF0FF0C6EF0FF07E
:101FA0000750D8B4D6EF0FF0D8EF0FF0DAEF0FF0FC
:101FB000E6EC10F0CAEC12F004EC12F0CAEC12F0ED
:101FC00012005C0EF66E250EF76E000EF86E00EE37
:101FD00060F010EE0CF00900F5CFEEFFE550E15097
:101FE000FAE1700EF66E250EF76E000EF86E00EE3A
:101FF00053F010EE07F00900F5CFEEFFE550E15089
:10200000FAE100EE2BF0280EEE6AE806FDE1000E84
:10201000F86E0001ADEF11F00A6E000E0D6E000EAD
:102020000C6E000E0B6E38EC11F0096E0D500D2485
:1020300009100D6E0B4A0C2A0C5009E1080E0B5CBE
:10204000D8A025EF10F027EF10F013EF10F00A5092
:10205000B5EC0FF00850D8B430EF10F032EF10F0BC
:1020600034EF10F07FEC11F00D5012002204D8A4D0
:102070003CEF10F03EEF10F049EF10F020C03EF0C2
:10208000000E1E6E200E1D6E3E5068EC11F052EFD9
:1020900010F020C03DF0000E1E6E210E1D6E3D5052
:1020A00068EC11F0000E1E6E220E1D6E3E503D2497
:1020B00068EC11F01200036E000E016E035018EC74
:1020C0000FF0000E016E0338F00B18EC0FF0020E4B
:1020D0000318D8B46EEF10F070EF10F078EF10F036
:1020E0000304D8A476EF10F078EF10F07CEF10F036
:1020F00096EC11F07EEF10F07DEC12F01200000E65
:10210000086EDE0E096E010E85EC0FF0000E086EF3
:102110000EC009F0000E85EC0FF0000E086EDF0E09
:10212000096E010E85EC0FF0010E086E010E0CEC2D
:1021300010F0106E1050116E126A11C00EF012C025
:102140000FF012004850D8B4A8EF10F0AAEF10F02A
:10215000BAEF10F0E6EC10F0CAEC12F002EC11F05D
:102160000009D8B4B6EF10F0B8EF10F0AEEF10F0F1
:10217000CAEC12F0E6EC10F0EFEC11F0CAEC12F041
:1021800004EC12F0010E486E12000F0E1314156EBF
:10219000000E1414166E000E046E100E036E13C0A3
:1021A00001F014C002F022EC0EF001C009F002C0F0
:1021B0000AF0000E0C6E0A0E0B6E42EC12F0155077
:1021C0000924136E16500A20146E1200000E026EBF
:1021D000080E016E000E046E010E036E9FEC09F0F6
:1021E000000E026E080E016E8BEC0CF00150021016
:1021F000D8A4FDEF10F000EF11F0010E01EF11F087
:10220000000E1200000E026E090E016E000E046E2A
:10221000010E036E9FEC09F0000E026E090E016EB6
:102220008BEC0CF001500210D8A419EF11F01CEF48
:1022300011F0010E1DEF11F0000E120029EF11F048
:1022400004C0F6FF080EF76E0800F55055EC12F0CA
:10225000042A04C0F6FF080EF76E0800F5500009C6
:10226000D8A435EF11F037EF11F020EF11F0120084
:10227000E6EC10F0CAEC12F002EC11F00009D8B450
:1022800044EF11F046EF11F03CEF11F0E6EC10F0E6
:10229000076ECAEC12F004EC12F0CAEC12F0075010
:1022A0001200000E016E5BEF11F001504E0FD96E5F
:1022B000DA6ADF6A012A040E016461EF11F063EF4C
:1022C00011F055EF11F0000E426E000E3C6E120040
:1022D0001F6E000E086EDE0E096E010E85EC0FF00B
:1022E000000E086E1DC009F0000E85EC0FF0010E07
:1022F000086E1FC009F0000E85EC0FF01200EFEC25
:1023000011F0CAEC12F002EC11F00009D8B48BEF16
:1023100011F08DEF11F083EF11F0CAEC12F0E6EC42
:1023200010F0CAEC12F0000E486E1200000E016EA2
:10233000000E026E022AB10E0264A1EF11F0A3EFAB
:1023400011F09AEF11F0012A130E0164AAEF11F0B7
:10235000ACEF11F098EF11F01200A7EC12F0DCECEA
:102360000EF0BFEC12F09FEC12F064EC12F0000ED5
:10237000926E000E896E40EC0DF050EC04F0BBEF55
:1023800011F000EF00F001500210D8A4CAEF11F0D4
:10239000CCEF11F0D1EF11F03DC003F0046AD4EF9F
:1023A00011F03EC003F0046A03C001F004C002F063
:1023B0001200000E016EABA2E0EF11F0E2EF11F09F
:1023C000E4EF11F0AB98AB889EAAE9EF11F0EBEFC8
:1023D00011F0EDEF11F0AECF01F001501200000E40
:1023E000026E080E016E000E046E000E036E9FEC6E
:1023F00009F0000E026E080E016E000E046E000E53
:10240000036E78EC08F01200000E026E090E016EE9
:10241000000E046E000E036E9FEC09F0000E026EBB
:10242000090E016E000E046E000E036E78EC08F0CB
:102430001200000E026E080E016E000E046E010EF8
:10244000036E9FEC09F0000E026E090E016E000E85
:10245000046E010E036E9FEC09F01200016E3C50F9
:102460004E0FD96EDA6A01C0DFFF3C2A050E3C1818
:10247000D8A43DEF12F03FEF12F041EF12F0010E41
:10248000426E120009500B02F3CF0DF0F4CF0EF0A4
:1024900009500C02F3500E260A500B02F3500E2680
:1024A0000DC009F00EC00AF01200036E010E016E9D
:1024B000035018EC0FF0010E016E0338F00B18EC0E
:1024C0000FF07DEC12F012002C0EAC6E900EAB6E85
:1024D000080EB86E000EB06E220EAF6E948C948E05
:1024E0001200206E2050010B3F6E000E1E6E230E58
:1024F0001D6E3F5068EC11F01200000E016E012AB3
:10250000430E016486EF12F088EF12F07FEF12F0B5
:102510001200016E9EA88FEF12F091EF12F08AEF79
:1025200012F001C0ADFF1200A7EC12F0000E3B6EDE
:10253000000E3A6E000E376E010E366E1200C6ECBB
:102540000AF0050EB4EC12F094EC12F0120093684D
:10255000F19E0E0EC16E000E636E12007343734344
:102560005333533363830000016E01C040F0120007
:0725700002030504016200F3
:10257800838E839E120019EC12F012003F50120055
:0E258800405012004D5012004E0E1200120074
:020000040030CA
:08000000000C1F1EFF8381FFAD
:00000001FF
